:1000000002000375816612014BE582600302006FF6
:10001000780079007A007B007C007D00EC4D601C4C
:1000200088828983E493A3A882A9838A828B83F040
:10003000A3AA82AB831CBCFFE31D80E07582007520
:1000400083007C007D00EC4D600AE4F0A31CBCFF43
:10005000F51D80F27582007583007C007D00EC4DFB
:10006000600AE4F0A31CBCFFF51D80F212014A12E5
:1000700005F780FE496E7365727420436170616399
:1000800069746F720043203D20252E346625634637
:10009000001B5B324A0045464D3820506572696F3F
:1000A00064206D6561737572656D656E7420617431
:1000B0002070696E2050302E31207573696E672074
:1000C00054696D657220302E0A46696C653A2025A8
:1000D000730A436F6D70696C65643A2025732C2038
:1000E00025730A0A00433A5C55736572735C6B634F
:1000F00067726F5C446F63756D656E74735C47699E
:10010000744875625C454C45433239315C4C414220
:10011000345C4C4142342E63004D61722020362005
:10012000323032330030373A32303A343000627590
:1001300074746F6E3220707265737365640A000D9B
:10014000257300543D256C6673002275A7007597D2
:10015000DE7597AD43FF8075EF0275A71075C1205E
:1001600075A70075A90075A900E5A930E7FB75A979
:100170000375A903E5A930E7FB43A41075E10175F8
:10018000E20075E340759810858E8E758DE6858D3D
:100190008B53890F438920D28ED29975820022AA6F
:1001A00082438E407592B87593FF8592948593959E
:1001B0007591047B00C3EB9A500BE59130E7FB533C
:1001C000917F0B80F075910022AA82AB83BA000464
:1001D000BB0001227582F9C002C00312019F758223
:1001E000F912019F7582F912019F7582FA12019F1F
:1001F000D003D0021ABAFF011B80D2D2A575822883
:1002000012019FC2A522AA828AE0A2E792A1A2E6D9
:1002100092A2A2E592A3A2E492A4C0021201FB75ED
:10022000822812019FD0028AE0A2E392A1A2E29268
:10023000A2A2E192A3A2E092A40201FBAA82D2A60A
:100240008A821202069000020201C9AA82C2A68A0C
:10025000821202069000050201C9C2A59000141284
:1002600001C975823312024B75823312024B7582BB
:100270003212024B75822812024B75820C12024B0D
:1002800075820112024B9000140201C9AA82AB834D
:10029000ACF07402B523047DC080027D808D82C0E5
:1002A00002C003C00412024B9000051201C9D00421
:1002B000D003D0027D007E00ED2AFFEE3BF88C01DA
:1002C0008F82888389F01208C5FF60208F82C00268
:1002D000C003C004C005C00612023CD006D005D041
:1002E00004D003D0020DBD00CF0E80CC3000248D91
:1002F000028E03C3EA9410EB6480948050157582DB
:1003000020C002C00312023CD003D0020ABA00E3AC
:100310000B80E02285822685832785F028E4F52955
:10032000F52AE52424FFFFE52534FFF879007A005B
:10033000C3E99FEA648088F063F08095F05059C06B
:1003400002C007C000C001120A7EAB82D001D000FB
:10035000D007D002BB0A028003BB0D1DE52925266C
:10036000FCE52A3527FDAE288C828D838EF0E412C1
:100370000A91852982852A8322E92526FCEA3527E8
:10038000FDAE288C828D838EF0EB120A9109B900A4
:10039000010A89298A2A8098E5292526FAE52A353D
:1003A00027FBAC288A828B838CF0E4120A91852487
:1003B00082852583225389F0438901C28C22AA8237
:1003C000AB83ACF0FDC002C003C004C005906B2835
:1003D00075F06E744E120941AA82AB83ACF0FDE554
:1003E0008124FCF58174C6C0E0749BC0E07458C0E1
:1003F000E07445C0E08A828B838CF0ED120B4CAA2E
:1004000082AB83ACF0FDE58124FCF5818A828B838D
:100410008CF0ED22AA82AB83ACF07D6EC002C003EB
:10042000C004C005E4C0E0C0E074C0C0E0743FC0D8
:10043000E0852B82852C83852DF0E52E120911AEE7
:1004400082E58124FCF581D005D004D003D002EEF2
:10045000601C7474C0E07400C0E07480C0E0C0022E
:10046000C003C004120AF9E58124FAF58122C00212
:10047000C003C004C005E4C0E0C0E074C8C0E074BC
:1004800042C0E0852B82852C83852DF0E52E120855
:10049000E1AE82E58124FCF581D005D004D003D003
:1004A00002EE603E7D75C002C003C004C005E4C01A
:1004B000E0C0E0747AC0E07444C0E0852B82852CF3
:1004C00083852DF0E52E120B4C85822B85832C85A0
:1004D000F02DF52EE58124FCF581D005D004D00364
:1004E000D002C002C003C004C005E4C0E0C0E07494
:1004F000C8C0E07442C0E0852B82852C83852DF036
:10050000E52E1208E1AE82E58124FCF581D005D00C
:1005100004D003D002EE603E7D6DC002C003C00473
:10052000C005E4C0E0C0E0747AC0E07444C0E08577
:100530002B82852C83852DF0E52E120B4C85822B8A
:1005400085832C85F02DF52EE58124FCF581D005E1
:10055000D004D003D002C002C003C004C005E4C070
:10056000E0C0E074C8C0E07442C0E0852B82852CF6
:1005700083852DF0E52E1208E1AE82E58124FCF59D
:1005800081D005D004D003D002EE603E7D20C002B1
:10059000C003C004C005E4C0E0C0E0747AC0E074E9
:1005A00044C0E0852B82852C83852DF0E52E120B2F
:1005B0004C85822B85832C85F02DF52EE58124FC3E
:1005C000F581D005D004D003D002ED3395E0FEC014
:1005D00005C006C02BC02CC02DC02E7485C0E07491
:1005E00000C0E07480C0E0C002C003C004120AF979
:1005F000E58124F4F58122E4F52FF5301203B512DC
:10060000025A9001F41201C97491C0E07400C0E074
:100610007480C0E0120A5D1581158115817425C0B2
:10062000E07401C0E07480C0E07419C0E07401C0DF
:10063000E07480C0E074E5C0E07400C0E07480C085
:10064000E07496C0E07400C0E07480C0E0120A5DFF
:10065000E58124F4F581758A00758C00C28D7522C0
:10066000002081FD3081FDD28C308109108D028007
:10067000F8052280F4208109108D0280F80522807F
:10068000F4C28C8522821209E4AC82AD83AEF0FF05
:10069000C004C005C006C00790000075F080744714
:1006A000120941AC82AD83AEF0FFE58124FCF581F7
:1006B000858C82C004C005C006C0071209E4A88268
:1006C000A983AAF0FBC000C001C002C003900000D3
:1006D00075F0807443120941AA82AB83A8F0F9E552
:1006E0008124FCF581D007D006D005D004C002C01B
:1006F00003C000C0018C828D838EF0EF1209EFAA37
:1007000082AB83ACF0FDE58124FCF581AE8A7F00ED
:100710008E828F83C002C003C004C005120B3FAE9F
:1007200082AF83A8F0F9D005D004D003D002C00670
:10073000C007C000C0018A828B838CF0ED1209EFE4
:10074000AA82AB83ACF0FDE58124FCF581C002C038
:1007500003C004C00590F4FC75F0327434120941F2
:10076000AA82AB83ACF0FDE58124FCF581209147A2
:10077000C002C003C004C005742EC0E07401C0E014
:100780007480C0E0120A5D158115811581D005D0F5
:1007900004D003D002052FE4B52F020530C3740145
:1007A000952FE464808530F063F08095F05005E487
:1007B000F52FF5303091FD20933F8A828B838CF0AA
:1007C000EDC002C003C004C0051203BE85822B85A4
:1007D000832C85F02DF52E90003175F04012041415
:1007E000752302D20090003175F04012028CD005C2
:1007F000D004D003D0023093FDE52F4530705D8AE0
:10080000828B838CF0EDC002C003C004C0051203CC
:10081000BE85822B85832C85F02DF52E90003175B9
:10082000F0401204147431C0E07400C0E07440C0A1
:10083000E0743FC0E07401C0E07480C0E0120A5D63
:10084000E58124FAF581752301D20090003175F01D
:100850004012028CD005D004D003D0027401B52F11
:1008600006E4B530028003020656C002C003C0048D
:10087000C0057443C0E07401C0E07480C0E074310E
:10088000C0E07400C0E07440C0E0120AF9E58124C1
:10089000F6F5817431C0E07400C0E07440C0E074CB
:1008A0003FC0E07401C0E07480C0E0120A5DE581E1
:1008B00024FAF581752301D20090003175F04012C1
:1008C000028C02065620F71430F6148883A8822082
:1008D000F507E6A88375830022E280F7E49322E01F
:1008E00022FFA8811818120C89D2D133E6400730B4
:1008F000E70B7582012220E70675820022C2D11221
:100900000C6BE97003F5822230D101B3E433F58238
:1009100022FFA8811818120C89D2D133E640073083
:10092000E70B7582002220E70675820122C2D112F0
:100930000C6BE97003F5822220D101B3E433F58218
:1009400022120D36BC0003020CD5EF60FA30D5023E
:10095000B2D1E583B4FF03020CEBE582B4FF0302DE
:100960000CEB258340072482400B020CD524831412
:100970005003020CEBF582EA8DF0A4A8F0EA8EF0A9
:10098000A428F8E435F0F9EB8DF0A428E935F0F966
:10099000E433CA8FF0A429F9EA35F0FAEBF88EF0C7
:1009A000A429F9EA35F0FAE433FBEC8DF0A429F937
:1009B000EA35F0FAE43BFBE88FF0A42AFAEB35F0D5
:1009C000FBE433CCFD8EF0A42AFAEB35F0FBE43CDB
:1009D000FCED8FF0A42BFBEC35F0FC20E703120DAF
:1009E00003020CB4E4AC82FBFAF97486020D6D12BA
:1009F0000D367900E583B58202800D5003120D7724
:100A0000E583C39582120D91E5D0C465D020E1172E
:100A1000EA2DFAEB3EFBEC3FFC50097401120D91FC
:100A2000EC4480FC020CB4C3EA9DFAEB9EFBEC9F05
:100A3000FC500FC3E499F9E49AFAE49BFBE49CFCB4
:100A4000B2D1120D03020CB4021760858253858364
:100A50005485F055851056900A480211B3C0088598
:100A60008108E50824FBF556E50824FBF8865308C1
:100A70008654088655900A481211B3D0082210985F
:100A80000280FBAA998A82C002121760D0028A8271
:100A90002220F71030F6118883A88220F507F6A8E7
:100AA0008375830022F280F7F022AA82AB09AC0A98
:100AB000AD0B8B828C838DF0EA120A910509E4B5A7
:100AC0000902050A2285820985830A85F00B850CB7
:100AD00053850D54850E55850F56900AAA1211B3F1
:100AE000AA82AB83AC09AD0AAE0B8C828D838EF0EB
:100AF000E4120A918A828B8322C008858108E50866
:100B000024F8F556E50824FBF8860908860A0886C5
:100B10000BE50824F8F88653088654088655900A91
:100B2000AA1211B3AA82AB83AC09AD0AAE0B8C82B8
:100B30008D838EF0E4120A918A828B83D00822ACD6
:100B400083AB827A007900748E02177E120D3630E4
:100B5000D502B2D1BF0009BC0003020CF8020CEBB5
:100B6000BC0003020CD5E583B4FF0BE582B4FF03A0
:100B7000020CF8020CD5E582B4FF03020CEBC3951E
:100B8000835007247F400B020CD5248014500302AD
:100B90000CEBC0E0E4CCCBCAF98D118E128F13EFB1
:100BA00054F0C4F5147583068514F0EB84F582E9DE
:100BB000C4F9EAC4FAEBC4FBEC540FC47803D6FCC6
:100BC00018EBD6FB18EAD6FA8582F0EDA4A8F0FD62
:100BD0008582F0EEA428FEE435F0F88582F0EFA4DB
:100BE00028FFE435F0F8E99DF9EA9EFAEB9FFBEC6B
:100BF00098FCAD11AE12AF1330E7101582E92DF954
:100C0000EA3EFAEB3FFBE43CFC80EDC082D58398E2
:100C1000C3E933F9EA33FAEB33FBEC33FCC3E99D68
:100C2000EA9EEB9FEC9400B3E413F9D002D0E0C449
:100C30004AFAD003D0E0C44BFBD004D0E0F5F05426
:100C40000FC44CFCD082158230F40FD3EC13FCEBB4
:100C500013FBEA13FAE913F90582E930E70A740194
:100C60002AFAE43BFBE43CFC020CCC7901AA82E6C4
:100C70008F82B5821318E6B5F00E18E6B583091811
:100C8000E68A82B58202790022B4800FE5F0700A0C
:100C9000E5837006E58270027F00EFB6801518B616
:100CA000001018B6000B18B60006080808760022D7
:100CB00008080822B98003EA13B34010EA2401FAB5
:100CC000E43BFBE43CFC50047C800582BC000EBB92
:100CD000000BBA0008E4F5F0F583F58222A2D1E515
:100CE00082138CF092F78B838A8222E4F583F5825B
:100CF00075F080F4A2D11322E4F583F58275F0C07B
:100D0000747F227804EC7011E58224F8500AF58291
:100D1000E4C9CACBFCD8EF22EC7820058220E71387
:100D2000D5820122C3E933F9EA33FAEB33FBEC3322
:100D3000FCD8EA158222AA82AB83A2F73392D16053
:100D400002D2F7F582ACF0E58124F9F8E6FD08E679
:100D5000FE0886F008E6A2F73392D56002D2F7F5D6
:100D600083AFF022FCABF0AA83A982749EC2D1F5B6
:100D700082120D03020CB4E582C583F582A2D13341
:100D8000A2D592D11392D5ECCFFCEBCEFBEACDFAF3
:100D9000226040F82582500274FFF582E824F85062
:100DA0001ECCCBCAF9E4CC24F85014CBCAF9E4CB5E
:100DB00024F8500BCAF9E4CA24F85003790022241D
:100DC000086010F8C3EC13FCEB13FBEA13FAE91309
:100DD000F9D8F122AA8274E5C0E0740DC0E0C045E4
:100DE000C0468A8222054CE4B54C02054D22AA82F7
:100DF00074302AFA24C6500A74072AFA30010343D1
:100E000002208A82020DD4E582FAC4540FF582C012
:100E100002120DEED002740F5AF582020DEEAA47AF
:100E2000AB48AC49AD4AAE4B755220EE2EFEED23D9
:100E30005401FF4206EA2AFAEB33FBEC33FCED33B4
:100E4000FDC3EE954E4008EEC3954EFE430201D51C
:100E500052D98A478B488C498D4A8E4B227863E65B
:100E600024D075F00AA4FA7864E624D02AFA7862CD
:100E70008603BB2D04C3E49AFA754E01C3E4648073
:100E80008AF063F08095F050297552038A0374F656
:100E90002552401C054EE552142457F8E5522457BC
:100EA000F98704A604772E1BEBFA6004055280DE56
:100EB0008B02EA30E70D785886037859A6037858F4
:100EC000762E0AE550600AE55004FB254EF54E806B
:100ED00005300C02054E78578603E4BB2D0104FB58
:100EE0007006200703300802054E300503020FA4E8
:100EF000300657EB600C75822DC002120DD4D00263
:100F0000801C30070C75822BC002120DD4D00280D9
:100F10000D30080A758220C002120DD4D002785814
:100F20008604BC2E0C758230C002120DD4D002157E
:100F30004FAC4F154FC3E54E9C4003020FE875823E
:100F400030C002120DD4D00280E7AC4F154FC3E57C
:100F50004E9C500C758220C002120DD4D00280EA43
:100F600078578604BC2D0C75822DC002120DD4D08A
:100F700002801C30070C75822BC002120DD4D002E7
:100F8000800D30080A758220C002120DD4D002787C
:100F9000588604BC2E52758230C002120DD4D00285
:100FA000154F8044EB600E75822DC002120DD4D017
:100FB00002154F802030070E75822BC002120DD40F
:100FC000D002154F800F30080C758220C002120D20
:100FD000D4D002154F78588603BB2E0C758230C0D2
:100FE00002120DD4D002154F755201C20EE55224E3
:100FF00057F88603BB45030210A5BB2E348A03C3F2
:10100000E464808BF063F08095F0500F758230C0FF
:1010100003120DD4D0031B8B0280E48B02D20EE5A9
:10102000507038200C030210A575822E120DD4804A
:1010300074300E278A03EB30E71FC3E464808550C9
:10104000F063F08095F0500C758230C003120DD41F
:10105000D00315500B8B0280DD8B02300E0EC3E4E3
:1010600064808550F063F08095F05021E55224575C
:10107000F886038B82C002120DD4D002300E0EE52A
:10108000522457F88603BB2E0280021550154FC319
:10109000E464808550F063F08095F04003200E05F5
:1010A0000552020FEDC3E464808550F063F0809533
:1010B000F0500A758230120DD4155080E830050FBB
:1010C000AA4F154FEA6008758220120DD480F122D4
:1010D000E5507003300C0D74072550FAE54FC39AA4
:1010E000F54F8006E54F24FAF54F75520078578684
:1010F00002BA2B0F20070C7857762020080575526E
:1011000001054F200519AA4FC3E464808AF063F0FB
:101110008095F0500A758220120DD4154F80E7C2D9
:101120000EE5522457F88602BA00028069BA451FBC
:101130003001027665C3E464808550F063F08095E9
:10114000F0500A758230120DD4155080E8D20EC3CB
:10115000E5529402E433FA7014EA700EC3E464803A
:101160008550F063F08095F04003300E16E5522470
:1011700057F886028A82120DD4E55224FD501215CA
:1011800050800E7402B55209300C0675822E120D75
:10119000D40552021121300519AA4FC3E464808A94
:1011A000F063F08095F0500A758220120DD4154F2F
:1011B00080E722858245858346E4F54CF54DAA53A8
:1011C000AB54AC558A828B838CF01208C5FD740138
:1011D0002AF553E43BF5548C55EDFA700302175988
:1011E000BA25028003021751C205C206C207C2080F
:1011F000C209C20AC20BC20CC202C203C204754EAB
:1012000000754F007550FFAB53AC54AD558B828CBD
:10121000838DF01208C5FAA3AB82AC838B538C5438
:101220008D55BA25078A82120DD480928A06BE3067
:1012300000402E8A06EE24C6402774FFB55013E501
:101240004F75F00AA4FEEA24D02EF54F70BFD206E7
:1012500080BBE55075F00AA4FEEA24D02EF550803C
:10126000ACBA2E0A74FFB550A4755000809F8A0650
:10127000BE6100400E8A06EE248540075302DFD28D
:10128000018002C201BA20028075BA230302130E44
:10129000BA2A03021313BA2B02805FBA2D028055BB
:1012A000BA4202805FBA4303021358BA44030214DD
:1012B00093BA45030214ADBA46030214A9BA470310
:1012C0000214B1BA4903021493BA4C02803BBA4EDD
:1012D000030214B5BA4F0302149ABA500302142C35
:1012E000BA530302137CBA550302149FBA5803027F
:1012F00014A40214DFD20502120DD20702120DD27D
:101300000802120DD20A02120DD20B02120DD20CDB
:1013100002120D74FFB55020300A0BE55614F88800
:1013200056864F02120DE55624FEF88856860608AA
:101330008607188E4F02120D300A0BE55614F888F6
:1013400056865002120DE55624FEF8885686060889
:101350008607188E5002120D300A0AE55614F888D6
:10136000568602800FE55624FEF8885686030886C6
:1013700004188B028A82120DD40214E4E55624FD6F
:10138000F88856860308860408860518188B478C4B
:10139000488D498B828C838DF01218C1AB82AC834F
:1013A0008B5174FFB5500385515020051DC3E55185
:1013B000954F5016E54FC39551F54FAB4F154FEB79
:1013C0006008758220120DD480F18547828548839C
:1013D0008549F01208C5FBFA6029AB501550C3E4EB
:1013E00064808BF063F08095F050188A82120DD4DF
:1013F000AB47AC48AD490BBB00010C8B478C488D0B
:101400004980C72005030214E4C3E551954F40030A
:101410000214E4E54FC39551F54FAB4F154FEB70F8
:10142000030214E4758220120DD480EEE55624FDEB
:10143000F88856860308860408860518188B478C9A
:10144000488D49E549FB30E7047A438013EB54604B
:1014500060047A50800AEB30E6047A4980027A58B8
:101460008A82C002120DD475823A120DD475823070
:10147000120DD4758278120DD4D002BA4902800BB5
:10148000BA50028006854882120E07854782120EE6
:10149000078051D209754E0A804A754E08804575FD
:1014A0004E0A8040754E10803BD2028037D20380B6
:1014B00033D204802FE55624FDF88856860308862B
:1014C0000408860518188B478C488D498B828C83BD
:1014D0008DF0E54C120A91A3E54D120A9180058A20
:1014E00082120DD4200206200303300470E5562436
:1014F000FCF88856860308860408860508860618C0
:1015000018188B478C488D498E4AE547E548E549D0
:10151000E54A8B828C838DF0EE1217A274FFB550D2
:1015200003755006300427747F554AFB8B4BE54BFF
:10153000EB2BFB8B4BE54930E7067401454BF54B34
:10154000E54B246840067499254B4002D2033003D2
:10155000061210D00211BE120E5D0211BEE54E70D1
:10156000030211BE7B5C300A2BE55614F88856E660
:10157000FC3395E0FDFEFF8C478D488E498F4A2055
:10158000095EAC477D007E007F008C478D488E4908
:101590008F4A804C300B1FE55624FCF88856860491
:1015A0000886050886060886071818188C478D488F
:1015B0008E498F4A802AE55624FEF888568604080C
:1015C000860518ED3395E0FEFF8C478D488E498FD8
:1015D0004A20090CAC47AD487E007F008E498F4AF7
:1015E000300C43E54745484549454A60397408B5DC
:1015F0004E0C758230C003120DD4D00380287410B5
:10160000B54E23758230C003120DD4D00330010CC7
:10161000758278C003120DD4D003800A758258C039
:1016200003120DD4D003300925AC47AD48AE49E5CF
:101630004AFF30E717C3E49CFCE49DFDE49EFEE412
:101640009FFF8C478D488E498F4A8002C209755191
:1016500000D20D8B00754B00C000120E1ED0002072
:101660000D0DE54BC4FCE6FD4CF61888038002A680
:101670004B0551B20DE54745484549454A70D68866
:1016800003E54F7003754F0120061A200517E55139
:1016900004FCC3954F500E758220C003120DD4D0A8
:1016A00003154F80E930090E75822DC003120DD449
:1016B000D003154F8024E551602030070E75822B32
:1016C000C003120DD4D003154F800F30080C758263
:1016D00020C003120DD4D003154F20051EAC4F15AA
:1016E0004FC3E5519C50273006047C3080027C209B
:1016F0008C82C003120DD4D00380E2C3E551954F14
:101700005009E54FC39551F54F8003754F008B008D
:10171000AB511551EB6022B20D200D0A08E6C454FE
:101720000FFB8B4B80078603740F5BF54B854B8259
:10173000C000120DEED00080D72005030211BEAB11
:101740004F154FEB70030211BE758220120DD4802D
:10175000EE8A82120DD40211BE854C82854D832201
:10176000AA82BA0A0810990280FB75990D10990295
:1017700080FB8A9922FCABF0AA83A982749EF58231
:10178000C2D1EC30E716D2D1E9F42401F9EAF434FD
:1017900000FAEBF43400FBECF43400FC120D03020D
:1017A0000CB4C0E0F84582458345F07009F5F0FBC4
:1017B000FCFDFE021870E823A2F792E0F8A982AAC5
:1017C00083D2F7ABF07C007E07C3749798404074D7
:1017D000FF2EFE740A89F0A4F985F082740A8AF05B
:1017E000A4FA85F083740A8BF0A4FB740529F9EA46
:1017F0003582FAEB3583FB740035F0FCC3EC13FC47
:10180000EB13FBEA13FAE913F908EC70EF80BAE87E
:10181000C3947FF88B838EF0E4FBFCFDFEFF08C3CE
:10182000E933F9EA33FAE58333F583EB3BD4FBEC98
:101830003CD4FCED3DD4FDEE3ED4FEEF3FD4FF6042
:101840002D05F074052BD4FBE43CD4FCE43DD4FD21
:10185000E43ED4FEE43FD4FF758204C3EF13FFEEF1
:1018600013FEED13FDEC13FCEB13FBD582EDD8AFAB
:101870007857D0E020E704762B8002762D08790691
:10188000E7C4540F4430F608B90603762E08E7542F
:101890000F4430F60819B902E7764508E5F020E76D
:1018A00004762B8004762DF4040875F00A84443005
:1018B000F608E5F04430F608E4F690005775F0407D
:1018C00022AA82AB83ACF07D007E008A828B838C5F
:1018D000F01208C5FFA3AA82AB83EF60070DBD001D
:1018E000EA0E80E78D828E83220000000000000057
:00000001FF
