:10000000020003758160120126E582600302006F21
:10001000780079007A007B007C007D00EC4D601C4C
:1000200088828983E493A3A882A9838A828B83F040
:10003000A3AA82AB831CBCFFE31D80E07582007520
:1000400083007C007D00EC4D600AE4F0A31CBCFF43
:10005000F51D80F27582007583007C007D00EC4DFB
:10006000600AE4F0A31CBCFFF51D80F2120125120A
:1000700006A180FE496E73657274204361706163EE
:1000800069746F720043203D20252E346625634637
:10009000001B5B324A004144432074657374207036
:1000A000726F6772616D0A46696C653A2025730A42
:1000B000436F6D70696C65643A2025732C2025733D
:1000C0000A0A00433A5C55736572735C6B6367722E
:1000D0006F5C446F63756D656E74735C47697448DB
:1000E00075625C454C45433239315C4C4142352D9B
:1000F000506861736F7220416E616C797369735CD3
:1001000045464D385F4144432E63004D61722020C7
:100110003720323032330032323A30383A3233001C
:10012000256C660A002275A7007597DE7597AD7578
:10013000FF8075EF0675A71075C12075A70075A91A
:100140000075A900E5A930E7FB75A90375A903E5CA
:10015000A930E7FB43A41075E10175E20075E340A7
:10016000759810758DE6858D8B53890F438920D244
:100170008ED2997582002275A700C2EF75B2807584
:10018000BC2075B91E75E80075DF3F75B300D2EF6E
:1001900022AA82438E407592B87593FF859294850A
:1001A00093957591047B00C3EB9A500BE59130E772
:1001B000FB53917F0B80F075910022AA82AB837C68
:1001C000007D00C3EC9AED9B502B7E00BE040050D6
:1001D0001D7582FAC002C003C004C005C00612012A
:1001E00091D006D005D004D003D0020E80DE0CBC26
:1001F00000D10D80CE22AA828511F005F074018015
:100200000225E0D5F0FBFB75A720BA0002800ABAF0
:100210000102800FBA021E8014EBF4FA52F1EB4295
:10022000D48012EBF4FA52F2EB42D58008EBF4FAE8
:1002300052F3EB42CC75A700228582BBC2EDD2EC13
:1002400030EDFD85BD8285BE832212023912085D24
:10025000AA82AB83ACF0FDC002C003C004C005900D
:100260006C8B75F05374401208C9AA82AB83ACF052
:10027000FDE58124FCF581E4C0E074FCC0E0747FFE
:10028000C0E07446C0E08A828B838CF0ED120AD401
:10029000AA82AB83ACF0FDE58124FCF5818A828BD8
:1002A000838CF0ED22D2A5758228120191C2A5227D
:1002B000AA828AE0A2E792A1A2E692A2A2E592A374
:1002C000A2E492A4C0021202A5758228120191D064
:1002D000028AE0A2E392A1A2E292A2A2E192A3A2E8
:1002E000E092A40202A5AA82D2A68A821202B0904B
:1002F00000020201BBAA82C2A68A821202B090004A
:10030000050201BBC2A59000141201BB7582331215
:1003100002F57582331202F57582321202F575828A
:10032000281202F575820C1202F57582011202F58F
:100330009000140201BBAA82AB83ACF07402B52317
:10034000047DC080027D808D82C002C003C0041283
:1003500002F59000051201BBD004D003D0027D004D
:100360007E00ED2AFFEE3BF88C018F82888389F0B6
:10037000120841FF60208F82C002C003C004C00584
:10038000C0061202E6D006D005D004D003D0020D7C
:10039000BD00CF0E80CC3000248D028E03C3EA94C2
:1003A00010EB648094805015758220C002C0031247
:1003B00002E6D003D0020ABA00E30B80E022858275
:1003C0002685832785F028E4F529F52AE52424FFEE
:1003D000FFE52534FFF879007A00C3E99FEA6480DD
:1003E00088F063F08095F05059C002C007C000C08B
:1003F00001120A06AB82D001D000D007D002BB0A9E
:10040000028003BB0D1DE5292526FCE52A3527FDC5
:10041000AE288C828D838EF0E4120A19852982859C
:100420002A8322E92526FCEA3527FDAE288C828D19
:10043000838EF0EB120A1909B900010A89298A2A68
:100440008098E5292526FAE52A3527FBAC288A82FB
:100450008B838CF0E4120A1985248285258322532C
:1004600089F0438901C28C22AA82AB83ACF0FDC023
:1004700002C003C004C005906B2875F06E744E1264
:1004800008C9AA82AB83ACF0FDE58124FCF5817438
:10049000C6C0E0749BC0E07458C0E07445C0E08AF8
:1004A000828B838CF0ED120AD4AA82AB83ACF0FD70
:1004B000E58124FCF5818A828B838CF0ED22AA826F
:1004C000AB83ACF07D6EC002C003C004C005E4C0C5
:1004D000E0C0E074C0C0E0743FC0E0852B82852C92
:1004E00083852DF0E52E120899AE82E58124FCF576
:1004F00081D005D004D003D002EE601C7474C0E03B
:100500007400C0E07480C0E0C002C003C004120ADE
:1005100081E58124FAF58122C002C003C004C00530
:10052000E4C0E0C0E074C8C0E07442C0E0852B8243
:10053000852C83852DF0E52E120869AE82E5812495
:10054000FCF581D005D004D003D002EE603E7D756D
:10055000C002C003C004C005E4C0E0C0E0747AC0BB
:10056000E07444C0E0852B82852C83852DF0E52E38
:10057000120AD485822B85832C85F02DF52EE581FA
:1005800024FCF581D005D004D003D002C002C00302
:10059000C004C005E4C0E0C0E074C8C0E07442C05C
:1005A000E0852B82852C83852DF0E52E120869AE1F
:1005B00082E58124FCF581D005D004D003D002EE81
:1005C000603E7D6DC002C003C004C005E4C0E0C051
:1005D000E0747AC0E07444C0E0852B82852C83856A
:1005E0002DF0E52E120AD485822B85832C85F02DE3
:1005F000F52EE58124FCF581D005D004D003D0028E
:10060000C002C003C004C005E4C0E0C0E074C8C0BC
:10061000E07442C0E0852B82852C83852DF0E52E89
:10062000120869AE82E58124FCF581D005D004D0A2
:1006300003D002EE603E7D20C002C003C004C005AE
:10064000E4C0E0C0E0747AC0E07444C0E0852B826E
:10065000852C83852DF0E52E120AD485822B858387
:100660002C85F02DF52EE58124FCF581D005D004F4
:10067000D003D002ED3395E0FEC005C006C02BC00C
:100680002CC02DC02E7485C0E07400C0E07480C002
:10069000E0C002C003C004120A81E58124F4F581A0
:1006A000229001F41201BB7491C0E07400C0E074A8
:1006B00080C0E01209E51581158115817417C0E02D
:1006C0007401C0E07480C0E0740BC0E07401C0E04D
:1006D0007480C0E074C3C0E07400C0E07480C0E007
:1006E0007496C0E07400C0E07480C0E01209E5E5D3
:1006F0008124F4F581120177120721AA82AB83AC21
:10070000F0FDC002C003C004C0057420C0E0740145
:10071000C0E07480C0E01209E5E58124F9F581802C
:10072000D7C28C5389F0438901758C00758A00C249
:100730008D2081FD3081FDD28C7A007B0030810CD0
:10074000108D0280F80ABA00F40B80F1C28C8A8204
:100750008B8312085DAA82AB83ACF0FDC002C0039C
:10076000C004C00590000075F08074471208C9AA43
:1007700082AB83ACF0FDE58124FCF581858C82C0E1
:1007800002C003C004C00512096CAE82AF83A8F09A
:10079000F9C006C007C000C00190000075F0807469
:1007A000431208C9AE82AF83A8F0F9E58124FCF5B5
:1007B00081D005D004D003D002C006C007C000C05D
:1007C000018A828B838CF0ED120977AA82AB83AC0D
:1007D000F0FDE58124FCF581AE8A7F008E828F8357
:1007E000C002C003C004C005120AC7AE82AF83A80E
:1007F000F0F9D005D004D003D002C006C007C00075
:10080000C0018A828B838CF0ED120977AA82AB83B8
:10081000ACF0FDE58124FCF581C002C003C004C03A
:100820000590AAAB75F02A743E1208C9AA82AB8360
:10083000ACF0FDE58124FCF5818A828B838CF0EDA0
:100840002220F71430F6148883A88220F507E6A842
:100850008375830022E280F7E49322E022E4AC83F4
:10086000AB82FAF9748E020BFCFFA8811818120CE7
:1008700024D2D133E6400730E70B7582012220E70E
:100880000675820022C2D1120C06E97003F582229D
:1008900030D101B3E433F58222FFA8811818120C7D
:1008A00024D2D133E6400730E70B7582002220E7DF
:1008B0000675820122C2D1120C06E97003F582226C
:1008C00020D101B3E433F58222120CD1BC00030223
:1008D0000C70EF60FA30D502B2D1E583B4FF0302A9
:1008E0000C86E582B4FF03020C8625834007248230
:1008F000400B020C702483145003020C86F582EA2C
:100900008DF0A4A8F0EA8EF0A428F8E435F0F9EB15
:100910008DF0A428E935F0F9E433CA8FF0A429F961
:10092000EA35F0FAEBF88EF0A429F9EA35F0FAE4AA
:1009300033FBEC8DF0A429F9EA35F0FAE43BFBE84F
:100940008FF0A42AFAEB35F0FBE433CCFD8EF0A453
:100950002AFAEB35F0FBE43CFCED8FF0A42BFBEC2A
:1009600035F0FC20E703120C9E020C4FE4AC82FB36
:10097000FAF97486020BFC120CD17900E583B5827A
:1009800002800D5003120CFFE583C39582120D19EE
:10099000E5D0C465D020E117EA2DFAEB3EFBEC3F31
:1009A000FC50097401120D19EC4480FC020C4FC379
:1009B000EA9DFAEB9EFBEC9FFC500FC3E499F9E42F
:1009C0009AFAE49BFBE49CFCB2D1120C9E020C4F01
:1009D0000216E885824D85834E85F04F8510509034
:1009E00009D002113BC008858108E50824FBF550B9
:1009F000E50824FBF8864D08864E08864F9009D0FE
:100A000012113BD0082210980280FBAA998A82C05A
:100A1000021216E8D0028A822220F71030F61188DE
:100A200083A88220F507F6A88375830022F280F759
:100A3000F022AA82AB09AC0AAD0B8B828C838DF0BD
:100A4000EA120A190509E4B50902050A2285820994
:100A500085830A85F00B850C4D850D4E850E4F85DF
:100A60000F50900A3212113BAA82AB83AC09AD0A37
:100A7000AE0B8C828D838EF0E4120A198A828B83EE
:100A800022C008858108E50824F8F550E50824FB14
:100A9000F8860908860A08860BE50824F8F8864DCA
:100AA00008864E08864F900A3212113BAA82AB8309
:100AB000AC09AD0AAE0B8C828D838EF0E4120A195C
:100AC0008A828B83D00822AC83AB827A007900744F
:100AD0008E021706120CD130D502B2D1BF0009BC6C
:100AE0000003020C93020C86BC0003020C70E58329
:100AF000B4FF0BE582B4FF03020C93020C70E58295
:100B0000B4FF03020C86C395835007247F400B0279
:100B10000C702480145003020C86C0E0E4CCCBCAD5
:100B2000F98D118E128F13EF54F0C4F514758306EE
:100B30008514F0EB84F582E9C4F9EAC4FAEBC4FB4E
:100B4000EC540FC47803D6FC18EBD6FB18EAD6FA9F
:100B50008582F0EDA4A8F0FD8582F0EEA428FEE4E5
:100B600035F0F88582F0EFA428FFE435F0F8E99D30
:100B7000F9EA9EFAEB9FFBEC98FCAD11AE12AF13B5
:100B800030E7101582E92DF9EA3EFAEB3FFBE43C31
:100B9000FC80EDC082D58398C3E933F9EA33FAEBE0
:100BA00033FBEC33FCC3E99DEA9EEB9FEC9400B36E
:100BB000E413F9D002D0E0C44AFAD003D0E0C44B29
:100BC000FBD004D0E0F5F0540FC44CFCD082158269
:100BD00030F40FD3EC13FCEB13FBEA13FAE913F92F
:100BE0000582E930E70A74012AFAE43BFBE43CFCA5
:100BF000020C67FCABF0AA83A982749EC2D1F58275
:100C0000120C9E020C4F7901AA82E68F82B58213E4
:100C100018E6B5F00E18E6B5830918E68A82B582A3
:100C200002790022B4800FE5F0700AE5837006E5D2
:100C30008270027F00EFB6801518B6001018B6005B
:100C40000B18B6000608080876002208080822B922
:100C50008003EA13B34010EA2401FAE43BFBE43CCE
:100C6000FC50047C800582BC000EBB000BBA00085F
:100C7000E4F5F0F583F58222A2D1E582138CF0929F
:100C8000F78B838A8222E4F583F58275F080F4A2E3
:100C9000D11322E4F583F58275F0C0747F227804C5
:100CA000EC7011E58224F8500AF582E4C9CACBFC45
:100CB000D8EF22EC7820058220E713D5820122C3E9
:100CC000E933F9EA33FAEB33FBEC33FCD8EA15826B
:100CD00022AA82AB83A2F73392D16002D2F7F582C7
:100CE000ACF0E58124F9F8E6FD08E6FE0886F00898
:100CF000E6A2F73392D56002D2F7F583AFF022E592
:100D000082C583F582A2D133A2D592D11392D5ECBC
:100D1000CFFCEBCEFBEACDFA226040F825825002F0
:100D200074FFF582E824F8501ECCCBCAF9E4CC2439
:100D3000F85014CBCAF9E4CB24F8500BCAF9E4CA32
:100D400024F8500379002224086010F8C3EC13FC47
:100D5000EB13FBEA13FAE913F9D8F122AA82746DB6
:100D6000C0E0740DC0E0C03FC0408A82220546E466
:100D7000B54602054722AA8274302AFA24C6500AD0
:100D800074072AFA3001034302208A82020D5CE5CF
:100D900082FAC4540FF582C002120D76D002740F8D
:100DA0005AF582020D76AA41AB42AC43AD44AE4542
:100DB000754C20EE2EFEED235401FF4206EA2AFA7E
:100DC000EB33FBEC33FCED33FDC3EE95484008EE0E
:100DD000C39548FE430201D54CD98A418B428C43CE
:100DE0008D448E4522785DE624D075F00AA4FA7809
:100DF0005EE624D02AFA785C8603BB2D04C3E49A0D
:100E0000FA754801C3E464808AF063F08095F0507D
:100E100029754C038A0374F6254C401C0548E54CA3
:100E2000142451F8E54C2451F98704A604772E1BAD
:100E3000EBFA6004054C80DE8B02EA30E70D785255
:100E400086037853A6037852762E0AE54A600AE5AF
:100E50004A04FB2548F5488005300C0205487851C6
:100E60008603E4BB2D0104FB700620070330080253
:100E70000548300503020F2C300657EB600C7582D5
:100E80002DC002120D5CD002801C30070C75822B25
:100E9000C002120D5CD002800D30080A758220C09D
:100EA00002120D5CD00278528604BC2E0C75823082
:100EB000C002120D5CD0021549AC491549C3E54882
:100EC0009C4003020F70758230C002120D5CD0028C
:100ED00080E7AC491549C3E5489C500C758220C099
:100EE00002120D5CD00280EA78518604BC2D0C758C
:100EF000822DC002120D5CD002801C30070C75825E
:100F00002BC002120D5CD002800D30080A758220C1
:100F1000C002120D5CD00278528604BC2E5275823B
:100F200030C002120D5CD00215498044EB600E7592
:100F3000822DC002120D5CD0021549802030070EB0
:100F400075822BC002120D5CD0021549800F30084B
:100F50000C758220C002120D5CD0021549785286B1
:100F600003BB2E0C758230C002120D5CD0021549F5
:100F7000754C01C20EE54C2451F88603BB450302B3
:100F8000102DBB2E348A03C3E464808BF063F080A1
:100F900095F0500F758230C003120D5CD0031B8B8F
:100FA0000280E48B02D20EE54A7038200C03021056
:100FB0002D75822E120D5C8074300E278A03EB3063
:100FC000E71FC3E46480854AF063F08095F0500C1D
:100FD000758230C003120D5CD003154A0B8B028062
:100FE000DD8B02300E0EC3E46480854AF063F0802E
:100FF00095F05021E54C2451F886038B82C00212F3
:101000000D5CD002300E0EE54C2451F88603BB2E49
:10101000028002154A1549C3E46480854AF063F0F2
:101020008095F04003200E05054C020F75C3E46463
:1010300080854AF063F08095F0500A758230120D79
:101040005C154A80E830050FAA491549EA60087521
:101050008220120D5C80F122E54A7003300C0D7481
:1010600007254AFAE549C39AF5498006E54924FA75
:10107000F549754C0078518602BA2B0F20070C7881
:10108000517620200805754C010549200519AA490B
:10109000C3E464808AF063F08095F0500A75822082
:1010A000120D5C154980E7C20EE54C2451F886020A
:1010B000BA00028069BA451F3001027665C3E46454
:1010C00080854AF063F08095F0500A758230120DE9
:1010D0005C154A80E8D20EC3E54C9402E433FA7002
:1010E00014EA700EC3E46480854AF063F08095F0E2
:1010F0004003300E16E54C2451F886028A82120D08
:101100005CE54C24FD5012154A800E7402B54C0962
:10111000300C0675822E120D5C054C0210A93005AC
:1011200019AA49C3E464808AF063F08095F0500AFC
:10113000758220120D5C154980E72285823F8583E8
:1011400040E4F546F547AA4DAB4EAC4F8A828B83FF
:101150008CF0120841FD74012AF54DE43BF54E8CEC
:101160004FEDFA70030216E1BA250280030216D988
:10117000C205C206C207C208C209C20AC20BC20C1B
:10118000C202C203C204754800754900754AFFAB2C
:101190004DAC4EAD4F8B828C838DF0120841FAA37B
:1011A000AB82AC838B4D8C4E8D4FBA25078A821251
:1011B0000D5C80928A06BE3000402E8A06EE24C660
:1011C000402774FFB54A13E54975F00AA4FEEA24E6
:1011D000D02EF54970BFD20680BBE54A75F00AA44F
:1011E000FEEA24D02EF54A80ACBA2E0A74FFB54A26
:1011F000A4754A00809F8A06BE6100400E8A06EEF2
:10120000248540075302DFD2018002C201BA2002C6
:101210008075BA2303021296BA2A0302129BBA2BD4
:1012200002805FBA2D028055BA4202805FBA430342
:101230000212E0BA440302141BBA4503021435BA81
:101240004603021431BA4703021439BA490302149F
:101250001BBA4C02803BBA4E0302143DBA4F030244
:101260001422BA50030213B4BA5303021304BA553A
:1012700003021427BA580302142C021467D2050281
:101280001195D207021195D208021195D20A0211C6
:1012900095D20B021195D20C02119574FFB54A201C
:1012A000300A0BE55014F888508649021195E55034
:1012B00024FEF888508606088607188E4902119584
:1012C000300A0BE55014F88850864A021195E55013
:1012D00024FEF888508606088607188E4A02119563
:1012E000300A0AE55014F888508602800FE5502431
:1012F000FEF888508603088604188B028A82120D35
:101300005C02146CE55024FDF888508603088604BE
:1013100008860518188B418C428D438B828C838DF7
:10132000F0121849AB82AC838B4B74FFB54A03852E
:101330004B4A20051DC3E54B95495016E549C39519
:101340004BF549AB491549EB6008758220120D5CDD
:1013500080F18541828542838543F0120841FBFA82
:101360006029AB4A154AC3E464808BF063F0809532
:10137000F050188A82120D5CAB41AC42AD430BBBFE
:1013800000010C8B418C428D4380C7200503021461
:101390006CC3E54B9549400302146CE549C3954B7A
:1013A000F549AB491549EB700302146C75822012A4
:1013B0000D5C80EEE55024FDF88850860308860415
:1013C00008860518188B418C428D43E543FB30E7B6
:1013D000047A438013EB546060047A50800AEB3047
:1013E000E6047A4980027A588A82C002120D5C753E
:1013F000823A120D5C758230120D5C758278120D86
:101400005CD002BA4902800BBA5002800685428243
:10141000120D8F854182120D8F8051D20975480AB5
:10142000804A754808804575480A80407548108094
:101430003BD2028037D2038033D204802FE5502480
:10144000FDF88850860308860408860518188B4125
:101450008C428D438B828C838DF0E546120A19A352
:10146000E547120A1980058A82120D5C20020620C7
:101470000303300470E55024FCF888508603088686
:10148000040886050886061818188B418C428D437F
:101490008E44E541E542E543E5448B828C838DF043
:1014A000EE12172A74FFB54A03754A0630042774F2
:1014B0007F5544FB8B45E545EB2BFB8B45E54330E6
:1014C000E70674014545F545E545246840067499ED
:1014D00025454002D203300306121058021146126D
:1014E0000DE5021146E54870030211467B56300AAD
:1014F0002BE55014F88850E6FC3395E0FDFEFF8C98
:10150000418D428E438F4420095EAC417D007E00B8
:101510007F008C418D428E438F44804C300B1FE501
:101520005024FCF88850860408860508860608863C
:10153000071818188C418D428E438F44802AE5503D
:1015400024FEF88850860408860518ED3395E0FEE1
:10155000FF8C418D428E438F4420090CAC41AD423B
:101560007E007F008E438F44300C43E54145424569
:1015700043454460397408B5480C758230C0031285
:101580000D5CD00380287410B54823758230C003E9
:10159000120D5CD00330010C758278C003120D5C13
:1015A000D003800A758258C003120D5CD003300945
:1015B00025AC41AD42AE43E544FF30E717C3E49CA0
:1015C000FCE49DFDE49EFEE49FFF8C418D428E4332
:1015D0008F448002C209754B00D20D8B0075450007
:1015E000C000120DA6D000200D0DE545C4FCE6FD9F
:1015F0004CF61888038002A645054BB20DE541451F
:10160000424543454470D68803E549700375490156
:1016100020061A200517E54B04FCC39549500E75AA
:101620008220C003120D5CD003154980E930090EF9
:1016300075822DC003120D5CD00315498024E54B43
:10164000602030070E75822BC003120D5CD003158D
:1016500049800F30080C758220C003120D5CD00346
:10166000154920051EAC491549C3E54B9C50273050
:1016700006047C3080027C208C82C003120D5CD07A
:101680000380E2C3E54B95495009E549C3954BF505
:101690004980037549008B00AB4B154BEB6022B2C0
:1016A0000D200D0A08E6C4540FFB8B458007860306
:1016B000740F5BF545854582C000120D76D0008021
:1016C000D7200503021146AB491549EB70030211FF
:1016D00046758220120D5C80EE8A82120D5C02112A
:1016E0004685468285478322AA82BA0A0810990253
:1016F00080FB75990D10990280FB8A9922FCABF052
:10170000AA83A982749EF582C2D1EC30E716D2D1A9
:10171000E9F42401F9EAF43400FAEBF43400FBECC8
:10172000F43400FC120C9E020C4FC0E0F8458245D8
:101730008345F07009F5F0FBFCFDFE0217F8E82385
:10174000A2F792E0F8A982AA83D2F7ABF07C007EE0
:1017500007C3749798404074FF2EFE740A89F0A462
:10176000F985F082740A8AF0A4FA85F083740A8BF2
:10177000F0A4FB740529F9EA3582FAEB3583FB7492
:101780000035F0FCC3EC13FCEB13FBEA13FAE9138E
:10179000F908EC70EF80BAE8C3947FF88B838EF081
:1017A000E4FBFCFDFEFF08C3E933F9EA33FAE58305
:1017B00033F583EB3BD4FBEC3CD4FCED3DD4FDEEA8
:1017C0003ED4FEEF3FD4FF602D05F074052BD4FB13
:1017D000E43CD4FCE43DD4FDE43ED4FEE43FD4FF3D
:1017E000758204C3EF13FFEE13FEED13FDEC13FC43
:1017F000EB13FBD582EDD8AF7851D0E020E704762B
:101800002B8002762D087906E7C4540F4430F60881
:10181000B90603762E08E7540F4430F60819B902CA
:10182000E7764508E5F020E704762B8004762DF472
:10183000040875F00A844430F608E5F04430F608F0
:10184000E4F690005175F04022AA82AB83ACF07DA3
:10185000007E008A828B838CF0120841FFA3AA824B
:10186000AB83EF60070DBD00EA0E80E78D828E83AB
:101870002200000000000000000000000000000046
:00000001FF
