:100000000200037581671200B0E582600302006F91
:10001000780079007A007B007C007D00EC4D601C4C
:1000200088828983E493A3A882A9838A828B83F040
:10003000A3AA82AB831CBCFFE31D80E07582007520
:1000400083007C007D00EC4D600AE4F0A31CBCFF43
:10005000F51D80F27582007583007C007D00EC4DFB
:10006000600AE4F0A31CBCFFF51D80F21200AF1281
:10007000070380FE1B5B324A00543D25302E31665B
:100080006D732056723D25302E31665600503D2549
:100090006420663D25302E3166487A00543D256641
:1000A0002C2056723D25662C20503D25640A0022E6
:1000B00075A7007597DE7597AD75FF8075EF0675AE
:1000C000A71075C12075A70075A90075A900E5A93D
:1000D00030E7FB75A90375A903E5A930E7FB43A445
:1000E0001075E10175E20075E340759810758DE6B5
:1000F000858D8B53890F438920D28ED299758200CA
:100100002275A700C2EF75B28075BC2075B91E7547
:10011000E80075DF3F75B300D2EF22AA82438E401C
:100120007592B87593FF8592948593957591047B2C
:1001300000C3EB9A500BE59130E7FB53917F0B80A6
:10014000F075910022AA82AB837C007D00C3EC9AFB
:10015000ED9B502B7E00BE0400501D7582FAC0023C
:10016000C003C004C005C00612011BD006D005D0D4
:1001700004D003D0020E80DE0CBC00D10D80CE2254
:10018000AA828511F005F07401800225E0D5F0FB0C
:10019000FB75A720BA0002800ABA0102800FBA02DA
:1001A0001E8014EBF4FA52F1EB42D48012EBF4FA15
:1001B00052F2EB42D58008EBF4FA52F3EB42CC75E5
:1001C000A700228582BBC2EDD2EC30EDFD85BD8259
:1001D00085BE83221201C3120A1FAA82AB83ACF030
:1001E000FDC002C003C004C005906C8B75F0537451
:1001F00040120ABFAA82AB83ACF0FDE58124FCF576
:1002000081E4C0E074FCC0E0747FC0E07446C0E0EC
:100210008A828B838CF0ED120CCAAA82AB83ACF07D
:10022000FDE58124FCF5818A828B838CF0ED22D25E
:10023000A575822812011BC2A522AA828AE0A2E724
:1002400092A1A2E692A2A2E592A3A2E492A4C00285
:1002500012022F75822812011BD0028AE0A2E392BB
:10026000A1A2E292A2A2E192A3A2E092A402022F92
:10027000AA82D2A68A8212023A900002020145AAFC
:1002800082C2A68A8212023A900005020145C2A5E6
:1002900090001412014575823312027F7582331269
:1002A000027F75823212027F75822812027F758268
:1002B0000C12027F75820112027F90001402014528
:1002C000AA82AB83ACF07402B523047DC080027DAA
:1002D000808D82C002C003C00412027F900005120C
:1002E0000145D004D003D0027D007E00ED2AFFEE50
:1002F0003BF88C018F82888389F0120A03FF60200B
:100300008F82C002C003C004C005C006120270D0B4
:1003100006D005D004D003D0020DBD00CF0E80CC96
:100320003000248D028E03C3EA9410EB6480948025
:100330005015758220C002C003120270D003D00293
:100340000ABA00E30B80E02285822685832785F0A8
:1003500028E4F529F52AE52424FFFFE52534FFF8F4
:1003600079007A00C3E99FEA648088F063F08095A1
:10037000F05059C002C007C000C001120BFCAB8294
:10038000D001D000D007D002BB0A028003BB0D1DF4
:10039000E5292526FCE52A3527FDAE288C828D83AC
:1003A0008EF0E4120C0F852982852A8322E9252606
:1003B000FCEA3527FDAE288C828D838EF0EB120C83
:1003C0000F09B900010A89298A2A8098E52925267A
:1003D000FAE52A3527FBAC288A828B838CF0E4125D
:1003E0000C0F852482852583225389F0438901C21D
:1003F0008C22AA82C28C5389F0438901758C0075C6
:100400008A00C28D8A82C0021201D4AB82AC83AD55
:10041000F0FED002EB4C4D8EF0C2F745F070E58A4D
:1004200082C0021201D4AB82AC83ADF0FED002EBED
:100430004C4D8EF0C2F745F060E5D28C7B007C001D
:100440008A82C002C003C0041201D4AD82AE83AF61
:10045000F0F8D004D003D002ED4E4F88F0C2F7453B
:10046000F0600C108D0280D80BBB00D40C80D1C280
:100470008C8B828C83120A1FAA82AB83ACF0FDC0E6
:1004800002C003C004C00590000075F080744712DC
:100490000ABFAA82AB83ACF0FDE58124FCF581851F
:1004A0008C82C002C003C004C005120B62AE82AFD2
:1004B00083A8F0F9C006C007C000C0019000007515
:1004C000F0807443120ABFAE82AF83A8F0F9E581D1
:1004D00024FCF581D005D004D003D002C006C007AB
:1004E000C000C0018A828B838CF0ED120B6DAA8252
:1004F000AB83ACF0FDE58124FCF581AE8A7F008EF4
:10050000828F83C002C003C004C005120CBDAE823E
:10051000AF83A8F0F9D005D004D003D002C006C044
:1005200007C000C0018A828B838CF0ED120B6DAA8C
:1005300082AB83ACF0FDE58124FCF581C002C003F1
:10054000C004C00590763375F0AF7439120ABFAAA3
:1005500082AB83ACF0FDE58124FCF5818A828B833C
:100560008CF0ED22AA82C28C5389F0438901758CEC
:1005700000758A00C28D8A82C0021201D4AB82AC9F
:1005800083ADF0FED002EB4C4D8EF0C2F745F0602B
:10059000E58A82C0021201D4AB82AC83ADF0FED0FA
:1005A00002EB4C4D8EF0C2F745F070E5D28CD29440
:1005B0007A007B00852B82C002C0031201D4AC827A
:1005C000AD83AEF0FFD003D002EC4D4E8FF0C2F7FA
:1005D00045F0700C108D0280DB0ABA00D70B80D476
:1005E000852B82C002C0031201D4AC82AD83AEF071
:1005F000FFD003D002EC4D4E8FF0C2F745F0600CF7
:10060000108D0280DB0ABA00D70B80D4C294C28C52
:100610008A828B83120A1FAA82AB83ACF0FDC002D0
:10062000C003C004C00590000075F0807447120A32
:10063000BFAA82AB83ACF0FDE58124FCF581858CFB
:1006400082C002C003C004C005120B62AE82AF8339
:10065000A8F0F9C006C007C000C00190000075F006
:10066000807443120ABFAE82AF83A8F0F9E58124FB
:10067000FCF581D005D004D003D002C006C007C06D
:1006800000C0018A828B838CF0ED120B6DAA82ABC5
:1006900083ACF0FDE58124FCF581AE8A7F008E827B
:1006A0008F83C002C003C004C005120CBDAE82AF70
:1006B00083A8F0F9D005D004D003D002C006C0074B
:1006C000C000C0018A828B838CF0ED120B6DAA8270
:1006D000AB83ACF0FDE58124FCF581C002C003C012
:1006E00004C00590763375F02F7439120ABFAA82C0
:1006F000AB83ACF0FDE58124FCF5818A828B838C91
:10070000F0ED221203E912028E9001F412014574F9
:1007100074C0E07400C0E07480C0E0120BDB15818F
:100720001581158175110175820012018012010178
:100730007A007B007C007D00A281E433F582C00258
:10074000C003C004C0051203F285822C85832D8569
:10075000F02EF52FD005D004D003D002A281E433CF
:10076000F582C002C003C004C0051201D4AE82AF3E
:1007700083A8F0F9D005D004D003D002EE4F488909
:10078000F0C2F745F070D5A281E433F582C002C013
:1007900003C004C0051201D4AE82AF83A8F0F9E40F
:1007A000C0E0C0E0C0E0743FC0E08E828F8388F07C
:1007B000E9120A8FAE82E58124FCF581D005D004D0
:1007C000D003D002EE70C0A281E433F582C002C033
:1007D00003C004C0051201D4AE82AF83A8F0F9D0E3
:1007E00005D004D003D002EE4F4889F0C2F745F09F
:1007F0006060A281E433F582C002C003C004C0057A
:100800001201D4AE82AF83A8F0F9D005D004D00392
:10081000D002C002C003C004C005C002C003C004AF
:10082000C0058E828F8388F0E9120A2BAE82E581A3
:1008300024FCF581D005D004D003D002EE6088A25C
:1008400081E433F5821201D4AA82AB83ACF0FD02BD
:1008500007C7A281E433F582A282E433F52BC002FC
:10086000C003C004C005120564AE82AF83A8F0F9CE
:10087000C02CC02DC02EC02F8E828F8388F0E9122D
:100880000CCAAE82AF83A8F0F9E58124FCF581C0E3
:1008900006C007C000C00190000075F0B474431298
:1008A0000ABFAE82AF83A8F0F9E58124FCF5818E02
:1008B000828F8388F0E9120A5B858230858331D08C
:1008C00005D004D003D002C374B49530E4648085AD
:1008D00031F063F08095F0500CE530243EF530E5C2
:1008E0003134FEF531C002C003C004C0059004815C
:1008F00075F035743F120ABFAA82AB83ACF0FDE5F8
:100900008124FCF581C002C003C004C005C002C040
:1009100003C004C005C02CC02DC02EC02F7479C0E8
:10092000E07400C0E07480C0E07432C0E07400C0C5
:10093000E07440C0E0120C77E58124F2F581752364
:1009400001D20090003275F0401202C0E4C0E0C055
:10095000E0747AC0E07444C0E0852C82852D8385E4
:100960002EF0E52F120CCAA882A983AEF0FFE58114
:1009700024FCF581C000C001C006C00790000075CE
:10098000F080743F120CCAAE82AF83A8F0F9E58103
:1009900024FCF581C006C007C000C001C030C031D2
:1009A000748DC0E07400C0E07480C0E07432C0E0B8
:1009B0007400C0E07440C0E0120C77E58124F4F5C7
:1009C00081752302D20090003275F0401202C0D02F
:1009D00005D004D003D002C030C031C002C003C073
:1009E00004C005C02CC02DC02EC02F749CC0E07464
:1009F00000C0E07480C0E0120BDBE58124F3F581D8
:100A000002073020F71430F6148883A88220F507F7
:100A1000E6A88375830022E280F7E49322E022E4D3
:100A2000AC83AB82FAF9748E020DF2FFA88118181C
:100A3000120E1AD2D133E6400730E70B758201223D
:100A400020E70675820022C2D1120DFCE97003F581
:100A5000822230D101B3E433F58222120E45700AAE
:100A6000E582458345F0700122E430D112F4700B29
:100A7000E5F0F47006E58330E701229080002270F3
:100A80000AE5F07006E58320E70122907FFF22FF50
:100A9000A8811818120E1AD2D133E6400730E70B9E
:100AA0007582002220E70675820122C2D1120DFC58
:100AB000E97003F5822220D101B3E433F5822212DA
:100AC0000F22BC0003020EC1EF60FA30D502B2D192
:100AD000E583B4FF03020ED7E582B4FF03020ED70D
:100AE000258340072482400B020EC1248314500347
:100AF000020ED7F582EA8DF0A4A8F0EA8EF0A428C1
:100B0000F8E435F0F9EB8DF0A428E935F0F9E43399
:100B1000CA8FF0A429F9EA35F0FAEBF88EF0A4298F
:100B2000F9EA35F0FAE433FBEC8DF0A429F9EA3563
:100B3000F0FAE43BFBE88FF0A42AFAEB35F0FBE493
:100B400033CCFD8EF0A42AFAEB35F0FBE43CFCED4F
:100B50008FF0A42BFBEC35F0FC20E703120EEF0224
:100B60000EA0E4AC82FBFAF97486020DF2120F2299
:100B70007900E583B58202800D5003120F50E583A2
:100B8000C39582120F6AE5D0C465D020E117EA2D23
:100B9000FAEB3EFBEC3FFC50097401120F6AEC4487
:100BA00080FC020EA0C3EA9DFAEB9EFBEC9FFC507A
:100BB0000FC3E499F9E49AFAE49BFBE49CFCB2D1FC
:100BC000120EEF020EA002193985825485835585D5
:100BD000F056851057900BC602138CC0088581080B
:100BE000E50824FBF557E50824FBF88654088655EC
:100BF000088656900BC612138CD0082210980280DB
:100C0000FBAA998A82C002121939D0028A82222054
:100C1000F71030F6118883A88220F507F6A88375AF
:100C2000830022F280F7F022AA82AB09AC0AAD0B56
:100C30008B828C838DF0EA120C0F0509E4B5090252
:100C4000050A2285820985830A85F00B850C548567
:100C50000D55850E56850F57900C2812138CAA82BD
:100C6000AB83AC09AD0AAE0B8C828D838EF0E4129F
:100C70000C0F8A828B8322C008858108E50824F83E
:100C8000F557E50824FBF8860908860A08860BE56F
:100C90000824F8F88654088655088656900C2812C1
:100CA000138CAA82AB83AC09AD0AAE0B8C828D8308
:100CB0008EF0E4120C0F8A828B83D00822AC83ABB7
:100CC000827A007900748E021957120F2230D502F1
:100CD000B2D1BF0009BC0003020EE4020ED7BC0073
:100CE00003020EC1E583B4FF0BE582B4FF03020EDD
:100CF000E4020EC1E582B4FF03020ED7C395835010
:100D000007247F400B020EC12480145003020ED72B
:100D1000C0E0E4CCCBCAF98D118E128F13EF54F0E2
:100D2000C4F5147583068514F0EB84F582E9C4F9E3
:100D3000EAC4FAEBC4FBEC540FC47803D6FC18EBFE
:100D4000D6FB18EAD6FA8582F0EDA4A8F0FD8582DC
:100D5000F0EEA428FEE435F0F88582F0EFA428FF39
:100D6000E435F0F8E99DF9EA9EFAEB9FFBEC98FC7C
:100D7000AD11AE12AF1330E7101582E92DF9EA3E3E
:100D8000FAEB3FFBE43CFC80EDC082D58398C3E9DD
:100D900033F9EA33FAEB33FBEC33FCC3E99DEA9E0B
:100DA000EB9FEC9400B3E413F9D002D0E0C44AFA0C
:100DB000D003D0E0C44BFBD004D0E0F5F0540FC416
:100DC0004CFCD082158230F40FD3EC13FCEB13FBF8
:100DD000EA13FAE913F90582E930E70A74012AFAFD
:100DE000E43BFBE43CFC020EB8FCABF0AA83A98216
:100DF000749EC2D1F582120EEF020EA07901AA8272
:100E0000E68F82B5821318E6B5F00E18E6B58309B1
:100E100018E68A82B58202790022B4800FE5F0706C
:100E20000AE5837006E58270027F00EFB680151830
:100E3000B6001018B6000B18B600060808087600B1
:100E4000220808082212197BC3749E9582403979C2
:100E500000120F6A30D126E9F42401F582EAF43455
:100E600000F583EBF43400F5F0ECF43400700AE59F
:100E700082458345F0700122E430E70F22EC20E741
:100E80001489828A838BF02230D10AE4F582F583BB
:100E9000F5F074802274FFF582F583F5F0747F22FB
:100EA000B98003EA13B34010EA2401FAE43BFBE4FF
:100EB0003CFC50047C800582BC000EBB000BBA00D9
:100EC00008E4F5F0F583F58222A2D1E582138CF0D7
:100ED00092F78B838A8222E4F583F58275F080F4A1
:100EE000A2D11322E4F583F58275F0C0747F2278D5
:100EF00004EC7011E58224F8500AF582E4C9CACBEB
:100F0000FCD8EF22EC7820058220E713D58201225D
:100F1000C3E933F9EA33FAEB33FBEC33FCD8EA15D7
:100F20008222AA82AB83A2F73392D16002D2F7F574
:100F300082ACF0E58124F9F8E6FD08E6FE0886F0CB
:100F400008E6A2F73392D56002D2F7F583AFF0221C
:100F5000E582C583F582A2D133A2D592D11392D571
:100F6000ECCFFCEBCEFBEACDFA226040F8258250B4
:100F70000274FFF582E824F8501ECCCBCAF9E4CC09
:100F800024F85014CBCAF9E4CB24F8500BCAF9E486
:100F9000CA24F8500379002224086010F8C3EC1327
:100FA000FCEB13FBEA13FAE913F9D8F122AA8274D5
:100FB000BEC0E0740FC0E0C046C0478A8222054D23
:100FC000E4B54D02054E22AA8274302AFA24C65096
:100FD0000A74072AFA3001034302208A82020FAD05
:100FE000E582FAC4540FF582C002120FC7D0027412
:100FF0000F5AF582020FC7AA48AB49AC4AAD4BAEB7
:101000004C755320EE2EFEED235401FF4206EA2AD2
:10101000FAEB33FBEC33FCED33FDC3EE954F4008A8
:10102000EEC3954FFE430201D553D98A488B498CB4
:101030004A8D4B8E4C227864E624D075F00AA4FACF
:101040007865E624D02AFA78638603BB2D04C3E4CE
:101050009AFA754F01C3E464808AF063F08095F0DA
:1010600050297553038A0374F62553401C054FE538
:1010700053142458F8E5532458F98704A604772E0E
:101080001BEBFA6004055380DE8B02EA30E70D7833
:10109000598603785AA6037859762E0AE551600AD4
:1010A000E55104FB254FF54F8005300C02054F78C4
:1010B000588603E4BB2D0104FB70062007033008AB
:1010C00002054F30050302117D300657EB600C75A9
:1010D000822DC002120FADD002801C30070C758229
:1010E0002BC002120FADD002800D30080A7582208D
:1010F000C002120FADD00278598604BC2E0C758246
:1011000030C002120FADD0021550AC501550C3E5DF
:101110004F9C40030211C1758230C002120FADD046
:101120000280E7AC501550C3E54F9C500C758220EF
:10113000C002120FADD00280EA78588604BC2D0C94
:1011400075822DC002120FADD002801C30070C75C5
:10115000822BC002120FADD002800D30080A7582BA
:1011600020C002120FADD00278598604BC2E5275F1
:101170008230C002120FADD00215508044EB600ED9
:1011800075822DC002120FADD0021550802030079D
:101190000E75822BC002120FADD0021550800F3099
:1011A000080C758220C002120FADD002155078597C
:1011B0008603BB2E0C758230C002120FADD0021513
:1011C00050755301C20EE5532458F88603BB4503FE
:1011D00002127EBB2E348A03C3E464808BF063F07A
:1011E0008095F0500F758230C003120FADD0031BF5
:1011F0008B0280E48B02D20EE5517038200C030282
:10120000127E75822E120FAD8074300E278A03EB8A
:1012100030E71FC3E464808551F063F08095F0509F
:101220000C758230C003120FADD00315510B8B0229
:1012300080DD8B02300E0EC3E464808551F063F0D4
:101240008095F05021E5532458F886038B82C00224
:10125000120FADD002300E0EE5532458F88603BBB2
:101260002E02800215511550C3E464808551F0634D
:10127000F08095F04003200E0505530211C6C3E42B
:1012800064808551F063F08095F0500A75823012C9
:101290000FAD155180E830050FAA501550EA6008CF
:1012A000758220120FAD80F122E5517003300C0DD4
:1012B00074072551FAE550C39AF5508006E550248D
:1012C000FAF55075530078588602BA2B0F20070C98
:1012D000785876202008057553010550200519AA75
:1012E00050C3E464808AF063F08095F0500A758200
:1012F00020120FAD155080E7C20EE5532458F88632
:1013000002BA00028069BA451F3001027665C3E463
:1013100064808551F063F08095F0500A7582301238
:101320000FAD155180E8D20EC3E5539402E433FAB1
:101330007014EA700EC3E464808551F063F0809508
:10134000F04003300E16E5532458F886028A8212C4
:101350000FADE55324FD50121551800E7402B553A4
:1013600009300C0675822E120FAD05530212FA30A9
:101370000519AA50C3E464808AF063F08095F050A8
:101380000A758220120FAD155080E72285824685AE
:101390008347E4F54DF54EAA54AB55AC568A828B83
:1013A000838CF0120A03FD74012AF554E43BF555D1
:1013B0008C56EDFA7003021932BA25028003021925
:1013C0002AC205C206C207C208C209C20AC20BC2AB
:1013D0000CC202C203C204754F007550007551FF64
:1013E000AB54AC55AD568B828C838DF0120A03FA48
:1013F000A3AB82AC838B548C558D56BA25078A8259
:10140000120FAD80928A06BE3000402E8A06EE246E
:10141000C6402774FFB55113E55075F00AA4FEEAE3
:1014200024D02EF55070BFD20680BBE55175F00A6E
:10143000A4FEEA24D02EF55180ACBA2E0A74FFB572
:1014400051A4755100809F8A06BE6100400E8A0635
:10145000EE248540075302DFD2018002C201BA2088
:10146000028075BA23030214E7BA2A030214ECBA05
:101470002B02805FBA2D028055BA4202805FBA43C8
:1014800003021531BA440302166CBA4503021686EC
:10149000BA4603021682BA470302168ABA49030201
:1014A000166CBA4C02803BBA4E0302168EBA4F033A
:1014B000021673BA5003021605BA5303021555BA41
:1014C0005503021678BA580302167D0216B8D205E3
:1014D0000213E6D2070213E6D2080213E6D20A028A
:1014E00013E6D20B0213E6D20C0213E674FFB551D9
:1014F00020300A0BE55714F8885786500213E6E5AA
:101500005724FEF888578606088607188E5002135F
:10151000E6300A0BE55714F8885786510213E6E5C2
:101520005724FEF888578606088607188E5102133E
:10153000E6300A0AE55714F888578602800FE55707
:1015400024FEF888578603088604188B028A8212C4
:101550000FAD0216BDE55724FDF8885786030886AF
:101560000408860518188B488C498D4A8B828C8319
:101570008DF0121AACAB82AC838B5274FFB5510361
:1015800085525120051DC3E55295505016E550C3B4
:101590009552F550AB501550EB6008758220120F34
:1015A000AD80F1854882854983854AF0120A03FBA4
:1015B000FA6029AB511551C3E464808BF063F0806D
:1015C00095F050188A82120FADAB48AC49AD4A0B6A
:1015D000BB00010C8B488C498D4A80C72005030253
:1015E00016BDC3E552955040030216BDE550C395A4
:1015F00052F550AB501550EB70030216BD758220AA
:10160000120FAD80EEE55724FDF888578603088653
:101610000408860518188B488C498D4AE54AFB302A
:10162000E7047A438013EB546060047A50800AEB3D
:1016300030E6047A4980027A588A82C002120FADDD
:1016400075823A120FAD758230120FAD7582781225
:101650000FADD002BA4902800BBA5002800685490C
:1016600082120FE0854882120FE08051D209754F37
:101670000A804A754F088045754F0A8040754F10A3
:10168000803BD2028037D2038033D204802FE557CB
:1016900024FDF88857860308860408860518188BE9
:1016A000488C498D4A8B828C838DF0E54D120C0F4E
:1016B000A3E54E120C0F80058A82120FAD200206A0
:1016C000200303300470E55724FCF888578603088C
:1016D00086040886050886061818188B488C498DDC
:1016E0004A8E4BE548E549E54AE54B8B828C838D74
:1016F000F0EE12198D74FFB55103755106300427B1
:10170000747F554BFB8B4CE54CEB2BFB8B4CE54A2C
:1017100030E7067401454CF54CE54C2468400674EE
:1017200099254C4002D2033003061212A9021397E6
:10173000121036021397E54F70030213977B5D304A
:101740000A2BE55714F88857E6FC3395E0FDFEFFB9
:101750008C488D498E4A8F4B20095EAC487D007EB7
:10176000007F008C488D498E4A8F4B804C300B1F78
:10177000E55724FCF888578604088605088606087D
:1017800086071818188C488D498E4A8F4B802AE599
:101790005724FEF88857860408860518ED3395E02F
:1017A000FEFF8C488D498E4A8F4B20090CAC48AD0A
:1017B000497E007F008E4A8F4B300C43E5484549F7
:1017C000454A454B60397408B54F0C758230C003EB
:1017D000120FADD00380287410B54F23758230C02E
:1017E00003120FADD00330010C758278C003120FC5
:1017F000ADD003800A758258C003120FADD00330FC
:101800000925AC48AD49AE4AE54BFF30E717C3E4C4
:101810009CFCE49DFDE49EFEE49FFF8C488D498E78
:101820004A8F4B8002C209755200D20D8B00754C55
:1018300000C000120FF7D000200D0DE54CC4FCE6EF
:10184000FD4CF61888038002A64C0552B20DE548FF
:101850004549454A454B70D68803E550700375509D
:101860000120061A200517E55204FCC39550500EBE
:10187000758220C003120FADD003155080E93009E6
:101880000E75822DC003120FADD00315508024E5D4
:1018900052602030070E75822BC003120FADD003AB
:1018A0001550800F30080C758220C003120FADD088
:1018B00003155020051EAC501550C3E5529C50270F
:1018C0003006047C3080027C208C82C003120FAD75
:1018D000D00380E2C3E55295505009E550C39552BC
:1018E000F55080037550008B00AB521552EB60220F
:1018F000B20D200D0A08E6C4540FFB8B4C800786FE
:1019000003740F5BF54C854C82C000120FC7D000EA
:1019100080D7200503021397AB501550EB700302DC
:101920001397758220120FAD80EE8A82120FAD02DE
:101930001397854D82854E8322AA82BA0A08109990
:101940000280FB75990D10990280FB8A9922FCABED
:10195000F0AA83A982749EF582C2D1EC30E716D238
:10196000D1E9F42401F9EAF43400FAEBF43400FB91
:10197000ECF43400FC120EEF020EA0AA82AB83A29C
:10198000F73392D16002D2F7F582ACF022C0E0F8D2
:101990004582458345F07009F5F0FBFCFDFE021A17
:1019A0005BE823A2F792E0F8A982AA83D2F7ABF012
:1019B0007C007E07C3749798404074FF2EFE740A23
:1019C00089F0A4F985F082740A8AF0A4FA85F0837C
:1019D000740A8BF0A4FB740529F9EA3582FAEB3519
:1019E00083FB740035F0FCC3EC13FCEB13FBEA1330
:1019F000FAE913F908EC70EF80BAE8C3947FF88B2A
:101A0000838EF0E4FBFCFDFEFF08C3E933F9EA3303
:101A1000FAE58333F583EB3BD4FBEC3CD4FCED3DA2
:101A2000D4FDEE3ED4FEEF3FD4FF602D05F07405EB
:101A30002BD4FBE43CD4FCE43DD4FDE43ED4FEE4F2
:101A40003FD4FF758204C3EF13FFEE13FEED13FDC9
:101A5000EC13FCEB13FBD582EDD8AF7858D0E02027
:101A6000E704762B8002762D087906E7C4540F44EC
:101A700030F608B90603762E08E7540F4430F6080E
:101A800019B902E7764508E5F020E704762B8004D3
:101A9000762DF4040875F00A844430F608E5F04425
:101AA00030F608E4F690005875F04022AA82AB8325
:101AB000ACF07D007E008A828B838CF0120A03FFDB
:101AC000A3AA82AB83EF60070DBD00EA0E80E78D0D
:101AD000828E832200000000000000000000000051
:00000001FF
