:1000000002000375814312008FE582600302006FD6
:10001000780079007A007B007C007D00EC4D601C4C
:1000200088828983E493A3A882A9838A828B83F040
:10003000A3AA82AB831CBCFFE31D80E07582007520
:1000400083007C007D00EC4D600AE4F0A31CBCFF43
:10005000F51D80F27582007583007C007D00EC4DFB
:10006000600AE4F0A31CBCFFF51D80F212008E12A2
:1000700005F280FE544830203D2025662C20005497
:100080004C30203D2025660A001B5B324A00227559
:10009000A7007597DE7597AD75FF8075EF0675A79C
:1000A0001075C12075A70075A90075A900E5A930D4
:1000B000E7FB75A90375A903E5A930E7FB43A41085
:1000C00075E10175E20075E340759810758DE68560
:1000D0008D8B53890F438920D28ED299758200224D
:1000E00075A700C2EF75B28075BC2075B91E75E8A2
:1000F0000075DF3F75B300D2EF22AA82438E4075B0
:1001000092B87593FF8592948593957591047B00C1
:10011000C3EB9A500BE59130E7FB53917F0B80F0D6
:1001200075910022AA82AB837C007D00C3EC9AED1E
:100130009B502B7E00BE0400501D7582FAC002C089
:1001400003C004C005C0061200FAD006D005D004D2
:10015000D003D0020E80DE0CBC00D10D80CE22AACE
:10016000828514F005F07401800225E0D5F0FBFBD8
:1001700075A720BA0002800ABA0102800FBA021ED7
:100180008014EBF4FA52F1EB42D48012EBF4FA5201
:10019000F2EB42D58008EBF4FA52F3EB42CC75A7B0
:1001A00000228582BBC2EDD2EC30EDFD85BD82859B
:1001B000BE83221201A2120649AA82AB83ACF0FDD3
:1001C000C002C003C004C005906C8B75F05374402E
:1001D000120655AA82AB83ACF0FDE58124FCF581C3
:1001E000E4C0E074FCC0E0747FC0E07446C0E08A04
:1001F000828B838CF0ED1207D6AA82AB83ACF0FD24
:10020000E58124FCF5818A828B838CF0ED22D2A5D6
:100210007582281200FAC2A522AA828AE0A2E79279
:10022000A1A2E692A2A2E592A3A2E492A4C0021225
:10023000020E7582281200FAD0028AE0A2E392A18F
:10024000A2E292A2A2E192A3A2E092A402020EAACA
:1002500082D2A68A82120219900002020124AA8286
:10026000C2A68A82120219900005020124C2A5903A
:10027000001412012475823312025E758233120259
:100280005E75823212025E75822812025E75820CE1
:1002900012025E75820112025E900014020124AA0D
:1002A00082AB83ACF07402B50A047DC080027D800D
:1002B0008D82C002C003C00412025E9000051201CC
:1002C00024D004D003D0027D007E00ED2AFFEE3B57
:1002D000F88C018F82888389F012062DFF60208FB1
:1002E00082C002C003C004C005C00612024FD0067F
:1002F000D005D004D003D0020DBD00CF0E80CC308D
:1003000000248D028E03C3EA9410EB648094805025
:1003100015758220C002C00312024FD003D0020A1A
:10032000BA00E30B80E02285820D85830E85F00FF5
:10033000E4F510F511E50B24FFFFE50C34FFF87927
:10034000007A00C3E99FEA648088F063F08095F04A
:100350005059C002C007C000C001120792AB82D042
:1003600001D000D007D002BB0A028003BB0D1DE5FF
:1003700010250DFCE511350EFDAE0F8C828D838EA0
:10038000F0E41207A585108285118322E9250DFC72
:10039000EA350EFDAE0F8C828D838EF0EB1207A531
:1003A00009B900010A89108A118098E510250DFA13
:1003B000E511350EFBAC0F8A828B838CF0E41207BB
:1003C000A5850B82850C83225389F0438901C28C59
:1003D00022AA82758A00758C008A82C0021201B33B
:1003E000AB82AC83ADF0FED002EB4C4D8EF0C2F789
:1003F00045F070E58A82C0021201B3AB82AC83ADD6
:10040000F0FED002EB4C4D8EF0C2F745F060E5D225
:100410008C8A82C0021201B3AB82AC83ADF0FED0F5
:1004200002EB4C4D8EF0C2F745F070E5C28CAA8C01
:100430007B00C002C0037474C0E07400C0E074802C
:10044000C0E0120771E58124FBF581AA8A7B00C018
:1004500002C003747FC0E07400C0E07480C0E0128A
:100460000771E58124FBF581858C821206F8AA824A
:10047000AB83ACF0FDC002C003C004C00590000017
:1004800075F0807443120655AA82AB83ACF0FDE58B
:100490008124FCF581AE8A7F008E828F83C002C0EA
:1004A00003C004C0051207C9AE82AF83A8F0F9D01B
:1004B00005D004D003D002C006C007C000C0018A26
:1004C000828B838CF0ED120703AA82AB83ACF0FD24
:1004D000E58124FCF581C002C003C004C005900082
:1004E00000E4F5F07440120655AA82AB83ACF0FD2F
:1004F000E58124FCF5818A828B838CF0ED0207BEB6
:10050000AA82758A00758C008A82C0021201B3AB80
:1005100082AC83ADF0FED002EB4C4D8EF0C2F745BD
:10052000F070E58A82C0021201B3AB82AC83ADF0F9
:10053000FED002EB4C4D8EF0C2F745F060E5D28C58
:100540008512821201B3AA82AB83ACF0FDEA4B4C58
:100550008DF0C2F745F060E8C28C858C821206F8F7
:10056000AA82AB83ACF0FDC002C003C004C00590FA
:10057000000075F0807443120655AA82AB83ACF07C
:10058000FDE58124FCF581AE8A7F008E828F83C0D9
:1005900002C003C004C0051207C9AE82AF83A8F031
:1005A000F9D005D004D003D002C006C007C000C0F7
:1005B000018A828B838CF0ED120703AA82AB83AC95
:1005C000F0FDE58124FCF581C002C003C004C00534
:1005D000900000E4F5F07440120655AA82AB83AC9B
:1005E000F0FDE58124FCF5818A828B838CF0ED029D
:1005F00007BE9001F41201247489C0E07400C0E0C9
:100600007480C0E012077115811581158175140180
:1006100075820012015F75140275820012015F126B
:1006200000E0A281E433F5821203D180F520F714B3
:1006300030F6148883A88220F507E6A88375830026
:1006400022E280F7E49322E022E4AC83AB82FAF961
:10065000748E0208FE12098ABC0003020929EF60A9
:10066000FA30D502B2D1E583B4FF0302093FE58237
:10067000B4FF0302093F258340072482400B02098F
:1006800029248314500302093FF582EA8DF0A4A8BF
:10069000F0EA8EF0A428F8E435F0F9EB8DF0A42808
:1006A000E935F0F9E433CA8FF0A429F9EA35F0FA14
:1006B000EBF88EF0A429F9EA35F0FAE433FBEC8D7F
:1006C000F0A429F9EA35F0FAE43BFBE88FF0A42A1C
:1006D000FAEB35F0FBE433CCFD8EF0A42AFAEB35CF
:1006E000F0FBE43CFCED8FF0A42BFBEC35F0FC20A0
:1006F000E703120957020908E4AC82FBFAF9748691
:100700000208FE12098A7900E583B58202800D5045
:10071000031209B8E583C395821209D2E5D0C465F6
:10072000D020E117EA2DFAEB3EFBEC3FFC500974B8
:10073000011209D2EC4480FC020908C3EA9DFAEBDD
:100740009EFBEC9FFC500FC3E499F9E49AFAE49BFA
:10075000FBE49CFCB2D11209570209080213A185DF
:10076000823085833185F03285133390075C020D2A
:10077000F4C008858108E50824FBF533E50824FB6F
:10078000F8863008863108863290075C120DF4D066
:10079000082210980280FBAA998A82C0021213A133
:1007A000D0028A822220F71030F6118883A8822096
:1007B000F507F6A88375830022F280F7F0227F8E7A
:1007C0001213B8F58385F08222AC83AB827A00796C
:1007D00000748E0213E612098A30D502B2D1BF002E
:1007E00009BC000302094C02093FBC0003020929AD
:1007F000E583B4FF0BE582B4FF0302094C0209292B
:10080000E582B4FF0302093FC395835007247F406C
:100810000B020929248014500302093FC0E0E4CCF4
:10082000CBCAF98D148E158F16EF54F0C4F51775D9
:1008300083068517F0EB84F582E9C4F9EAC4FAEB84
:10084000C4FBEC540FC47803D6FC18EBD6FB18EAB3
:10085000D6FA8582F0EDA4A8F0FD8582F0EEA428FA
:10086000FEE435F0F88582F0EFA428FFE435F0F8D7
:10087000E99DF9EA9EFAEB9FFBEC98FCAD14AE15EE
:10088000AF1630E7101582E92DF9EA3EFAEB3FFB8F
:10089000E43CFC80EDC082D58398C3E933F9EA33A8
:1008A000FAEB33FBEC33FCC3E99DEA9EEB9FEC943F
:1008B00000B3E413F9D002D0E0C44AFAD003D0E088
:1008C000C44BFBD004D0E0F5F0540FC44CFCD082F4
:1008D000158230F40FD3EC13FCEB13FBEA13FAE9A7
:1008E00013F90582E930E70A74012AFAE43BFBE4D4
:1008F0003CFC020920FCABF0AA83A982749EC2D101
:10090000F582120957020908B98003EA13B34010AF
:10091000EA2401FAE43BFBE43CFC50047C800582C1
:10092000BC000EBB000BBA0008E4F5F0F583F582BD
:1009300022A2D1E582138CF092F78B838A8222E483
:10094000F583F58275F080F4A2D11322E4F583F5E6
:100950008275F0C0747F227804EC7011E58224F86F
:10096000500AF582E4C9CACBFCD8EF22EC78200506
:100970008220E713D5820122C3E933F9EA33FAEB87
:1009800033FBEC33FCD8EA158222AA82AB83A2F7B0
:100990003392D16002D2F7F582ACF0E58124F9F808
:1009A000E6FD08E6FE0886F008E6A2F73392D56079
:1009B00002D2F7F583AFF022E582C583F582A2D19A
:1009C00033A2D592D11392D5ECCFFCEBCEFBEACD7E
:1009D000FA226040F82582500274FFF582E824F87C
:1009E000501ECCCBCAF9E4CC24F85014CBCAF9E49D
:1009F000CB24F8500BCAF9E4CA24F850037900223A
:100A000024086010F8C3EC13FCEB13FBEA13FAE9BB
:100A100013F9D8F122AA827426C0E0740AC0E0C09B
:100A200022C0238A82220529E4B52902052A22AAA6
:100A30008274302AFA24C6500A74072AFA30010355
:100A40004302208A82020A15E582FAC4540FF58215
:100A5000C002120A2FD002740F5AF582020A2FAA7E
:100A600024AB25AC26AD27AE28752F20EE2EFEED4B
:100A7000235401FF4206EA2AFAEB33FBEC33FCED88
:100A800033FDC3EE952B4008EEC3952BFE430201C8
:100A9000D52FD98A248B258C268D278E2822784025
:100AA000E624D075F00AA4FA7841E624D02AFA7830
:100AB0003F8603BB2D04C3E49AFA752B01C3E4649B
:100AC000808AF063F08095F05029752F038A0374B3
:100AD000F6252F401C052BE52F142434F8E52F2490
:100AE00034F98704A604772E1BEBFA6004052F80E7
:100AF000DE8B02EA30E70D783586037836A6037878
:100B000035762E0AE52D600AE52D04FB252BF52B05
:100B10008005300C02052B78348603E4BB2D0104DC
:100B2000FB7006200703300802052B300503020B7B
:100B3000E5300657EB600C75822DC002120A15D005
:100B400002801C30070C75822BC002120A15D002DD
:100B5000800D30080A758220C002120A15D0027872
:100B6000358604BC2E0C758230C002120A15D002E4
:100B7000152CAC2C152CC3E52B9C4003020C2975BD
:100B80008230C002120A15D00280E7AC2C152CC3AB
:100B9000E52B9C500C758220C002120A15D00280F1
:100BA000EA78348604BC2D0C75822DC002120A1519
:100BB000D002801C30070C75822BC002120A15D09F
:100BC00002800D30080A758220C002120A15D00278
:100BD00078358604BC2E52758230C002120A15D0B8
:100BE00002152C8044EB600E75822DC002120A158E
:100BF000D002152C802030070E75822BC002120AFD
:100C000015D002152C800F30080C758220C00212FE
:100C10000A15D002152C78358603BB2E0C75823050
:100C2000C002120A15D002152C752F01C20EE52F35
:100C30002434F88603BB4503020CE6BB2E348A033A
:100C4000C3E464808BF063F08095F0500F758230C0
:100C5000C003120A15D0031B8B0280E48B02D20E54
:100C6000E52D7038200C03020CE675822E120A1551
:100C70008074300E278A03EB30E71FC3E46480855D
:100C80002DF063F08095F0500C758230C003120A8D
:100C900015D003152D0B8B0280DD8B02300E0EC399
:100CA000E46480852DF063F08095F05021E52F24D9
:100CB00034F886038B82C002120A15D002300E0E61
:100CC000E52F2434F88603BB2E028002152D152C47
:100CD000C3E46480852DF063F08095F04003200E1E
:100CE00005052F020C2EC3E46480852DF063F0808F
:100CF00095F0500A758230120A15152D80E83005DE
:100D00000FAA2C152CEA6008758220120A1580F1B2
:100D100022E52D7003300C0D7407252DFAE52CC348
:100D20009AF52C8006E52C24FAF52C752F007834E2
:100D30008602BA2B0F20070C783476202008057520
:100D40002F01052C200519AA2CC3E464808AF063C6
:100D5000F08095F0500A758220120A15152C80E754
:100D6000C20EE52F2434F88602BA00028069BA4523
:100D70001F3001027665C3E46480852DF063F08046
:100D800095F0500A758230120A15152D80E8D20EA2
:100D9000C3E52F9402E433FA7014EA700EC3E464DE
:100DA00080852DF063F08095F04003300E16E52F1E
:100DB0002434F886028A82120A15E52F24FD501287
:100DC000152D800E7402B52F09300C0675822E1277
:100DD0000A15052F020D62300519AA2CC3E46480A0
:100DE0008AF063F08095F0500A758220120A15157A
:100DF0002C80E722858222858323E4F529F52AAA1F
:100E000030AB31AC328A828B838CF012062DFD74AC
:100E1000012AF530E43BF5318C32EDFA7003021310
:100E20009ABA25028003021392C205C206C207C203
:100E300008C209C20AC20BC20CC202C203C20475B4
:100E40002B00752C00752DFFAB30AC31AD328B8291
:100E50008C838DF012062DFAA3AB82AC838B308C81
:100E6000318D32BA25078A82120A1580928A06BE0F
:100E70003000402E8A06EE24C6402774FFB52D139D
:100E8000E52C75F00AA4FEEA24D02EF52C70BFD212
:100E90000680BBE52D75F00AA4FEEA24D02EF52DC0
:100EA00080ACBA2E0A74FFB52DA4752D00809F8AE0
:100EB00006BE6100400E8A06EE248540075302DF1D
:100EC000D2018002C201BA20028075BA2303020F48
:100ED0004FBA2A03020F54BA2B02805FBA2D028048
:100EE00055BA4202805FBA4303020F99BA44030223
:100EF00010D4BA45030210EEBA46030210EABA470C
:100F0000030210F2BA49030210D4BA4C02803BBA71
:100F10004E030210F6BA4F030210DBBA5003021060
:100F20006DBA5303020FBDBA55030210E0BA58035D
:100F30000210E5021120D205020E4ED207020E4E1B
:100F4000D208020E4ED20A020E4ED20B020E4ED222
:100F50000C020E4E74FFB52D20300A0BE53314F849
:100F60008833862C020E4EE53324FEF8883386063D
:100F7000088607188E2C020E4E300A0BE53314F843
:100F80008833862D020E4EE53324FEF8883386061C
:100F9000088607188E2D020E4E300A0AE53314F823
:100FA00088338602800FE53324FEF88833860308F1
:100FB0008604188B028A82120A15021125E5332451
:100FC000FDF88833860308860408860518188B24E4
:100FD0008C258D268B828C838DF0121529AB82ACEB
:100FE000838B2E74FFB52D03852E2D20051DC3E5A3
:100FF0002E952C5016E52CC3952EF52CAB2C152CCC
:10100000EB6008758220120A1580F18524828525FF
:10101000838526F012062DFBFA6029AB2D152DC312
:10102000E464808BF063F08095F050188A82120A95
:1010300015AB24AC25AD260BBB00010C8B248C25F5
:101040008D2680C7200503021125C3E52E952C406F
:1010500003021125E52CC3952EF52CAB2C152CEB9A
:101060007003021125758220120A1580EEE53324E3
:10107000FDF88833860308860408860518188B2433
:101080008C258D26E526FB30E7047A438013EB544C
:101090006060047A50800AEB30E6047A4980027A74
:1010A000588A82C002120A1575823A120A15758290
:1010B00030120A15758278120A15D002BA490280D8
:1010C0000BBA50028006852582120A4885248212B6
:1010D0000A488051D209752B0A804A752B08804531
:1010E000752B0A8040752B10803BD2028037D203CB
:1010F0008033D204802FE53324FDF888338603083B
:10110000860408860518188B248C258D268B828CE6
:10111000838DF0E5291207A5A3E52A1207A580050E
:101120008A82120A15200206200303300470E53378
:1011300024FCF8883386030886040886050886069A
:101140001818188B248C258D268E27E524E525E597
:1011500026E5278B828C838DF0EE12140A74FFB57E
:101160002D03752D06300427747F5527FB8B28E54A
:1011700028EB2BFB8B28E52630E70674014528F584
:1011800028E52824684006749925284002D20330B7
:101190000306120D11020DFF120A9E020DFFE52B30
:1011A0007003020DFF7B39300A2BE53314F88833C6
:1011B000E6FC3395E0FDFEFF8C248D258E268F27DF
:1011C00020095EAC247D007E007F008C248D258E5E
:1011D000268F27804C300B1FE53324FCF88833869C
:1011E000040886050886060886071818188C248DBA
:1011F000258E268F27802AE53324FEF8883386043F
:1012000008860518ED3395E0FEFF8C248D258E268B
:101210008F2720090CAC24AD257E007F008E268F01
:1012200027300C43E52445254526452760397408B9
:10123000B52B0C758230C003120A15D003802874B8
:1012400010B52B23758230C003120A15D00330016C
:101250000C758278C003120A15D003800A75825873
:10126000C003120A15D003300925AC24AD25AE26E3
:10127000E527FF30E717C3E49CFCE49DFDE49EFEF8
:10128000E49FFF8C248D258E268F278002C209754E
:101290002E00D20D8B00752800C000120A5FD0000E
:1012A000200D0DE528C4FCE6FD4CF61888038002ED
:1012B000A628052EB20DE52445254526452770D6DE
:1012C0008803E52C7003752C0120061A200517E50C
:1012D0002E04FCC3952C500E758220C003120A15F3
:1012E000D003152C80E930090E75822DC003120A37
:1012F00015D003152C8024E52E602030070E758252
:101300002BC003120A15D003152C800F30080C7562
:101310008220C003120A15D003152C20051EAC2C08
:10132000152CC3E52E9C50273006047C3080027CAF
:10133000208C82C003120A15D00380E2C3E52E95EB
:101340002C5009E52CC3952EF52C8003752C008BB1
:1013500000AB2E152EEB6022B20D200D0A08E6C45C
:10136000540FFB8B2880078603740F5BF5288528B4
:1013700082C000120A2FD00080D7200503020DFF83
:10138000AB2C152CEB7003020DFF758220120A1591
:1013900080EE8A82120A15020DFF852982852A8332
:1013A00022AA82BA0A0810990280FB75990D109939
:1013B0000280FB8A99227F9E12155130D1030209C7
:1013C00029C3EF9582500974FFF5F0F583F5822269
:1013D00079001209D289828A838BF0EC22FCABF06F
:1013E000AA83A982749EF582C2D1EC30E716D2D1CD
:1013F000E9F42401F9EAF43400FAEBF43400FBECEC
:10140000F43400FC120957020908C0E0F84582458F
:101410008345F07009F5F0FBFCFDFE0214D8E823CB
:10142000A2F792E0F8A982AA83D2F7ABF07C007E03
:1014300007C3749798404074FF2EFE740A89F0A485
:10144000F985F082740A8AF0A4FA85F083740A8B15
:10145000F0A4FB740529F9EA3582FAEB3583FB74B5
:101460000035F0FCC3EC13FCEB13FBEA13FAE913B1
:10147000F908EC70EF80BAE8C3947FF88B838EF0A4
:10148000E4FBFCFDFEFF08C3E933F9EA33FAE58328
:1014900033F583EB3BD4FBEC3CD4FCED3DD4FDEECB
:1014A0003ED4FEEF3FD4FF602D05F074052BD4FB36
:1014B000E43CD4FCE43DD4FDE43ED4FEE43FD4FF60
:1014C000758204C3EF13FFEE13FEED13FDEC13FC66
:1014D000EB13FBD582EDD8AF7834D0E020E704766B
:1014E0002B8002762D087906E7C4540F4430F608A5
:1014F000B90603762E08E7540F4430F60819B902EE
:10150000E7764508E5F020E704762B8004762DF495
:10151000040875F00A844430F608E5F04430F60813
:10152000E4F690003475F04022AA82AB83ACF07DE3
:10153000007E008A828B838CF012062DFFA3AA8284
:10154000AB83EF60070DBD00EA0E80E78D828E83CE
:1015500022AA82AB83A2F73392D16002D2F7F5823E
:10156000ACF02200000000000000000000000000BD
:00000001FF
