:100000000200037581671200B0E582600302006F91
:10001000780079007A007B007C007D00EC4D601C4C
:1000200088828983E493A3A882A9838A828B83F040
:10003000A3AA82AB831CBCFFE31D80E07582007520
:1000400083007C007D00EC4D600AE4F0A31CBCFF43
:10005000F51D80F27582007583007C007D00EC4DFB
:10006000600AE4F0A31CBCFFF51D80F21200AF1281
:10007000070380FE1B5B324A00543D25302E31665B
:100080006D732056723D25302E31665600503D2549
:100090006420663D25302E3166487A00543D256641
:1000A0002C2056723D25662C20503D25640A0022E6
:1000B00075A7007597DE7597AD75FF8075EF0675AE
:1000C000A71075C12075A70075A90075A900E5A93D
:1000D00030E7FB75A90375A903E5A930E7FB43A445
:1000E0001075E10175E20075E340759810758DE6B5
:1000F000858D8B53890F438920D28ED299758200CA
:100100002275A700C2EF75B28075BC2075B91E7547
:10011000E80075DF3F75B300D2EF22AA82438E401C
:100120007592B87593FF8592948593957591047B2C
:1001300000C3EB9A500BE59130E7FB53917F0B80A6
:10014000F075910022AA82AB837C007D00C3EC9AFB
:10015000ED9B502B7E00BE0400501D7582FAC0023C
:10016000C003C004C005C00612011BD006D005D0D4
:1001700004D003D0020E80DE0CBC00D10D80CE2254
:10018000AA828511F005F07401800225E0D5F0FB0C
:10019000FB75A720BA0002800ABA0102800FBA02DA
:1001A0001E8014EBF4FA52F1EB42D48012EBF4FA15
:1001B00052F2EB42D58008EBF4FA52F3EB42CC75E5
:1001C000A700228582BBC2EDD2EC30EDFD85BD8259
:1001D00085BE83221201C3120A2AAA82AB83ACF025
:1001E000FDC002C003C004C005906C8B75F0537451
:1001F00040120ACAAA82AB83ACF0FDE58124FCF56B
:1002000081E4C0E074FCC0E0747FC0E07446C0E0EC
:100210008A828B838CF0ED120CD5AA82AB83ACF072
:10022000FDE58124FCF5818A828B838CF0ED22D25E
:10023000A575822812011BC2A522AA828AE0A2E724
:1002400092A1A2E692A2A2E592A3A2E492A4C00285
:1002500012022F75822812011BD0028AE0A2E392BB
:10026000A1A2E292A2A2E192A3A2E092A402022F92
:10027000AA82D2A68A8212023A900002020145AAFC
:1002800082C2A68A8212023A900005020145C2A5E6
:1002900090001412014575823312027F7582331269
:1002A000027F75823212027F75822812027F758268
:1002B0000C12027F75820112027F90001402014528
:1002C000AA82AB83ACF07402B523047DC080027DAA
:1002D000808D82C002C003C00412027F900005120C
:1002E0000145D004D003D0027D007E00ED2AFFEE50
:1002F0003BF88C018F82888389F0120A0EFF602000
:100300008F82C002C003C004C005C006120270D0B4
:1003100006D005D004D003D0020DBD00CF0E80CC96
:100320003000248D028E03C3EA9410EB6480948025
:100330005015758220C002C003120270D003D00293
:100340000ABA00E30B80E02285822685832785F0A8
:1003500028E4F529F52AE52424FFFFE52534FFF8F4
:1003600079007A00C3E99FEA648088F063F08095A1
:10037000F05059C002C007C000C001120C07AB8288
:10038000D001D000D007D002BB0A028003BB0D1DF4
:10039000E5292526FCE52A3527FDAE288C828D83AC
:1003A0008EF0E4120C1A852982852A8322E92526FB
:1003B000FCEA3527FDAE288C828D838EF0EB120C83
:1003C0001A09B900010A89298A2A8098E52925266F
:1003D000FAE52A3527FBAC288A828B838CF0E4125D
:1003E0000C1A852482852583225389F0438901C212
:1003F0008C22AA82C28C5389F0438901758C0075C6
:100400008A00C28D8A82C0021201D4AB82AC83AD55
:10041000F0FED002EB4C4D8EF0C2F745F070E58A4D
:1004200082C0021201D4AB82AC83ADF0FED002EBED
:100430004C4D8EF0C2F745F060E5D28C7B007C001D
:100440008A82C002C003C0041201D4AD82AE83AF61
:10045000F0F8D004D003D002ED4E4F88F0C2F7453B
:10046000F0600C108D0280D80BBB00D40C80D1C280
:100470008C8B828C83120A2AAA82AB83ACF0FDC0DB
:1004800002C003C004C00590000075F080744712DC
:100490000ACAAA82AB83ACF0FDE58124FCF5818514
:1004A0008C82C002C003C004C005120B6DAE82AFC7
:1004B00083A8F0F9C006C007C000C0019000007515
:1004C000F0807443120ACAAE82AF83A8F0F9E581C6
:1004D00024FCF581D005D004D003D002C006C007AB
:1004E000C000C0018A828B838CF0ED120B78AA8247
:1004F000AB83ACF0FDE58124FCF581AE8A7F008EF4
:10050000828F83C002C003C004C005120CC8AE8233
:10051000AF83A8F0F9D005D004D003D002C006C044
:1005200007C000C0018A828B838CF0ED120B78AA81
:1005300082AB83ACF0FDE58124FCF581C002C003F1
:10054000C004C00590763375F0AF7439120ACAAA98
:1005500082AB83ACF0FDE58124FCF5818A828B833C
:100560008CF0ED22AA82C28C5389F0438901758CEC
:1005700000758A00C28D8A82C0021201D4AB82AC9F
:1005800083ADF0FED002EB4C4D8EF0C2F745F0602B
:10059000E58A82C0021201D4AB82AC83ADF0FED0FA
:1005A00002EB4C4D8EF0C2F745F070E5D28CD29440
:1005B0007A007B00852B82C002C0031201D4AC827A
:1005C000AD83AEF0FFD003D002EC4D4E8FF0C2F7FA
:1005D00045F0700C108D0280DB0ABA00D70B80D476
:1005E000852B82C002C0031201D4AC82AD83AEF071
:1005F000FFD003D002EC4D4E8FF0C2F745F0600CF7
:10060000108D0280DB0ABA00D70B80D4C294C28C52
:100610008A828B83120A2AAA82AB83ACF0FDC002C5
:10062000C003C004C00590000075F0807447120A32
:10063000CAAA82AB83ACF0FDE58124FCF581858CF0
:1006400082C002C003C004C005120B6DAE82AF832E
:10065000A8F0F9C006C007C000C00190000075F006
:10066000807443120ACAAE82AF83A8F0F9E58124F0
:10067000FCF581D005D004D003D002C006C007C06D
:1006800000C0018A828B838CF0ED120B78AA82ABBA
:1006900083ACF0FDE58124FCF581AE8A7F008E827B
:1006A0008F83C002C003C004C005120CC8AE82AF65
:1006B00083A8F0F9D005D004D003D002C006C0074B
:1006C000C000C0018A828B838CF0ED120B78AA8265
:1006D000AB83ACF0FDE58124FCF581C002C003C012
:1006E00004C00590763375F02F7439120ACAAA82B5
:1006F000AB83ACF0FDE58124FCF5818A828B838C91
:10070000F0ED221203E912028E9001F412014574F9
:1007100074C0E07400C0E07480C0E0120BE6158184
:100720001581158175110175820012018012010178
:100730007A007B007C007D00A281E433F582C00258
:10074000C003C004C0051203F285822C85832D8569
:10075000F02EF52FD005D004D003D002A281E433CF
:10076000F582C002C003C004C0051201D4AE82AF3E
:1007700083A8F0F9D005D004D003D002EE4F488909
:10078000F0C2F745F070D5A281E433F582C002C013
:1007900003C004C0051201D4AE82AF83A8F0F9E40F
:1007A000C0E0C0E0C0E0743FC0E08E828F8388F07C
:1007B000E9120A9AAE82E58124FCF581D005D004C5
:1007C000D003D002EE70C0A281E433F582C002C033
:1007D00003C004C0051201D4AE82AF83A8F0F9D0E3
:1007E00005D004D003D002EE4F4889F0C2F745F09F
:1007F0006060A281E433F582C002C003C004C0057A
:100800001201D4AE82AF83A8F0F9D005D004D00392
:10081000D002C002C003C004C005C002C003C004AF
:10082000C0058E828F8388F0E9120A36AE82E58198
:1008300024FCF581D005D004D003D002EE6088A25C
:1008400081E433F5821201D4AA82AB83ACF0FD02BD
:1008500007C7A281E433F582A282E433F52BC002FC
:10086000C003C004C005120564AE82AF83A8F0F9CE
:10087000C02CC02DC02EC02F8E828F8388F0E9122D
:100880000CD5AE82AF83A8F0F9E58124FCF581C0D8
:1008900006C007C000C00190000075F0B474431298
:1008A0000ACAAE82AF83A8F0F9E58124FCF5818EF7
:1008B000828F8388F0E9120A66858230858331D081
:1008C00005D004D003D002C374B49530E4648085AD
:1008D00031F063F08095F0500CE530243EF530E5C2
:1008E0003134FEF531C3E49530F530E49531F5311E
:1008F000C002C003C004C00590048175F035743F88
:10090000120ACAAA82AB83ACF0FDE58124FCF58112
:10091000C002C003C004C005C002C003C004C005BB
:10092000C02CC02DC02EC02F7479C0E07400C0E070
:100930007480C0E07432C0E07400C0E07440C0E075
:10094000120C82E58124F2F581752301D20090001A
:100950003275F0401202C0E4C0E0C0E0747AC0E03A
:100960007444C0E0852C82852D83852EF0E52F12FE
:100970000CD5A882A983AEF0FFE58124FCF581C0E7
:1009800000C001C006C00790000075F080743F12DF
:100990000CD5AE82AF83A8F0F9E58124FCF581C0C7
:1009A00006C007C000C001C030C031748DC0E07403
:1009B00000C0E07480C0E07432C0E07400C0E07435
:1009C00040C0E0120C82E58124F4F581752302D247
:1009D0000090003275F0401202C0D005D004D00360
:1009E000D002C030C031C002C003C004C005C02C5A
:1009F000C02DC02EC02F749CC0E07400C0E0748075
:100A0000C0E0120BE6E58124F3F58102073020F700
:100A10001430F6148883A88220F507E6A88375832E
:100A20000022E280F7E49322E022E4AC83AB82FA76
:100A3000F9748E020DFDFFA8811818120E25D2D16F
:100A400033E6400730E70B7582012220E706758206
:100A50000022C2D1120E07E97003F5822230D101C3
:100A6000B3E433F58222120E50700AE582458345C5
:100A7000F0700122E430D112F4700BE5F0F470064E
:100A8000E58330E7012290800022700AE5F07006CD
:100A9000E58320E70122907FFF22FFA8811818122A
:100AA0000E25D2D133E6400730E70B7582002220B5
:100AB000E70675820122C2D1120E07E97003F582A2
:100AC0002220D101B3E433F58222120F2DBC0003A2
:100AD000020ECCEF60FA30D502B2D1E583B4FF0349
:100AE000020EE2E582B4FF03020EE22583400724F2
:100AF00082400B020ECC2483145003020EE2F582D6
:100B0000EA8DF0A4A8F0EA8EF0A428F8E435F0F914
:100B1000EB8DF0A428E935F0F9E433CA8FF0A4296D
:100B2000F9EA35F0FAEBF88EF0A429F9EA35F0FA93
:100B3000E433FBEC8DF0A429F9EA35F0FAE43BFB51
:100B4000E88FF0A42AFAEB35F0FBE433CCFD8EF00D
:100B5000A42AFAEB35F0FBE43CFCED8FF0A42BFB70
:100B6000EC35F0FC20E703120EFA020EABE4AC8287
:100B7000FBFAF97486020DFD120F2D7900E583B59D
:100B80008202800D5003120F5BE583C39582120F22
:100B900075E5D0C465D020E117EA2DFAEB3EFBECF9
:100BA0003FFC50097401120F75EC4480FC020EAB3F
:100BB000C3EA9DFAEB9EFBEC9FFC500FC3E499F94E
:100BC000E49AFAE49BFBE49CFCB2D1120EFA020E0A
:100BD000AB02194485825485835585F0568510579C
:100BE000900BD1021397C008858108E50824FBF516
:100BF00057E50824FBF88654088655088656900B5E
:100C0000D1121397D0082210980280FBAA998A82E9
:100C1000C002121944D0028A822220F71030F61145
:100C20008883A88220F507F6A88375830022F280C6
:100C3000F7F022AA82AB09AC0AAD0B8B828C838DB4
:100C4000F0EA120C1A0509E4B50902050A228582A8
:100C50000985830A85F00B850C54850D55850E5644
:100C6000850F57900C33121397AA82AB83AC09AD52
:100C70000AAE0B8C828D838EF0E4120C1A8A828B62
:100C80008322C008858108E50824F8F557E5082483
:100C9000FBF8860908860A08860BE50824F8F8861A
:100CA00054088655088656900C33121397AA82ABC7
:100CB00083AC09AD0AAE0B8C828D838EF0E4120CEE
:100CC0001A8A828B83D00822AC83AB827A007900A7
:100CD000748E021962120F2D30D502B2D1BF0009F5
:100CE000BC0003020EEF020EE2BC0003020ECCE5D4
:100CF00083B4FF0BE582B4FF03020EEF020ECCE5D6
:100D000082B4FF03020EE2C395835007247F400B99
:100D1000020ECC2480145003020EE2C0E0E4CCCBDF
:100D2000CAF98D118E128F13EF54F0C4F514758328
:100D3000068514F0EB84F582E9C4F9EAC4FAEBC441
:100D4000FBEC540FC47803D6FC18EBD6FB18EAD69C
:100D5000FA8582F0EDA4A8F0FD8582F0EEA428FECD
:100D6000E435F0F88582F0EFA428FFE435F0F8E9E7
:100D70009DF9EA9EFAEB9FFBEC98FCAD11AE12AF29
:100D80001330E7101582E92DF9EA3EFAEB3FFBE458
:100D90003CFC80EDC082D58398C3E933F9EA33FA8D
:100DA000EB33FBEC33FCC3E99DEA9EEB9FEC940034
:100DB000B3E413F9D002D0E0C44AFAD003D0E0C4BF
:100DC0004BFBD004D0E0F5F0540FC44CFCD082159E
:100DD0008230F40FD3EC13FCEB13FBEA13FAE913A4
:100DE000F90582E930E70A74012AFAE43BFBE43CA6
:100DF000FC020EC3FCABF0AA83A982749EC2D1F59B
:100E000082120EFA020EAB7901AA82E68F82B582B7
:100E10001318E6B5F00E18E6B5830918E68A82B510
:100E20008202790022B4800FE5F0700AE583700633
:100E3000E58270027F00EFB6801518B6001018B674
:100E4000000B18B6000608080876002208080822D9
:100E5000121986C3749E958240397900120F75303D
:100E6000D126E9F42401F582EAF43400F583EBF4A9
:100E70003400F5F0ECF43400700AE582458345F067
:100E8000700122E430E70F22EC20E71489828A8384
:100E90008BF02230D10AE4F582F583F5F0748022DC
:100EA00074FFF582F583F5F0747F22B98003EA13AD
:100EB000B34010EA2401FAE43BFBE43CFC50047C20
:100EC000800582BC000EBB000BBA0008E4F5F0F50B
:100ED00083F58222A2D1E582138CF092F78B838A6C
:100EE0008222E4F583F58275F080F4A2D11322E426
:100EF000F583F58275F0C0747F227804EC7011E5FB
:100F00008224F8500AF582E4C9CACBFCD8EF22EC5F
:100F10007820058220E713D5820122C3E933F9EA5C
:100F200033FAEB33FBEC33FCD8EA158222AA82AB0E
:100F300083A2F73392D16002D2F7F582ACF0E5815B
:100F400024F9F8E6FD08E6FE0886F008E6A2F73385
:100F500092D56002D2F7F583AFF022E582C583F522
:100F600082A2D133A2D592D11392D5ECCFFCEBCE95
:100F7000FBEACDFA226040F82582500274FFF58228
:100F8000E824F8501ECCCBCAF9E4CC24F85014CB9A
:100F9000CAF9E4CB24F8500BCAF9E4CA24F8500388
:100FA00079002224086010F8C3EC13FCEB13FBEA71
:100FB00013FAE913F9D8F122AA8274C9C0E0740FB8
:100FC000C0E0C046C0478A8222054DE4B54D020507
:100FD0004E22AA8274302AFA24C6500A74072AFACA
:100FE0003001034302208A82020FB8E582FAC4541A
:100FF0000FF582C002120FD2D002740F5AF582028E
:101000000FD2AA48AB49AC4AAD4BAE4C755320EE5B
:101010002EFEED235401FF4206EA2AFAEB33FBECE5
:1010200033FCED33FDC3EE954F4008EEC3954FFE04
:10103000430201D553D98A488B498C4A8D4B8E4C3B
:10104000227864E624D075F00AA4FA7865E624D004
:101050002AFA78638603BB2D04C3E49AFA754F011C
:10106000C3E464808AF063F08095F05029755303DF
:101070008A0374F62553401C054FE553142458F891
:10108000E5532458F98704A604772E1BEBFA600475
:10109000055380DE8B02EA30E70D78598603785AD3
:1010A000A6037859762E0AE551600AE55104FB251E
:1010B0004FF54F8005300C02054F78588603E4BB8E
:1010C0002D0104FB7006200703300802054F300590
:1010D00003021188300657EB600C75822DC0021296
:1010E0000FB8D002801C30070C75822BC002120F83
:1010F000B8D002800D30080A758220C002120FB8E5
:10110000D00278598604BC2E0C758230C002120FB2
:10111000B8D0021550AC501550C3E54F9C400302A7
:1011200011CC758230C002120FB8D00280E7AC50EB
:101130001550C3E54F9C500C758220C002120FB8A9
:10114000D00280EA78588604BC2D0C75822DC0022E
:10115000120FB8D002801C30070C75822BC002120F
:101160000FB8D002800D30080A758220C002120F1D
:10117000B8D00278598604BC2E52758230C0021253
:101180000FB8D00215508044EB600E75822DC0025E
:10119000120FB8D0021550802030070E75822BC078
:1011A00002120FB8D0021550800F30080C75822043
:1011B000C002120FB8D002155078598603BB2E0C0E
:1011C000758230C002120FB8D0021550755301C29B
:1011D0000EE5532458F88603BB4503021289BB2E43
:1011E000348A03C3E464808BF063F08095F0500F81
:1011F000758230C003120FB8D0031B8B0280E48BC2
:1012000002D20EE5517038200C0302128975822E2D
:10121000120FB88074300E278A03EB30E71FC3E447
:1012200064808551F063F08095F0500C758230C079
:1012300003120FB8D00315510B8B0280DD8B0230E7
:101240000E0EC3E464808551F063F08095F0502168
:10125000E5532458F886038B82C002120FB8D002DF
:10126000300E0EE5532458F88603BB2E028002157B
:10127000511550C3E464808551F063F08095F040CF
:1012800003200E0505530211D1C3E464808551F09B
:1012900063F08095F0500A758230120FB8155180B6
:1012A000E830050FAA501550EA6008758220120F29
:1012B000B880F122E5517003300C0D74072551FA06
:1012C000E550C39AF5508006E55024FAF550755361
:1012D0000078588602BA2B0F20070C785876202009
:1012E00008057553010550200519AA50C3E4648010
:1012F0008AF063F08095F0500A758220120FB815BD
:101300005080E7C20EE5532458F88602BA000280E6
:1013100069BA451F3001027665C3E464808551F0E7
:1013200063F08095F0500A758230120FB815518025
:10133000E8D20EC3E5539402E433FA7014EA700E57
:10134000C3E464808551F063F08095F04003300E73
:1013500016E5532458F886028A82120FB8E5532402
:10136000FD50121551800E7402B55309300C0675EC
:10137000822E120FB80553021305300519AA50C367
:10138000E464808AF063F08095F0500A7582201240
:101390000FB8155080E722858246858347E4F54DD6
:1013A000F54EAA54AB55AC568A828B838CF0120A48
:1013B0000EFD74012AF554E43BF5558C56EDFA7098
:1013C0000302193DBA25028003021935C205C2067F
:1013D000C207C208C209C20AC20BC20CC202C203BF
:1013E000C204754F007550007551FFAB54AC55AD3C
:1013F000568B828C838DF0120A0EFAA3AB82AC83DB
:101400008B548C558D56BA25078A82120FB880925C
:101410008A06BE3000402E8A06EE24C6402774FF9E
:10142000B55113E55075F00AA4FEEA24D02EF5500C
:1014300070BFD20680BBE55175F00AA4FEEA24D045
:101440002EF55180ACBA2E0A74FFB551A475510027
:10145000809F8A06BE6100400E8A06EE2485400702
:101460005302DFD2018002C201BA20028075BA2382
:10147000030214F2BA2A030214F7BA2B02805FBAED
:101480002D028055BA4202805FBA430302153CBA6E
:101490004403021677BA4503021691BA46030216B0
:1014A0008DBA4703021695BA4903021677BA4C0261
:1014B000803BBA4E03021699BA4F0302167EBA5009
:1014C00003021610BA5303021560BA5503021683BD
:1014D000BA58030216880216C3D2050213F1D207C6
:1014E0000213F1D2080213F1D20A0213F1D20B0255
:1014F00013F1D20C0213F174FFB55120300A0BE541
:101500005714F8885786500213F1E55724FEF888DF
:10151000578606088607188E500213F1300A0BE52D
:101520005714F8885786510213F1E55724FEF888BE
:10153000578606088607188E510213F1300A0AE50D
:101540005714F888578602800FE55724FEF888570D
:101550008603088604188B028A82120FB80216C806
:10156000E55724FDF8885786030886040886051881
:10157000188B488C498D4A8B828C838DF0121AB758
:10158000AB82AC838B5274FFB55103855251200559
:101590001DC3E55295505016E550C39552F550AB1A
:1015A000501550EB6008758220120FB880F1854805
:1015B00082854983854AF0120A0EFBFA6029AB51F5
:1015C0001551C3E464808BF063F08095F050188A65
:1015D00082120FB8AB48AC49AD4A0BBB00010C8B73
:1015E000488C498D4A80C72005030216C8C3E552BE
:1015F000955040030216C8E550C39552F550AB50C4
:101600001550EB70030216C8758220120FB880EED9
:10161000E55724FDF88857860308860408860518D0
:10162000188B488C498D4AE54AFB30E7047A4380A1
:1016300013EB546060047A50800AEB30E6047A4978
:1016400080027A588A82C002120FB875823A120F4D
:10165000B8758230120FB8758278120FB8D002BAFE
:101660004902800BBA50028006854982120FEB8531
:101670004882120FEB8051D209754F0A804A754F8C
:10168000088045754F0A8040754F10803BD202801C
:1016900037D2038033D204802FE55724FDF88857D2
:1016A000860308860408860518188B488C498D4ADD
:1016B0008B828C838DF0E54D120C1AA3E54E120C33
:1016C0001A80058A82120FB8200206200303300414
:1016D00070E55724FCF888578603088604088605B9
:1016E0000886061818188B488C498D4A8E4BE54899
:1016F000E549E54AE54B8B828C838DF0EE12199813
:1017000074FFB55103755106300427747F554BFBA8
:101710008B4CE54CEB2BFB8B4CE54A30E706740118
:10172000454CF54CE54C246840067499254C400224
:10173000D2033003061212B40213A2121041021394
:10174000A2E54F70030213A27B5D300A2BE557140C
:10175000F88857E6FC3395E0FDFEFF8C488D498EF6
:101760004A8F4B20095EAC487D007E007F008C488C
:101770008D498E4A8F4B804C300B1FE55724FCF867
:1017800088578604088605088606088607181818EC
:101790008C488D498E4A8F4B802AE55724FEF88865
:1017A00057860408860518ED3395E0FEFF8C488DBA
:1017B000498E4A8F4B20090CAC48AD497E007F0012
:1017C0008E4A8F4B300C43E5484549454A454B60AE
:1017D000397408B54F0C758230C003120FB8D003AE
:1017E00080287410B54F23758230C003120FB8D013
:1017F0000330010C758278C003120FB8D003800A41
:10180000758258C003120FB8D003300925AC48AD1B
:1018100049AE4AE54BFF30E717C3E49CFCE49DFD6D
:10182000E49EFEE49FFF8C488D498E4A8F4B8002D8
:10183000C209755200D20D8B00754C00C000121009
:1018400002D000200D0DE54CC4FCE6FD4CF61888D6
:10185000038002A64C0552B20DE5484549454A456C
:101860004B70D68803E550700375500120061A208E
:101870000517E55204FCC39550500E758220C00335
:10188000120FB8D003155080E930090E75822DC0B3
:1018900003120FB8D00315508024E55260203007A2
:1018A0000E75822BC003120FB8D0031550800F3075
:1018B000080C758220C003120FB8D0031550200504
:1018C0001EAC501550C3E5529C50273006047C30A6
:1018D00080027C208C82C003120FB8D00380E2C348
:1018E000E55295505009E550C39552F55080037567
:1018F00050008B00AB521552EB6022B20D200D0A46
:1019000008E6C4540FFB8B4C80078603740F5BF50D
:101910004C854C82C000120FD2D00080D720050326
:101920000213A2AB501550EB70030213A275822074
:10193000120FB880EE8A82120FB80213A2854D8270
:10194000854E8322AA82BA0A0810990280FB7599F3
:101950000D10990280FB8A9922FCABF0AA83A98220
:10196000749EF582C2D1EC30E716D2D1E9F424019D
:10197000F9EAF43400FAEBF43400FBECF43400FC44
:10198000120EFA020EABAA82AB83A2F73392D16099
:1019900002D2F7F582ACF022C0E0F84582458345DB
:1019A000F07009F5F0FBFCFDFE021A66E823A2F7D1
:1019B00092E0F8A982AA83D2F7ABF07C007E07C33D
:1019C000749798404074FF2EFE740A89F0A4F9853C
:1019D000F082740A8AF0A4FA85F083740A8BF0A46A
:1019E000FB740529F9EA3582FAEB3583FB7400357F
:1019F000F0FCC3EC13FCEB13FBEA13FAE913F90850
:101A0000EC70EF80BAE8C3947FF88B838EF0E4FB30
:101A1000FCFDFEFF08C3E933F9EA33FAE58333F549
:101A200083EB3BD4FBEC3CD4FCED3DD4FDEE3ED44B
:101A3000FEEF3FD4FF602D05F074052BD4FBE43C92
:101A4000D4FCE43DD4FDE43ED4FEE43FD4FF7582F3
:101A500004C3EF13FFEE13FEED13FDEC13FCEB13C9
:101A6000FBD582EDD8AF7858D0E020E704762B8004
:101A700002762D087906E7C4540F4430F608B906FB
:101A800003762E08E7540F4430F60819B902E776BA
:101A90004508E5F020E704762B8004762DF4040851
:101AA00075F00A844430F608E5F04430F608E4F6B0
:101AB00090005875F04022AA82AB83ACF07D007E86
:101AC000008A828B838CF0120A0EFFA3AA82AB835A
:101AD000EF60070DBD00EA0E80E78D828E83220045
:00000001FF
