:10000000020003758127120090E582600302006FF1
:10001000780079007A007B007C007D00EC4D601C4C
:1000200088828983E493A3A882A9838A828B83F040
:10003000A3AA82AB831CBCFFE31D80E07582007520
:1000400083007C007D00EC4D600AE4F0A31CBCFF43
:10005000F51D80F27582007583007C007D00EC4DFB
:10006000600AE4F0A31CBCFFF51D80F212008F12A1
:1000700000D380FE48656C6C6F2C20776F726C64C7
:10008000210D0A003C4E4F20464C4F41543E002269
:1000900075A7007597DE7597AD43FF8075EF027504
:1000A000A70075A90075A900E5A930E7FB43A410D6
:1000B00075E10175E20075E340759810438E08758F
:1000C0008D96858D8B53890F438920D28ED2997559
:1000D0008200227474C0E07400C0E07480C0E0123A
:1000E00000FF15811581158180E90207408582187E
:1000F00085831985F01A85091B9000EA0201A9C0C1
:1001000008858108E50824FBF51BE50824FBF88633
:100110001808861908861A9000EA1201A9D0082248
:10012000AA827431C0E07401C0E0C00AC00B8A82A8
:10013000220511E4B51102051222AA8274302AFAAE
:1001400024C6500A74072AFA3000034302208A8228
:10015000020120E582FAC4540FF582C00212013A6E
:10016000D002740F5AF58202013AAA0CAB0DAC0E04
:10017000AD0FAE10751720EE2EFEED235401FF4299
:1001800006EA2AFAEB33FBEC33FCED33FDC3EE95C4
:10019000134008EEC39513FE430201D517D98A0C0C
:1001A0008B0D8C0E8D0F8E102285820A85830BE4B9
:1001B000F511F512AA18AB19AC1A8A828B838CF050
:1001C000120755FD74012AF518E43BF5198C1AED58
:1001D000FA7003020739BA25028003020731C2040C
:1001E000C205C206C207C208C209C20AC20BC201C6
:1001F000C202C2037513007514007515FFAB18AC6D
:1002000019AD1A8B828C838DF0120755FAA3AB823D
:10021000AC838B188C198D1ABA25078A821201209B
:1002200080928A06BE3000402E8A06EE24C6402701
:1002300074FFB51513E51475F00AA4FEEA24D02E58
:10024000F51470BFD20580BBE51575F00AA4FEEA6F
:1002500024D02EF51580ACBA2E0A74FFB515A475FE
:100260001500809F8A06BE6100400E8A06EE248536
:1002700040075302DFD2008002C200BA200280751C
:10028000BA2303020304BA2A03020309BA2B028029
:100290005FBA2D028055BA4202805FBA430302035F
:1002A0004EBA4403020489BA45030204A3BA4603C2
:1002B00002049FBA47030204A7BA4903020489BA99
:1002C0004C02803BBA4E030204ABBA4F03020490C7
:1002D000BA5003020422BA5303020372BA5503024E
:1002E0000495BA580302049A0204D5D20402020308
:1002F000D206020203D207020203D209020203D28B
:100300000A020203D20B02020374FFB51520300962
:100310000BE51B14F8881B8614020203E51B24FE60
:10032000F8881B8606088607188E14020203300917
:100330000BE51B14F8881B8615020203E51B24FE3F
:10034000F8881B8606088607188E150202033009F6
:100350000AE51B14F8881B8602800FE51B24FEF8B3
:10036000881B8603088604188B028A8212012002E9
:1003700004DAE51B24FDF8881B860308860408863A
:100380000518188B0C8C0D8D0E8B828C838DF012C2
:10039000078AAB82AC838B1674FFB51503851615DF
:1003A00020041DC3E51695145016E514C39516F5E3
:1003B00014AB141514EB600875822012012080F133
:1003C000850C82850D83850EF0120755FBFA602996
:1003D000AB151515C3E464808BF063F08095F05085
:1003E000188A82120120AB0CAC0DAD0E0BBB0001C4
:1003F0000C8B0C8C0D8D0E80C72004030204DAC315
:10040000E516951440030204DAE514C39516F514B5
:10041000AB141514EB70030204DA7582201201206C
:1004200080EEE51B24FDF8881B86030886040886F9
:100430000518188B0C8C0D8D0EE50EFB30E7047A39
:10044000438013EB546060047A50800AEB30E6047A
:100450007A4980027A588A82C00212012075823A53
:10046000120120758230120120758278120120D08D
:1004700002BA4902800BBA50028006850D82120131
:1004800053850C821201538051D20875130A804A99
:10049000751308804575130A8040751310803BD290
:1004A000018037D2028033D203802FE51B24FDF870
:1004B000881B860308860408860518188B0C8C0D8B
:1004C0008D0E8B828C838DF0E511120771A3E512DE
:1004D00012077180058A8212012020010620020382
:1004E00030035AE51B24FCF8881B860308860408A1
:1004F00086050886061818188B0C8C0D8D0E8E0F2D
:10050000750C84750D00750E80850C1C850D1D8580
:100510000E1E7401251CFEE4351DFFAB1E8E0C8FD4
:100520000D8B0E851C82851D83851EF0120755FBE1
:10053000FA70030201B48A8212012080CCE51370A4
:10054000030201B47B2730092BE51B14F8881BE656
:10055000FC3395E0FDFEFF8C0C8D0D8E0E8F0F2071
:10056000085EAC0C7D007E007F008C0C8D0D8E0E25
:100570008F0F804C300A1FE51B24FCF8881B860473
:100580000886050886060886071818188C0C8D0D35
:100590008E0E8F0F802AE51B24FEF8881B86040828
:1005A000860518ED3395E0FEFF8C0C8D0D8E0E8FB9
:1005B0000F20080CAC0CAD0D7E007F008E0E8F0F4F
:1005C000300B43E50C450D450E450F60397408B5F9
:1005D000130C758230C003120120D00380287410E0
:1005E000B51323758230C003120120D00330000CF4
:1005F000758278C003120120D003800A758258C02A
:1006000003120120D003300825AC0CAD0DAE0EE571
:100610000FFF30E717C3E49CFCE49DFDE49EFEE47D
:100620009FFF8C0C8D0D8E0E8F0F8002C2087516E9
:1006300000D20C8B00751000C00012016AD000209F
:100640000C0DE510C4FCE6FD4CF61888038002A6EC
:10065000100516B20CE50C450D450E450F70D688F9
:1006600003E514700375140120051A200417E5161C
:1006700004FCC39514500E758220C003120120D0D3
:1006800003151480E930080E75822DC00312012075
:10069000D00315148024E516602030060E75822BD9
:1006A000C003120120D0031514800F30070C75828F
:1006B00020C003120120D003151420041EAC141511
:1006C00014C3E5169C50273005047C3080027C2042
:1006D0008C82C003120120D00380E2C3E51695147A
:1006E0005009E514C39516F51480037514008B00AA
:1006F000AB161516EB6022B20C200C0A08E6C454A7
:100700000FFB8B1080078603740F5BF5108510823A
:10071000C00012013AD00080D72004030201B4AB1C
:10072000141514EB70030201B475822012012080AD
:10073000EE8A821201200201B48511828512832281
:10074000AA82BA0A0810990280FB75990D109902C5
:1007500080FB8A992220F71430F6148883A882201F
:10076000F507E6A88375830022E280F7E49322E090
:100770002220F71030F6118883A88220F507F6A80A
:100780008375830022F280F7F022AA82AB83ACF05B
:100790007D007E008A828B838CF0120755FFA3AA0E
:1007A00082AB83EF60070DBD00EA0E80E78D828E7D
:1007B0008322000000000000000000000000000094
:00000001FF
