:1000000002000375812812012EE582600302006F51
:10001000780079007A007B007C007D00EC4D601C4C
:1000200088828983E493A3A882A9838A828B83F040
:10003000A3AA82AB831CBCFFE31D80E07582007520
:1000400083007C007D00EC4D600AE4F0A31CBCFF43
:10005000F51D80F27582007583007C007D00EC4DFB
:10006000600AE4F0A31CBCFFF51D80F212012D1202
:1000700001EE80FE1B5B324A0045464D3820467239
:10008000657175656E6379206D6561737572656DF7
:10009000656E74207573696E672054696D65722F83
:1000A000436F756E74657220302E0A46696C653A2E
:1000B0002025730A436F6D70696C65643A2025735F
:1000C0002C2025730A0A00433A5C55736572735CF1
:1000D0006B6367726F5C446F63756D656E74735CA0
:1000E0004769744875625C454C45433239315C4C14
:1000F0004142345C4672657145464D382E63004678
:10010000656220323720323032330031323A3337B1
:100110003A3434000D663D256C75487A001B5B301F
:100120004B003C4E4F20464C4F41543E002275A799
:10013000007597DE7597AD43FF8075EF0275A710C8
:1001400075C12075A70075A90075A900E5A930E75C
:10015000FB75A90375A903E5A930E7FB43A4107556
:10016000E10175E21075E340759810858E8E758DEE
:10017000E6858D8B53890F438920D28ED299758263
:100180000022AA82438E407592B87593FF8592949F
:100190008593957591047B00C3EB9A5012E59130DD
:1001A000E7FB53917F108D02800205090B80E975F2
:1001B000910022AA82AB83BA0004BB00012275829F
:1001C000F9C002C0031201827582F91201827582A0
:1001D000F91201827582FA120182D003D0021ABA92
:1001E000FF011B80D25389F0438905C28C22120182
:1001F000E59001F41201B37474C0E07400C0E074BF
:1002000080C0E01202DF158115811581740BC0E0FA
:100210007401C0E07480C0E074FFC0E07400C0E00E
:100220007480C0E074C7C0E07400C0E07480C0E0B7
:100230007479C0E07400C0E07480C0E01202DFE5B1
:100240008124F4F581758A00758C00750900C28DD2
:10025000D28C9003E81201B3C28CAA097B008B05F3
:100260008A047B007A00AE8C7F00780088018F00C2
:100270008E077E00EE2AFAEF3BFBE83CFCE93DFDF1
:10028000AE8AE4FF3395E0F8F9EE2AFAEF3BFBE89B
:100290003CFCE93DFDC002C003C004C0057414C0AD
:1002A000E07401C0E07480C0E01202DFE58124F94F
:1002B000F581741DC0E07401C0E07480C0E01202DA
:1002C000DF158115811581020245020920858219F9
:1002D00085831A85F01B850A1C9002CA020389C017
:1002E00008858108E50824FBF51CE50824FBF88651
:1002F0001908861A08861B9002CA120389D00822A0
:10030000AA827411C0E07403C0E0C00BC00C8A82E2
:10031000220512E4B51202051322AA8274302AFAC9
:1003200024C6500A74072AFA3000034302208A8246
:10033000020300E582FAC4540FF582C00212031AC8
:10034000D002740F5AF58202031AAA0DAB0EAC0F3D
:10035000AD10AE11751820EE2EFEED235401FF42B4
:1003600006EA2AFAEB33FBEC33FCED33FDC3EE95E2
:10037000144008EEC39514FE430201D518D98A0D26
:100380008B0E8C0F8D108E112285820B85830CE4D1
:10039000F512F513AA19AB1AAC1B8A828B838CF069
:1003A000120935FD74012AF519E43BF51A8C1BED91
:1003B000FA7003020919BA25028003020911C20466
:1003C000C205C206C207C208C209C20AC20BC201E4
:1003D000C202C2037514007515007516FFAB19AC87
:1003E0001AAD1B8B828C838DF0120935FAA3AB8278
:1003F000AC838B198C1A8D1BBA25078A82120300D5
:1004000080928A06BE3000402E8A06EE24C640271F
:1004100074FFB51613E51575F00AA4FEEA24D02E74
:10042000F51570BFD20580BBE51675F00AA4FEEA8B
:1004300024D02EF51680ACBA2E0A74FFB516A4751A
:100440001600809F8A06BE6100400E8A06EE248553
:1004500040075302DFD2008002C200BA200280753A
:10046000BA23030204E4BA2A030204E9BA2B028085
:100470005FBA2D028055BA4202805FBA430302057B
:100480002EBA4403020669BA4503020683BA46033C
:1004900002067FBA4703020687BA4903020669BA11
:1004A0004C02803BBA4E0302068BBA4F0302067021
:1004B000BA5003020602BA5303020552BA550302A8
:1004C0000675BA580302067A0206B5D2040203E39F
:1004D000D2060203E3D2070203E3D2090203E3D206
:1004E0000A0203E3D20B0203E374FFB516203009BE
:1004F0000BE51C14F8881C86150203E3E51C24FE9A
:10050000F8881C8606088607188E150203E3300952
:100510000BE51C14F8881C86160203E3E51C24FE78
:10052000F8881C8606088607188E160203E3300931
:100530000AE51C14F8881C8602800FE51C24FEF8CE
:10054000881C8603088604188B028A821203000224
:1005500006BAE51C24FDF8881C8603088604088674
:100560000518188B0D8C0E8D0F8B828C838DF012DD
:10057000096AAB82AC838B1774FFB5160385171617
:1005800020041DC3E51795155016E515C39517F5FD
:1005900015AB151515EB600875822012030080F16C
:1005A000850D82850E83850FF0120935FBFA6029CF
:1005B000AB161516C3E464808BF063F08095F050A1
:1005C000188A82120300AB0DAC0EAD0F0BBB0001FD
:1005D0000C8B0D8C0E8D0F80C72004030206BAC34E
:1005E000E517951540030206BAE515C39517F515ED
:1005F000AB151515EB70030206BA758220120300C5
:1006000080EEE51C24FDF8881C8603088604088615
:100610000518188B0D8C0E8D0FE50FFB30E7047A53
:10062000438013EB546060047A50800AEB30E60498
:100630007A4980027A588A82C00212030075823A8F
:10064000120300758230120300758278120300D005
:1006500002BA4902800BBA50028006850E8212034C
:1006600033850D821203338051D20875140A804AF3
:10067000751408804575140A8040751410803BD2AB
:10068000018037D2028033D203802FE51C24FDF88D
:10069000881C860308860408860518188B0D8C0EA6
:1006A0008D0F8B828C838DF0E512120951A3E51317
:1006B00012095180058A82120300200106200203DC
:1006C00030035AE51C24FCF8881C860308860408BD
:1006D00086050886061818188B0D8C0E8D0F8E1047
:1006E000750D22750E01750F80850D1D850E1E85F9
:1006F0000F1F7401251DFEE4351EFFAB1F8E0D8FED
:100700000E8B0F851D82851E83851FF0120935FB18
:10071000FA70030203948A8212030080CCE51470FD
:10072000030203947B2830092BE51C14F8881CE68F
:10073000FC3395E0FDFEFF8C0D8D0E8E0F8F10208B
:10074000085EAC0D7D007E007F008C0D8D0E8E0F3F
:100750008F10804C300A1FE51C24FCF8881C86048E
:100760000886050886060886071818188C0D8D0E51
:100770008E0F8F10802AE51C24FEF8881C86040842
:10078000860518ED3395E0FEFF8C0D8D0E8E0F8FD4
:100790001020080CAC0DAD0E7E007F008E0F8F1068
:1007A000300B43E50D450E450F451060397408B513
:1007B000140C758230C003120300D003802874101B
:1007C000B51423758230C003120300D00330000C2F
:1007D000758278C003120300D003800A758258C066
:1007E00003120300D003300825AC0DAD0EAE0FE5AB
:1007F00010FF30E717C3E49CFCE49DFDE49EFEE49B
:100800009FFF8C0D8D0E8E0F8F108002C208751702
:1008100000D20C8B00751100C00012034AD00020DA
:100820000C0DE511C4FCE6FD4CF61888038002A609
:10083000110517B20CE50D450E450F451070D68811
:1008400003E515700375150120051A200417E51737
:1008500004FCC39515500E758220C003120300D00E
:1008600003151580E930080E75822DC003120300B0
:10087000D00315158024E517602030060E75822BF5
:10088000C003120300D0031515800F30070C7582CA
:1008900020C003120300D003151520041EAC15154B
:1008A00015C3E5179C50273005047C3080027C205E
:1008B0008C82C003120300D00380E2C3E5179515B4
:1008C0005009E515C39517F51580037515008B00C4
:1008D000AB171517EB6022B20C200C0A08E6C454C3
:1008E0000FFB8B1180078603740F5BF51185118256
:1008F000C00012031AD00080D7200403020394AB77
:10090000151515EB70030203947582201203008005
:10091000EE8A8212030002039485128285138322D9
:10092000AA82BA0A0810990280FB75990D109902E3
:1009300080FB8A992220F71430F6148883A882203D
:10094000F507E6A88375830022E280F7E49322E0AE
:100950002220F71030F6118883A88220F507F6A828
:100960008375830022F280F7F022AA82AB83ACF079
:100970007D007E008A828B838CF0120935FFA3AA4A
:1009800082AB83EF60070DBD00EA0E80E78D828E9B
:1009900083220000000000000000000000000000B2
:00000001FF
