:1000000002000375814E12011EE582600302006F3B
:10001000780079007A007B007C007D00EC4D601C4C
:1000200088828983E493A3A882A9838A828B83F040
:10003000A3AA82AB831CBCFFE31D80E07582007520
:1000400083007C007D00EC4D600AE4F0A31CBCFF43
:10005000F51D80F27582007583007C007D00EC4DFB
:10006000600AE4F0A31CBCFFF51D80F212011D1212
:1000700003E780FE1B5B324A0045464D382046723E
:10008000657175656E6379206D6561737572656DF7
:10009000656E74207573696E672054696D65722F83
:1000A000436F756E74657220302E0A46696C653A2E
:1000B0002025730A436F6D70696C65643A2025735F
:1000C0002C2025730A0A00433A5C55736572735CF1
:1000D0006B6367726F5C446F63756D656E74735CA0
:1000E0004769744875625C454C45433239315C4C14
:1000F0004142345C6C6162342E630046656220329A
:100100003820323032330031333A31343A3237002A
:100110000D543D2566206D7320202020002275A7F8
:10012000007597DE7597AD43FF8075EF0275A710D8
:1001300075C12075A70075A90075A900E5A930E76C
:10014000FB75A90375A903E5A930E7FB43A4107566
:10015000E10175E21075E340759810858E8E758DFE
:10016000E6858D8B53890F438920D28ED299758273
:100170000022AA82438E407592B87593FF859294AF
:100180008593957591047B00C3EB9A5012E59130ED
:10019000E7FB53917F108D02800205220B80E975E9
:1001A000910022AA82AB83BA0004BB0001227582AF
:1001B000F9C002C0031201727582F91201727582D0
:1001C000F91201727582FA120172D003D0021ABAC2
:1001D000FF011B80D2D2A5758228120172C2A5220E
:1001E000AA828AE0A2E792A1A2E692A2A2E592A345
:1001F000A2E492A4C0021201D5758228120172D025
:10020000028AE0A2E392A1A2E292A2A2E192A3A2B8
:10021000E092A40201D5AA82D2A68A821201E090BD
:1002200000020201A3AA82C2A68A821201E0900003
:10023000050201A3C2A59000141201A37582331216
:1002400002257582331202257582321202257582CB
:100250002812022575820C120225758201120225D0
:100260009000140201A3AA82AB83ACF07402B52300
:10027000047DC080027D808D82C002C003C0041254
:1002800002259000051201A3D004D003D0027D0006
:100290007E00ED2AFFEE3BF88C018F82888389F087
:1002A000120595FF60208F82C002C003C004C00504
:1002B000C006120216D006D005D004D003D0020D1D
:1002C000BD00CF0E80CC3000248D028E03C3EA9493
:1002D00010EB648094805015758220C002C0031218
:1002E0000216D003D0020ABA00E30B80E022858216
:1002F0002685832785F028E4F529F52AE52424FFBF
:10030000FFE52534FFF879007A00C3E99FEA6480AD
:1003100088F063F08095F05059C002C007C000C05B
:10032000011206EEAB82D001D000D007D002BB0A8A
:10033000028003BB0D1DE5292526FCE52A3527FD96
:10034000AE288C828D838EF0E41207018529828588
:100350002A8322E92526FCEA3527FDAE288C828DEA
:10036000838EF0EB12070109B900010A89298A2A54
:100370008098E5292526FAE52A3527FBAC288A82CC
:100380008B838CF0E412070185248285258322AAC1
:1003900082AB83ACF0FDC002C003C004C0059098DE
:1003A0000075F05874451205B1AA82AB83ACF0FD1C
:1003B000E58124FCF581C002C003C004C0059000A3
:1003C0000075F080743F120727AA82AB83ACF0FD62
:1003D000E58124FCF5818A828B838CF0ED225389A0
:1003E000F0438905C28C221203DE9001F41201A3AE
:1003F0007474C0E07400C0E07480C0E01206CD15D3
:1004000081158115817407C0E07401C0E07480C05B
:10041000E074FBC0E07400C0E07480C0E074C7C04A
:10042000E07400C0E07480C0E07479C0E07400C083
:10043000E07480C0E01206CDE58124F4F581758A70
:1004400000758C00C28D7522002081FD3081FDD2A7
:100450008C308109108D0280F8052280F4208109FA
:10046000108D0280F8052280F4C28C85228212064B
:1004700054AA82AB83ACF0FDC002C003C004C00527
:1004800090000075F08074471205B1AA82AB83AC6E
:10049000F0FDE58124FCF581858C82C002C003C09B
:1004A00004C005120654AE82AF83A8F0F9C006C09E
:1004B00007C000C00190000075F08074431205B1C0
:1004C000AE82AF83A8F0F9E58124FCF581D005D098
:1004D00004D003D002C006C007C000C0018A828BCE
:1004E000838CF0ED12065FAA82AB83ACF0FDE58150
:1004F00024FCF581AE8A7F008E828F83C002C00308
:10050000C004C00512071AAE82AF83A8F0F9D00567
:10051000D004D003D002C006C007C000C0018A8248
:100520008B838CF0ED12065FAA82AB83ACF0FDE505
:100530008124FCF581C002C003C004C00590F4FC16
:1005400075F03274341205B1AA82AB83ACF0FDE5CC
:100550008124FCF581C002C003C004C005900000E6
:1005600075F07A74441205B1AA82AB83ACF0FDE554
:100570008124FCF581C002C003C004C0057410C012
:10058000E07401C0E07480C0E01206CDE58124F97A
:10059000F58102043E20F71430F6148883A88220E7
:1005A000F507E6A88375830022E280F7E49322E052
:1005B000221208C8BC0003020867EF60FA30D502B7
:1005C000B2D1E583B4FF0302087DE582B4FF0302E4
:1005D000087D258340072482400B0208672483148A
:1005E000500302087DF582EA8DF0A4A8F0EA8EF0AF
:1005F000A428F8E435F0F9EB8DF0A428E935F0F9FA
:10060000E433CA8FF0A429F9EA35F0FAEBF88EF05A
:10061000A429F9EA35F0FAE433FBEC8DF0A429F9CA
:10062000EA35F0FAE43BFBE88FF0A42AFAEB35F068
:10063000FBE433CCFD8EF0A42AFAEB35F0FBE43C6E
:10064000FCED8FF0A42BFBEC35F0FC20E703120847
:1006500095020846E4AC82FBFAF974860208FF12A0
:1006600008C87900E583B58202800D50031209099C
:10067000E583C39582120923E5D0C465D020E11734
:10068000EA2DFAEB3EFBEC3FFC5009740112092302
:10069000EC4480FC020846C3EA9DFAEB9EFBEC9F0B
:1006A000FC500FC3E499F9E49AFAE49BFBE49CFC48
:1006B000B2D11208950208460212F285821885838B
:1006C0001985F01A85091B9006B8020D45C00885EA
:1006D0008108E50824FBF51BE50824FBF8861808CB
:1006E000861908861A9006B8120D45D0082210986F
:1006F0000280FBAA998A82C0021212F2D0028A8278
:100700002220F71030F6118883A88220F507F6A87A
:100710008375830022F280F7F022AC83AB827A00EB
:100720007900748E0213101208C830D502B2D1BFFE
:100730000009BC000302088A02087DBC000302080D
:1007400067E583B4FF0BE582B4FF0302088A020861
:1007500067E582B4FF0302087DC395835007247FB9
:10076000400B020867248014500302087DC0E0E4B7
:10077000CCCBCAF98D1C8E1D8F1EEF54F0C4F51F13
:10078000758306851FF0EB84F582E9C4F9EAC4FAA3
:10079000EBC4FBEC540FC47803D6FC18EBD6FB1863
:1007A000EAD6FA8582F0EDA4A8F0FD8582F0EEA4E9
:1007B00028FEE435F0F88582F0EFA428FFE435F058
:1007C000F8E99DF9EA9EFAEB9FFBEC98FCAD1CAEB4
:1007D0001DAF1E30E7101582E92DF9EA3EFAEB3F16
:1007E000FBE43CFC80EDC082D58398C3E933F9EA91
:1007F00033FAEB33FBEC33FCC3E99DEA9EEB9FEC51
:100800009400B3E413F9D002D0E0C44AFAD003D084
:10081000E0C44BFBD004D0E0F5F0540FC44CFCD046
:1008200082158230F40FD3EC13FCEB13FBEA13FABE
:10083000E913F90582E930E70A74012AFAE43BFB7F
:10084000E43CFC02085EB98003EA13B34010EA24DA
:1008500001FAE43BFBE43CFC50047C800582BC00D4
:100860000EBB000BBA0008E4F5F0F583F58222A276
:10087000D1E582138CF092F78B838A8222E4F58390
:10088000F58275F080F4A2D11322E4F583F5827528
:10089000F0C0747F227804EC7011E58224F8500ACD
:1008A000F582E4C9CACBFCD8EF22EC78200582207F
:1008B000E713D5820122C3E933F9EA33FAEB33FBBC
:1008C000EC33FCD8EA158222AA82AB83A2F73392DA
:1008D000D16002D2F7F582ACF0E58124F9F8E6FDAB
:1008E00008E6FE0886F008E6A2F73392D56002D249
:1008F000F7F583AFF022FCABF0AA83A982749EC205
:10090000D1F582120895020846E582C583F582A2D8
:10091000D133A2D592D11392D5ECCFFCEBCEFBEA2A
:10092000CDFA226040F82582500274FFF582E82457
:10093000F8501ECCCBCAF9E4CC24F85014CBCAF939
:10094000E4CB24F8500BCAF9E4CA24F85003790028
:100950002224086010F8C3EC13FCEB13FBEA13FA33
:10096000E913F9D8F122AA827477C0E07409C0E0D3
:10097000C00AC00B8A82220511E4B51102051222B9
:10098000AA8274302AFA24C6500A74072AFA30015F
:10099000034302208A82020966E582FAC4540FF5F5
:1009A00082C002120980D002740F5AF582020980B7
:1009B000AA0CAB0DAC0EAD0FAE10751720EE2EFECF
:1009C000ED235401FF4206EA2AFAEB33FBEC33FC39
:1009D000ED33FDC3EE95134008EEC39513FE4302BD
:1009E00001D517D98A0C8B0D8C0E8D0F8E102278A5
:1009F0004BE624D075F00AA4FA784CE624D02AFA03
:100A0000784A8603BB2D04C3E49AFA751301C3E444
:100A100064808AF063F08095F050297517038A038B
:100A200074F62517401C0513E51714243FF8E51745
:100A3000243FF98704A604772E1BEBFA6004051700
:100A400080DE8B02EA30E70D784086037841A6030A
:100A50007840762E0AE515600AE51504FB2513F5A6
:100A6000138005300C020513783F8603E4BB2D018B
:100A700004FB70062007033008020513300503024B
:100A80000B36300657EB600C75822DC002120966DA
:100A9000D002801C30070C75822BC002120966D070
:100AA00002800D30080A758220C002120966D00249
:100AB00078408604BC2E0C758230C002120966D0C4
:100AC000021514AC141514C3E5139C4003020B7AF1
:100AD000758230C002120966D00280E7AC1415148A
:100AE000C3E5139C500C758220C002120966D00227
:100AF00080EA783F8604BC2D0C75822DC002120955
:100B000066D002801C30070C75822BC00212096669
:100B1000D002800D30080A758220C002120966D00A
:100B20000278408604BC2E52758230C002120966DB
:100B3000D00215148044EB600E75822DC00212099C
:100B400066D0021514802030070E75822BC0021269
:100B50000966D0021514800F30080C758220C0027F
:100B6000120966D002151478408603BB2E0C7582DC
:100B700030C002120966D0021514751701C20EE5C5
:100B800017243FF88603BB4503020C37BB2E348A7B
:100B900003C3E464808BF063F08095F0500F75829E
:100BA00030C003120966D0031B8B0280E48B02D293
:100BB0000EE5157038200C03020C3775822E1209D1
:100BC000668074300E278A03EB30E71FC3E464802D
:100BD0008515F063F08095F0500C758230C00312DB
:100BE0000966D00315150B8B0280DD8B02300E0ECB
:100BF000C3E464808515F063F08095F05021E5171B
:100C0000243FF886038B82C002120966D002300EA0
:100C10000EE517243FF88603BB2E0280021515153A
:100C200014C3E464808515F063F08095F0400320E0
:100C30000E050517020B7FC3E464808515F063F091
:100C40008095F0500A758230120966151580E830DB
:100C5000050FAA141514EA6008758220120966802F
:100C6000F122E5157003300C0D74072515FAE51413
:100C7000C39AF5148006E51424FAF5147517007864
:100C80003F8602BA2B0F20070C783F7620200805FC
:100C90007517010514200519AA14C3E464808AF0AD
:100CA00063F08095F0500A75822012096615148051
:100CB000E7C20EE517243FF88602BA00028069BA3F
:100CC000451F3001027665C3E464808515F063F04A
:100CD0008095F0500A758230120966151580E8D2A9
:100CE0000EC3E5179402E433FA7014EA700EC3E4FD
:100CF00064808515F063F08095F04003300E16E5B2
:100D000017243FF886028A82120966E51724FD50EF
:100D1000121515800E7402B51709300C0675822E57
:100D20001209660517020CB3300519AA14C3E4644E
:100D3000808AF063F08095F0500A7582201209666F
:100D4000151480E72285820A85830BE4F511F512DC
:100D5000AA18AB19AC1A8A828B838CF0120595FD08
:100D600074012AF518E43BF5198C1AEDFA700302A8
:100D700012EBBA250280030212E3C205C206C207C3
:100D8000C208C209C20AC20BC20CC202C203C20418
:100D90007513007514007515FFAB18AC19AD1A8BDF
:100DA000828C838DF0120595FAA3AB82AC838B18ED
:100DB0008C198D1ABA25078A8212096680928A06D2
:100DC000BE3000402E8A06EE24C6402774FFB515BB
:100DD00013E51475F00AA4FEEA24D02EF51470BFB2
:100DE000D20680BBE51575F00AA4FEEA24D02EF5E4
:100DF0001580ACBA2E0A74FFB515A4751500809F36
:100E00008A06BE6100400E8A06EE24854007530222
:100E1000DFD2018002C201BA20028075BA23030228
:100E20000EA0BA2A03020EA5BA2B02805FBA2D02C9
:100E30008055BA4202805FBA4303020EEABA440305
:100E4000021025BA450302103FBA460302103BBA0E
:100E50004703021043BA4903021025BA4C02803BF3
:100E6000BA4E03021047BA4F0302102CBA500302C5
:100E70000FBEBA5303020F0EBA5503021031BA580F
:100E800003021036021071D205020D9FD207020D27
:100E90009FD208020D9FD20A020D9FD20B020D9F16
:100EA000D20C020D9F74FFB51520300A0BE51B1400
:100EB000F8881B8614020D9FE51B24FEF8881B860C
:100EC00006088607188E14020D9F300A0BE51B14C6
:100ED000F8881B8615020D9FE51B24FEF8881B86EB
:100EE00006088607188E15020D9F300A0AE51B14A6
:100EF000F8881B8602800FE51B24FEF8881B8603FA
:100F0000088604188B028A82120966021076E51B95
:100F100024FDF8881B860308860408860518188BAC
:100F20000C8C0D8D0E8B828C838DF0121453AB8242
:100F3000AC838B1674FFB5150385161520051DC3EC
:100F4000E51695145016E514C39516F514AB141553
:100F500014EB600875822012096680F1850C828589
:100F60000D83850EF0120595FBFA6029AB1515155A
:100F7000C3E464808BF063F08095F050188A82128D
:100F80000966AB0CAC0DAD0E0BBB00010C8B0C8CD1
:100F90000D8D0E80C7200503021076C3E51695144B
:100FA0004003021076E514C39516F514AB1415141E
:100FB000EB700302107675822012096680EEE51B45
:100FC00024FDF8881B860308860408860518188BFC
:100FD0000C8C0D8D0EE50EFB30E7047A438013EB8D
:100FE000546060047A50800AEB30E6047A4980024B
:100FF0007A588A82C00212096675823A12096675A9
:101000008230120966758278120966D002BA4902E6
:10101000800BBA50028006850D82120999850C82D8
:101020001209998051D20975130A804A75130880F4
:101030004575130A8040751310803BD2028037D269
:10104000038033D204802FE51B24FDF8881B860320
:1010500008860408860518188B0C8C0D8D0E8B8263
:101060008C838DF0E511120701A3E51212070180B0
:10107000058A82120966200206200303300470E507
:101080001B24FCF8881B860308860408860508864E
:10109000061818188B0C8C0D8D0E8E0FE50CE50DB7
:1010A000E50EE50F8B828C838DF0EE12133474FF06
:1010B000B51503751506300427747F550FFB8B108B
:1010C000E510EB2BFB8B10E50E30E70674014510A5
:1010D000F510E51024684006749925104002D203EB
:1010E000300306120C62020D501209EF020D50E59A
:1010F000137003020D507B44300A2BE51B14F88853
:101100001BE6FC3395E0FDFEFF8C0C8D0D8E0E8FE3
:101110000F20095EAC0C7D007E007F008C0C8D0DD5
:101120008E0E8F0F804C300B1FE51B24FCF8881BA4
:1011300086040886050886060886071818188C0C89
:101140008D0D8E0E8F0F802AE51B24FEF8881B86DE
:101150000408860518ED3395E0FEFF8C0C8D0D8E8E
:101160000E8F0F20090CAC0CAD0D7E007F008E0E93
:101170008F0F300C43E50C450D450E450F6039745B
:1011800008B5130C758230C003120966D00380289D
:101190007410B51323758230C003120966D0033072
:1011A000010C758278C003120966D003800A75822B
:1011B00058C003120966D003300925AC0CAD0DAE42
:1011C0000EE50FFF30E717C3E49CFCE49DFDE49EB1
:1011D000FEE49FFF8C0C8D0D8E0E8F0F8002C209D6
:1011E000751600D20D8B00751000C0001209B0D02A
:1011F00000200D0DE510C4FCE6FD4CF618880380B8
:1012000002A6100516B20DE50C450D450E450F70F2
:10121000D68803E514700375140120061A200517FB
:10122000E51604FCC39514500E758220C003120904
:1012300066D003151480E930090E75822DC00312A3
:101240000966D00315148024E516602030070E755A
:10125000822BC003120966D0031514800F30080CCE
:10126000758220C003120966D003151420051EAC38
:10127000141514C3E5169C50273006047C308002F8
:101280007C208C82C003120966D00380E2C3E5167D
:1012900095145009E514C39516F5148003751400D0
:1012A0008B00AB161516EB6022B20D200D0A08E676
:1012B000C4540FFB8B1080078603740F5BF51085F9
:1012C0001082C000120980D00080D7200503020DD3
:1012D00050AB141514EB7003020D507582201209E7
:1012E0006680EE8A82120966020D5085118285128F
:1012F0008322AA82BA0A0810990280FB75990D1000
:10130000990280FB8A9922FCABF0AA83A982749E81
:10131000F582C2D1EC30E716D2D1E9F42401F9EA22
:10132000F43400FAEBF43400FBECF43400FC120863
:1013300095020846C0E0F84582458345F07009F5FE
:10134000F0FBFCFDFE021402E823A2F792E0F8A9EC
:1013500082AA83D2F7ABF07C007E07C374979840D3
:101360004074FF2EFE740A89F0A4F985F082740A95
:101370008AF0A4FA85F083740A8BF0A4FB74052923
:10138000F9EA3582FAEB3583FB740035F0FCC3ECE7
:1013900013FCEB13FBEA13FAE913F908EC70EF8086
:1013A000BAE8C3947FF88B838EF0E4FBFCFDFEFF6C
:1013B00008C3E933F9EA33FAE58333F583EB3BD429
:1013C000FBEC3CD4FCED3DD4FDEE3ED4FEEF3FD42F
:1013D000FF602D05F074052BD4FBE43CD4FCE43D08
:1013E000D4FDE43ED4FEE43FD4FF758204C3EF1382
:1013F000FFEE13FEED13FDEC13FCEB13FBD582EDBA
:10140000D8AF783FD0E020E704762B8002762D0815
:101410007906E7C4540F4430F608B90603762E085F
:10142000E7540F4430F60819B902E7764508E5F0AD
:1014300020E704762B8004762DF4040875F00A84E6
:101440004430F608E5F04430F608E4F690003F75C5
:10145000F04022AA82AB83ACF07D007E008A828BB2
:10146000838CF0120595FFA3AA82AB83EF60070D72
:10147000BD00EA0E80E78D828E832200000000000E
:00000001FF
