:10000000020003758164120124E582600302006F1F
:10001000780079007A007B007C007D00EC4D601C4C
:1000200088828983E493A3A882A9838A828B83F040
:10003000A3AA82AB831CBCFFE31D80E07582007520
:1000400083007C007D00EC4D600AE4F0A31CBCFF43
:10005000F51D80F27582007583007C007D00EC4DFB
:10006000600AE4F0A31CBCFFF51D80F2120123120C
:10007000050A80FE43203D20252E34662563460078
:100080001B5B324A0045464D3820506572696F64EB
:10009000206D6561737572656D656E742061742085
:1000A00070696E2050302E31207573696E67205450
:1000B000696D657220302E0A46696C653A20257399
:1000C0000A436F6D70696C65643A2025732C202596
:1000D000730A0A00433A5C55736572735C6B63671D
:1000E000726F5C446F63756D656E74735C476974A1
:1000F0004875625C454C45433239315C4C41423471
:100100005C506572696F6445464D382E63004665E4
:100110006220323820323032330031343A35393AC5
:100120003237002275A7007597DE7597AD43FF80C3
:1001300075EF0275A71075C12075A70075A9007528
:10014000A900E5A930E7FB75A90375A903E5A93066
:10015000E7FB43A41075E10175E20075E340759873
:1001600010858E8E758DE6858D8B53890F43892082
:10017000D28ED29975820022AA82438E407592B89F
:100180007593FF8592948593957591047B00C3EBDD
:100190009A500BE59130E7FB53917F0B80F07591FE
:1001A0000022AA82AB83BA0004BB0001227582F947
:1001B000C002C0031201787582F91201787582F9C4
:1001C0001201787582FA120178D003D0021ABAFFB0
:1001D000011B80D2D2A5758228120178C2A522AA5D
:1001E000828AE0A2E792A1A2E692A2A2E592A3A24D
:1001F000E492A4C0021201D4758228120178D002C0
:100200008AE0A2E392A1A2E292A2A2E192A3A2E0DA
:1002100092A40201D4AA82D2A68A821201DF90009F
:10022000020201A2AA82C2A68A821201DF90000500
:100230000201A2C2A59000141201A275823312021B
:1002400024758233120224758232120224758228A8
:1002500012022475820C120224758201120224906B
:1002600000140201A2AA82AB83ACF07402B523048D
:100270007DC080027D808D82C002C003C004120256
:10028000249000051201A2D004D003D0027D007E8C
:1002900000ED2AFFEE3BF88C018F82888389F012F3
:1002A00006AAFF60208F82C002C003C004C005C040
:1002B00006120215D006D005D004D003D0020DBD21
:1002C00000CF0E80CC3000248D028E03C3EA941040
:1002D000EB648094805015758220C002C003120226
:1002E00015D003D0020ABA00E30B80E022858226F3
:1002F00085832785F028E4F529F52AE52424FFFFE6
:10030000E52534FFF879007A00C3E99FEA64808824
:10031000F063F08095F05059C002C007C000C001E2
:10032000120833AB82D001D000D007D002BB0A0242
:100330008003BB0D1DE5292526FCE52A3527FDAEEA
:10034000288C828D838EF0E4120846852982852AC6
:100350008322E92526FCEA3527FDAE288C828D8391
:100360008EF0EB12084609B900010A89298A2A8011
:1003700098E5292526FAE52A3527FBAC288A828BC1
:10038000838CF0E4120846852482852583225389D4
:10039000F0438901C28C22AA82AB83ACF0FDC0027B
:1003A000C003C004C005906B2875F06E744E120631
:1003B000F6AA82AB83ACF0FDE58124FCF58174C61E
:1003C000C0E0749BC0E07458C0E07445C0E08A820D
:1003D0008B838CF0ED120901AA82AB83ACF0FDE5B2
:1003E0008124FCF5818A828B838CF0ED22AA82AB7A
:1003F00083ACF07D6EC002C003C004C005E4C0E061
:10040000C0E074C8C0E07442C0E0852B82852C83B4
:10041000852DF0E52E1206C6AE82E58124FCF5811D
:10042000D005D004D003D002EE603E7D75C002C07E
:1004300003C004C005E4C0E0C0E0747AC0E07444C6
:10044000C0E0852B82852C83852DF0E52E120901D5
:1004500085822B85832C85F02DF52EE58124FCF5F6
:1004600081D005D004D003D002C002C003C004C0B4
:1004700005E4C0E0C0E074C8C0E07442C0E0852B71
:1004800082852C83852DF0E52E1206C6AE82E5818D
:1004900024FCF581D005D004D003D002EE603E7D6F
:1004A0006DC002C003C004C005E4C0E0C0E0747ABF
:1004B000C0E07444C0E0852B82852C83852DF0E557
:1004C0002E12090185822B85832C85F02DF52EE5D2
:1004D0008124FCF581D005D004D003D002ED339502
:1004E000E0FEC005C006C02BC02CC02DC02E747409
:1004F000C0E07400C0E07480C0E0C002C003C0046B
:100500001208AEE58124F4F5812212038E12023323
:100510009001F41201A27480C0E07400C0E0748005
:10052000C0E0120812158115811581741AC0E0749B
:1005300001C0E07480C0E0740EC0E07401C0E074DB
:1005400080C0E074D4C0E07400C0E07480C0E07487
:1005500085C0E07400C0E07480C0E0120812E5813C
:1005600024F4F581758A00758C00C28D75220020F7
:1005700081FD3081FDD28C308109108D0280F8051B
:100580002280F4208109108D0280F8052280F4C2B7
:100590008C852282120799AA82AB83ACF0FDC0023F
:1005A000C003C004C00590000075F08074471206B7
:1005B000F6AA82AB83ACF0FDE58124FCF581858C45
:1005C00082C002C003C004C005120799AE82AF8387
:1005D000A8F0F9C006C007C000C00190000075F087
:1005E0008074431206F6AE82AF83A8F0F9E5812449
:1005F000FCF581D005D004D003D002C006C007C0EE
:1006000000C0018A828B838CF0ED1207A4AA82AB12
:1006100083ACF0FDE58124FCF581AE8A7F008E82FB
:100620008F83C002C003C004C0051208F4AE82AFBD
:1006300083A8F0F9D005D004D003D002C006C007CB
:10064000C000C0018A828B838CF0ED1207A4AA82BD
:10065000AB83ACF0FDE58124FCF581C002C003C092
:1006600004C00590F4FC75F03274341206F6AA82C8
:10067000AB83ACF0FDE58124FCF5818A828B838C11
:10068000F0ED12039785822B85832C85F02DF52EB6
:1006900090002F75F0401203ED752301D2009000F9
:1006A0002F75F04012026502056420F71430F6142D
:1006B0008883A88220F507E6A88375830022E2805C
:1006C000F7E49322E022FFA8811818120A3ED2D143
:1006D00033E6400730E70B7582012220E70675827A
:1006E0000022C2D1120A20E97003F5822230D10122
:1006F000B3E433F58222120AEBBC0003020A8AEF4C
:1007000060FA30D502B2D1E583B4FF03020AA0E556
:1007100082B4FF03020AA0258340072482400B0213
:100720000A8A2483145003020AA0F582EA8DF0A4F9
:10073000A8F0EA8EF0A428F8E435F0F9EB8DF0A4E7
:1007400028E935F0F9E433CA8FF0A429F9EA35F045
:10075000FAEBF88EF0A429F9EA35F0FAE433FBEC71
:100760008DF0A429F9EA35F0FAE43BFBE88FF0A418
:100770002AFAEB35F0FBE433CCFD8EF0A42AFAEB39
:1007800035F0FBE43CFCED8FF0A42BFBEC35F0FCEA
:1007900020E703120AB8020A69E4AC82FBFAF97492
:1007A00086020B22120AEB7900E583B58202800DE6
:1007B0005003120B2CE583C39582120B46E5D0C47F
:1007C00065D020E117EA2DFAEB3EFBEC3FFC500927
:1007D0007401120B46EC4480FC020A69C3EA9DFADC
:1007E000EB9EFBEC9FFC500FC3E499F9E49AFAE40A
:1007F0009BFBE49CFCB2D1120AB8020A69021515EF
:1008000085825185835285F0538510549007FD02EF
:100810000F68C008858108E50824FBF554E5082425
:10082000FBF886510886520886539007FD120F6820
:10083000D0082210980280FBAA998A82C002121561
:1008400015D0028A822220F71030F6118883A88200
:1008500020F507F6A88375830022F280F7F022AA1C
:1008600082AB09AC0AAD0B8B828C838DF0EA120847
:10087000460509E4B50902050A2285820985830A2D
:1008800085F00B850C51850D52850E53850F5490C4
:10089000085F120F68AA82AB83AC09AD0AAE0B8C5D
:1008A000828D838EF0E41208468A828B8322C008F0
:1008B000858108E50824F8F554E50824FBF8860945
:1008C00008860A08860BE50824F8F886510886523F
:1008D00008865390085F120F68AA82AB83AC09ADFB
:1008E0000AAE0B8C828D838EF0E41208468A828BCE
:1008F00083D00822AC83AB827A007900748E021513
:1009000033120AEB30D502B2D1BF0009BC0003029A
:100910000AAD020AA0BC0003020A8AE583B4FF0BF9
:10092000E582B4FF03020AAD020A8AE582B4FF033E
:10093000020AA0C395835007247F400B020A8A2431
:1009400080145003020AA0C0E0E4CCCBCAF98D1198
:100950008E128F13EF54F0C4F5147583068514F0CE
:10096000EB84F582E9C4F9EAC4FAEBC4FBEC540F5A
:10097000C47803D6FC18EBD6FB18EAD6FA8582F0C9
:10098000EDA4A8F0FD8582F0EEA428FEE435F0F891
:100990008582F0EFA428FFE435F0F8E99DF9EA9E9E
:1009A000FAEB9FFBEC98FCAD11AE12AF1330E710E1
:1009B0001582E92DF9EA3EFAEB3FFBE43CFC80EDC1
:1009C000C082D58398C3E933F9EA33FAEB33FBEC01
:1009D00033FCC3E99DEA9EEB9FEC9400B3E413F96A
:1009E000D002D0E0C44AFAD003D0E0C44BFBD0041C
:1009F000D0E0F5F0540FC44CFCD082158230F40FD7
:100A0000D3EC13FCEB13FBEA13FAE913F90582E9C3
:100A100030E70A74012AFAE43BFBE43CFC020A8159
:100A20007901AA82E68F82B5821318E6B5F00E1816
:100A3000E6B5830918E68A82B58202790022B4807D
:100A40000FE5F0700AE5837006E58270027F00EF23
:100A5000B6801518B6001018B6000B18B6000608B8
:100A6000080876002208080822B98003EA13B34078
:100A700010EA2401FAE43BFBE43CFC50047C8005D2
:100A800082BC000EBB000BBA0008E4F5F0F583F55C
:100A90008222A2D1E582138CF092F78B838A822284
:100AA000E4F583F58275F080F4A2D11322E4F58396
:100AB000F58275F0C0747F227804EC7011E5822411
:100AC000F8500AF582E4C9CACBFCD8EF22EC7820B2
:100AD000058220E713D5820122C3E933F9EA33FA0C
:100AE000EB33FBEC33FCD8EA158222AA82AB83A25B
:100AF000F73392D16002D2F7F582ACF0E58124F9A8
:100B0000F8E6FD08E6FE0886F008E6A2F73392D57F
:100B10006002D2F7F583AFF022FCABF0AA83A98282
:100B2000749EC2D1F582120AB8020A69E582C583B1
:100B3000F582A2D133A2D592D11392D5ECCFFCEBA2
:100B4000CEFBEACDFA226040F82582500274FFF510
:100B500082E824F8501ECCCBCAF9E4CC24F8501417
:100B6000CBCAF9E4CB24F8500BCAF9E4CA24F850F4
:100B70000379002224086010F8C3EC13FCEB13FB8C
:100B8000EA13FAE913F9D8F122AA82749AC0E07440
:100B90000BC0E0C043C0448A8222054AE4B54A0241
:100BA000054B22AA8274302AFA24C6500A74072AF6
:100BB000FA3001034302208A82020B89E582FAC4DB
:100BC000540FF582C002120BA3D002740F5AF582A3
:100BD000020BA3AA45AB46AC47AD48AE49755020C1
:100BE000EE2EFEED235401FF4206EA2AFAEB33FB18
:100BF000EC33FCED33FDC3EE954C4008EEC3954C51
:100C0000FE430201D550D98A458B468C478D488ECC
:100C100049227861E624D075F00AA4FA7862E624C5
:100C2000D02AFA78608603BB2D04C3E49AFA754C87
:100C300001C3E464808AF063F08095F05029755018
:100C4000038A0374F62550401C054CE550142455C6
:100C5000F8E5502455F98704A604772E1BEBFA60BB
:100C600004055080DE8B02EA30E70D785686037863
:100C700057A6037856762E0AE54E600AE54E04FB29
:100C8000254CF54C8005300C02054C78558603E464
:100C9000BB2D0104FB7006200703300802054C3011
:100CA0000503020D59300657EB600C75822DC0020A
:100CB000120B89D002801C30070C75822BC00212E7
:100CC0000B89D002800D30080A758220C002120BF9
:100CD00089D00278568604BC2E0C758230C0021270
:100CE0000B89D002154DAC4D154DC3E54C9C40030E
:100CF000020D9D758230C002120B89D00280E7ACD4
:100D00004D154DC3E54C9C500C758220C002120B52
:100D100089D00280EA78558604BC2D0C75822DC0DE
:100D200002120B89D002801C30070C75822BC00286
:100D3000120B89D002800D30080A758220C0021281
:100D40000B89D00278568604BC2E52758230C002C0
:100D5000120B89D002154D8044EB600E75822DC0B8
:100D600002120B89D002154D802030070E75822BA0
:100D7000C002120B89D002154D800F30080C75820D
:100D800020C002120B89D002154D78568603BB2E67
:100D90000C758230C002120B89D002154D755001BE
:100DA000C20EE5502455F88603BB4503020E5ABB1C
:100DB0002E348A03C3E464808BF063F08095F05096
:100DC0000F758230C003120B89D0031B8B0280E4A5
:100DD0008B02D20EE54E7038200C03020E5A75823B
:100DE0002E120B898074300E278A03EB30E71FC365
:100DF000E46480854EF063F08095F0500C7582308D
:100E0000C003120B89D003154E0B8B0280DD8B02C1
:100E1000300E0EC3E46480854EF063F08095F05090
:100E200021E5502455F886038B82C002120B89D02D
:100E300002300E0EE5502455F88603BB2E028002C8
:100E4000154E154DC3E46480854EF063F08095F037
:100E50004003200E050550020DA2C3E46480854EB8
:100E6000F063F08095F0500A758230120B89154EB0
:100E700080E830050FAA4D154DEA600875822012F2
:100E80000B8980F122E54E7003300C0D7407254E5E
:100E9000FAE54DC39AF54D8006E54D24FAF54D75FA
:100EA000500078558602BA2B0F20070C7855762013
:100EB000200805755001054D200519AA4DC3E464AD
:100EC000808AF063F08095F0500A758220120B89B9
:100ED000154D80E7C20EE5502455F88602BA00028F
:100EE0008069BA451F3001027665C3E46480854E8F
:100EF000F063F08095F0500A758230120B89154E20
:100F000080E8D20EC3E5509402E433FA7014EA701C
:100F10000EC3E46480854EF063F08095F0400330AA
:100F20000E16E5502455F886028A82120B89E55088
:100F300024FD5012154E800E7402B55009300C0677
:100F400075822E120B890550020ED6300519AA4D56
:100F5000C3E464808AF063F08095F0500A758220C3
:100F6000120B89154D80E722858243858344E4F581
:100F70004AF54BAA51AB52AC538A828B838CF01248
:100F800006AAFD74012AF551E43BF5528C53EDFAA3
:100F9000700302150EBA25028003021506C205C2AF
:100FA00006C207C208C209C20AC20BC20CC202C2F0
:100FB00003C204754C00754D00754EFFAB51AC5229
:100FC000AD538B828C838DF01206AAFAA3AB82AC50
:100FD000838B518C528D53BA25078A82120B8980DC
:100FE000928A06BE3000402E8A06EE24C640277440
:100FF000FFB54E13E54D75F00AA4FEEA24D02EF598
:101000004D70BFD20680BBE54E75F00AA4FEEA24FF
:10101000D02EF54E80ACBA2E0A74FFB54EA4754E94
:1010200000809F8A06BE6100400E8A06EE2485403D
:10103000075302DFD2018002C201BA20028075BAD2
:1010400023030210C3BA2A030210C8BA2B02805F1E
:10105000BA2D028055BA4202805FBA430302110DD5
:10106000BA4403021248BA4503021262BA460302A6
:10107000125EBA4703021266BA4903021248BA4C1A
:1010800002803BBA4E0302126ABA4F0302124FBAF1
:1010900050030211E1BA5303021131BA550302128F
:1010A00054BA5803021259021294D205020FC2D246
:1010B00007020FC2D208020FC2D20A020FC2D20B1D
:1010C000020FC2D20C020FC274FFB54E20300A0BC1
:1010D000E55414F88854864D020FC2E55424FEF8F6
:1010E00088548606088607188E4D020FC2300A0BF8
:1010F000E55414F88854864E020FC2E55424FEF8D5
:1011000088548606088607188E4E020FC2300A0AD7
:10111000E55414F888548602800FE55424FEF888BC
:10112000548603088604188B028A82120B890212E5
:1011300099E55424FDF8885486030886040886053A
:1011400018188B458C468D478B828C838DF0121638
:1011500076AB82AC838B4F74FFB54E03854F4E2028
:10116000051DC3E54F954D5016E54DC3954FF54D03
:10117000AB4D154DEB6008758220120B8980F1850F
:1011800045828546838547F01206AAFBFA6029ABA3
:101190004E154EC3E464808BF063F08095F05018D8
:1011A0008A82120B89AB45AC46AD470BBB00010CE4
:1011B0008B458C468D4780C7200503021299C3E5F5
:1011C0004F954D4003021299E54DC3954FF54DAB38
:1011D0004D154DEB7003021299758220120B898018
:1011E000EEE55424FDF88854860308860408860535
:1011F00018188B458C468D47E547FB30E7047A434A
:101200008013EB546060047A50800AEB30E6047A75
:101210004980027A588A82C002120B8975823A127A
:101220000B89758230120B89758278120B89D00276
:10123000BA4902800BBA50028006854682120BBC66
:10124000854582120BBC8051D209754C0A804A75C3
:101250004C088045754C0A8040754C10803BD2028A
:101260008037D2038033D204802FE55424FDF888E0
:1012700054860308860408860518188B458C468D0D
:10128000478B828C838DF0E54A120846A3E54B120A
:10129000084680058A82120B89200206200303304B
:1012A0000470E55424FCF8885486030886040886F4
:1012B000050886061818188B458C468D478E48E51C
:1012C00045E546E547E5488B828C838DF0EE1215A7
:1012D0005774FFB54E03754E06300427747F55488A
:1012E000FB8B49E549EB2BFB8B49E54730E706745F
:1012F000014549F549E54924684006749925494066
:1013000002D203300306120E85020F73120C120272
:101310000F73E54C7003020F737B5A300A2BE554B0
:1013200014F88854E6FC3395E0FDFEFF8C458D46AD
:101330008E478F4820095EAC457D007E007F008C83
:10134000458D468E478F48804C300B1FE55424FC5A
:10135000F888548604088605088606088607181843
:10136000188C458D468E478F48802AE55424FEF818
:101370008854860408860518ED3395E0FEFF8C45F9
:101380008D468E478F4820090CAC45AD467E007FC8
:10139000008E478F48300C43E54545464547454854
:1013A00060397408B54C0C758230C003120B89D0BB
:1013B0000380287410B54C23758230C003120B894A
:1013C000D00330010C758278C003120B89D00380E2
:1013D0000A758258C003120B89D003300925AC4529
:1013E000AD46AE47E548FF30E717C3E49CFCE49DFB
:1013F000FDE49EFEE49FFF8C458D468E478F48801E
:1014000002C209754F00D20D8B00754900C0001251
:101410000BD3D000200D0DE549C4FCE6FD4CF618B9
:1014200088038002A649054FB20DE545454645476C
:10143000454870D68803E54D7003754D0120061AA6
:10144000200517E54F04FCC3954D500E758220C052
:1014500003120B89D003154D80E930090E75822DDA
:10146000C003120B89D003154D8024E54F60203056
:10147000070E75822BC003120B89D003154D800F08
:1014800030080C758220C003120B89D003154D2043
:10149000051EAC4D154DC3E54F9C50273006047C0E
:1014A0003080027C208C82C003120B89D00380E242
:1014B000C3E54F954D5009E54DC3954FF54D80035C
:1014C000754D008B00AB4F154FEB6022B20D200D18
:1014D0000A08E6C4540FFB8B4980078603740F5B30
:1014E000F549854982C000120BA3D00080D72005A2
:1014F00003020F73AB4D154DEB7003020F73758232
:1015000020120B8980EE8A82120B89020F73854AA2
:1015100082854B8322AA82BA0A0810990280FB7541
:10152000990D10990280FB8A9922FCABF0AA83A93D
:1015300082749EF582C2D1EC30E716D2D1E9F42450
:1015400001F9EAF43400FAEBF43400FBECF4340073
:10155000FC120AB8020A69C0E0F84582458345F0EA
:101560007009F5F0FBFCFDFE021625E823A2F792B8
:10157000E0F8A982AA83D2F7ABF07C007E07C3749F
:101580009798404074FF2EFE740A89F0A4F985F004
:1015900082740A8AF0A4FA85F083740A8BF0A4FBA3
:1015A000740529F9EA3582FAEB3583FB740035F0CE
:1015B000FCC3EC13FCEB13FBEA13FAE913F908EC98
:1015C00070EF80BAE8C3947FF88B838EF0E4FBFC65
:1015D000FDFEFF08C3E933F9EA33FAE58333F58307
:1015E000EB3BD4FBEC3CD4FCED3DD4FDEE3ED4FE15
:1015F000EF3FD4FF602D05F074052BD4FBE43CD401
:10160000FCE43DD4FDE43ED4FEE43FD4FF75820407
:10161000C3EF13FFEE13FEED13FDEC13FCEB13FB16
:10162000D582EDD8AF7855D0E020E704762B800244
:10163000762D087906E7C4540F4430F608B906033E
:10164000762E08E7540F4430F60819B902E77645BC
:1016500008E5F020E704762B8004762DF404087565
:10166000F00A844430F608E5F04430F608E4F690D9
:10167000005575F04022AA82AB83ACF07D007E005D
:101680008A828B838CF01206AAFFA3AA82AB83EF17
:1016900060070DBD00EA0E80E78D828E8322000078
:00000001FF
