:10000000020003758166120151E582600302006FF0
:10001000780079007A007B007C007D00EC4D601C4C
:1000200088828983E493A3A882A9838A828B83F040
:10003000A3AA82AB831CBCFFE31D80E07582007520
:1000400083007C007D00EC4D600AE4F0A31CBCFF43
:10005000F51D80F27582007583007C007D00EC4DFB
:10006000600AE4F0A31CBCFFF51D80F212015012DF
:1000700005FD80FE496E7365727420436170616393
:1000800069746F720043203D20252E346625634637
:10009000001B5B324A0045464D3820506572696F3F
:1000A00064206D6561737572656D656E7420617431
:1000B0002070696E2050302E31207573696E672074
:1000C00054696D657220302E0A46696C653A2025A8
:1000D000730A436F6D70696C65643A2025732C2038
:1000E00025730A0A00433A5C55736572735C6B634F
:1000F00067726F5C446F63756D656E74735C47699E
:10010000744875625C454C45433239315C4C414220
:10011000345C506572696F6445464D382E63004DFE
:10012000617220203120323032330031333A3036A0
:100130003A303000627574746F6E3220707265737D
:100140007365640A000D257300543D256C667300C9
:100150002275A7007597DE7597AD43FF8075EF0296
:1001600075A71075C12075A70075A90075A900E5D0
:10017000A930E7FB75A90375A903E5A930E7FB439F
:10018000A41075E10175E20075E340759810858E45
:100190008E758DE6858D8B53890F438920D28ED243
:1001A0009975820022AA82438E407592B87593FF9A
:1001B0008592948593957591047B00C3EB9A500BBF
:1001C000E59130E7FB53917F0B80F075910022AAF7
:1001D00082AB83BA0004BB0001227582F9C002C061
:1001E000031201A57582F91201A57582F91201A504
:1001F0007582FA1201A5D003D0021ABAFF011B8042
:10020000D2D2A57582281201A5C2A522AA828AE0AF
:10021000A2E792A1A2E692A2A2E592A3A2E492A4EE
:10022000C0021202017582281201A5D0028AE0A242
:10023000E392A1A2E292A2A2E192A3A2E092A4027E
:100240000201AA82D2A68A8212020C900002020146
:10025000CFAA82C2A68A8212020C9000050201CFA8
:10026000C2A59000141201CF75823312025175821B
:1002700033120251758232120251758228120251D4
:1002800075820C1202517582011202519000140203
:1002900001CFAA82AB83ACF07402B523047DC08089
:1002A000027D808D82C002C003C004120251900002
:1002B000051201CFD004D003D0027D007E00ED2ACC
:1002C000FFEE3BF88C018F82888389F01208CBFF08
:1002D00060208F82C002C003C004C005C0061202A5
:1002E00042D006D005D004D003D0020DBD00CF0E01
:1002F00080CC3000248D028E03C3EA9410EB64801E
:1003000094805015758220C002C003120242D003AF
:10031000D0020ABA00E30B80E0228582268583277B
:1003200085F028E4F529F52AE52424FFFFE52534A6
:10033000FFF879007A00C3E99FEA648088F063F0EF
:100340008095F05059C002C007C000C001120A8455
:10035000AB82D001D000D007D002BB0A028003BB21
:100360000D1DE5292526FCE52A3527FDAE288C82C2
:100370008D838EF0E4120A97852982852A8322E9EB
:100380002526FCEA3527FDAE288C828D838EF0EB86
:10039000120A9709B900010A89298A2A8098E52951
:1003A0002526FAE52A3527FBAC288A828B838CF038
:1003B000E4120A97852482852583225389F0438994
:1003C00001C28C22AA82AB83ACF0FDC002C003C084
:1003D00004C005906B2875F06E744E120947AA820E
:1003E000AB83ACF0FDE58124FCF58174C6C0E074FC
:1003F0009BC0E07458C0E07445C0E08A828B838C57
:10040000F0ED120B52AA82AB83ACF0FDE58124FC27
:10041000F5818A828B838CF0ED22AA82AB83ACF0CB
:100420007D6EC002C003C004C005E4C0E0C0E0743B
:10043000C0C0E0743FC0E0852B82852C83852DF001
:10044000E52E120917AE82E58124FCF581D005D096
:1004500004D003D002EE601C7474C0E07400C0E0ED
:100460007480C0E0C002C003C004120AFFE581240A
:10047000FAF58122C002C003C004C005E4C0E0C098
:10048000E074C8C0E07442C0E0852B82852C83856F
:100490002DF0E52E1208E7AE82E58124FCF581D02F
:1004A00005D004D003D002EE603E7D75C002C003CB
:1004B000C004C005E4C0E0C0E0747AC0E07444C089
:1004C000E0852B82852C83852DF0E52E120B52853D
:1004D000822B85832C85F02DF52EE58124FCF5817A
:1004E000D005D004D003D002C002C003C004C005B0
:1004F000E4C0E0C0E074C8C0E07442C0E0852B8274
:10050000852C83852DF0E52E1208E7AE82E5812447
:10051000FCF581D005D004D003D002EE603E7D6DA5
:10052000C002C003C004C005E4C0E0C0E0747AC0EB
:10053000E07444C0E0852B82852C83852DF0E52E68
:10054000120B5285822B85832C85F02DF52EE581AB
:1005500024FCF581D005D004D003D002C002C00332
:10056000C004C005E4C0E0C0E074C8C0E07442C08C
:10057000E0852B82852C83852DF0E52E1208E7AED1
:1005800082E58124FCF581D005D004D003D002EEB1
:10059000603E7D20C002C003C004C005E4C0E0C0CE
:1005A000E0747AC0E07444C0E0852B82852C83859A
:1005B0002DF0E52E120B5285822B85832C85F02D94
:1005C000F52EE58124FCF581D005D004D003D002BE
:1005D000ED3395E0FEC005C006C02BC02CC02DC079
:1005E0002E7485C0E07400C0E07480C0E0C002C01A
:1005F00003C004120AFFE58124F4F58122E4F52FFB
:10060000F5301203BB1202609001F41201CF749115
:10061000C0E07400C0E07480C0E0120A6315811568
:10062000811581742BC0E07401C0E07480C0E07457
:100630001FC0E07401C0E07480C0E074E5C0E074E5
:1006400000C0E07480C0E07496C0E07400C0E07444
:1006500080C0E0120A63E58124F4F581758A007593
:100660008C00C28D7522002081FD3081FDD28C303E
:100670008109108D0280F8052280F4208109108DF7
:100680000280F8052280F4C28C8522821209EAAC2D
:1006900082AD83AEF0FFC004C005C006C007900065
:1006A0000075F0807447120947AC82AD83AEF0FF4D
:1006B000E58124FCF581858C82C004C005C006C09C
:1006C000071209EAA882A983AAF0FBC000C001C0F2
:1006D00002C00390000075F0807443120947AA829B
:1006E000AB83A8F0F9E58124FCF581D007D006D0D2
:1006F00005D004C002C003C000C0018C828D838E6F
:10070000F0EF1209F5AA82AB83ACF0FDE58124FC81
:10071000F581AE8A7F008E828F83C002C003C00441
:10072000C005120B45AE82AF83A8F0F9D005D00406
:10073000D003D002C006C007C000C0018A828B83EC
:100740008CF0ED1209F5AA82AB83ACF0FDE58124B3
:10075000FCF581C002C003C004C00590F4FC75F034
:10076000327434120947AA82AB83ACF0FDE58124D0
:10077000FCF581209147C002C003C004C005743459
:10078000C0E07401C0E07480C0E0120A63158115F6
:10079000811581D005D004D003D002052FE4B52FF8
:1007A000020530C37401952FE464808530F063F056
:1007B0008095F05005E4F52FF5303091FD20933F02
:1007C0008A828B838CF0EDC002C003C004C0051286
:1007D00003C485822B85832C85F02DF52E90003166
:1007E00075F04012041A752302D20090003175F0A2
:1007F00040120292D005D004D003D0023093FDE520
:100800002F4530705D8A828B838CF0EDC002C0036F
:10081000C004C0051203C485822B85832C85F02D6E
:10082000F52E90003175F04012041A7431C0E07456
:1008300000C0E07440C0E07445C0E07401C0E074E2
:1008400080C0E0120A63E58124FAF581752301D2A4
:100850000090003175F040120292D005D004D00310
:10086000D0027401B52F06E4B53002800302065CA5
:10087000C002C003C004C0057449C0E07401C0E0F8
:100880007480C0E07431C0E07400C0E07440C0E027
:10089000120AFFE58124F6F5817431C0E07400C0CE
:1008A000E07440C0E07445C0E07401C0E07480C0F2
:1008B000E0120A63E58124FAF581752301D20090E4
:1008C000003175F04012029202065C20F71430F6F7
:1008D000148883A88220F507E6A88375830022E2A6
:1008E00080F7E49322E022FFA8811818120C8FD21F
:1008F000D133E6400730E70B7582012220E7067509
:10090000820022C2D1120C71E97003F5822230D12B
:1009100001B3E433F58222FFA8811818120C8FD29C
:10092000D133E6400730E70B7582002220E70675D9
:10093000820122C2D1120C71E97003F5822220D10A
:1009400001B3E433F58222120D3CBC0003020CDB40
:10095000EF60FA30D502B2D1E583B4FF03020CF1A7
:10096000E582B4FF03020CF1258340072482400B8B
:10097000020CDB2483145003020CF1F582EA8DF0A3
:10098000A4A8F0EA8EF0A428F8E435F0F9EB8DF095
:10099000A428E935F0F9E433CA8FF0A429F9EA353F
:1009A000F0FAEBF88EF0A429F9EA35F0FAE433FB1B
:1009B000EC8DF0A429F9EA35F0FAE43BFBE88FF07E
:1009C000A42AFAEB35F0FBE433CCFD8EF0A42AFA2E
:1009D000EB35F0FBE43CFCED8FF0A42BFBEC35F0A9
:1009E000FC20E703120D09020CBAE4AC82FBFAF911
:1009F0007486020D73120D3C7900E583B582028086
:100A00000D5003120D7DE583C39582120D97E5D03D
:100A1000C465D020E117EA2DFAEB3EFBEC3FFC5019
:100A2000097401120D97EC4480FC020CBAC3EA9DD4
:100A3000FAEB9EFBEC9FFC500FC3E499F9E49AFAA1
:100A4000E49BFBE49CFCB2D1120D09020CBA021724
:100A50006685825385835485F055851056900A4EDD
:100A60000211B9C008858108E50824FBF556E508A0
:100A700024FBF88653088654088655900A4E1211B6
:100A8000B9D0082210980280FBAA998A82C002126B
:100A90001766D0028A822220F71030F6118883A8C8
:100AA0008220F507F6A88375830022F280F7F022F2
:100AB000AA82AB09AC0AAD0B8B828C838DF0EA1253
:100AC0000A970509E4B50902050A2285820985838A
:100AD0000A85F00B850C53850D54850E55850F56F0
:100AE000900AB01211B9AA82AB83AC09AD0AAE0B61
:100AF0008C828D838EF0E4120A978A828B8322C0C7
:100B000008858108E50824F8F556E50824FBF886F1
:100B10000908860A08860BE50824F8F88653088633
:100B200054088655900AB01211B9AA82AB83AC0959
:100B3000AD0AAE0B8C828D838EF0E4120A978A8206
:100B40008B83D00822AC83AB827A007900748E024A
:100B50001784120D3C30D502B2D1BF0009BC00038E
:100B6000020CFE020CF1BC0003020CDBE583B4FFB7
:100B70000BE582B4FF03020CFE020CDBE582B4FF3E
:100B800003020CF1C395835007247F400B020CDB5A
:100B90002480145003020CF1C0E0E4CCCBCAF98DE0
:100BA000118E128F13EF54F0C4F51475830685145B
:100BB000F0EB84F582E9C4F9EAC4FAEBC4FBEC5427
:100BC0000FC47803D6FC18EBD6FB18EAD6FA858258
:100BD000F0EDA4A8F0FD8582F0EEA428FEE435F047
:100BE000F88582F0EFA428FFE435F0F8E99DF9EAF2
:100BF0009EFAEB9FFBEC98FCAD11AE12AF1330E701
:100C0000101582E92DF9EA3EFAEB3FFBE43CFC804B
:100C1000EDC082D58398C3E933F9EA33FAEB33FBAD
:100C2000EC33FCC3E99DEA9EEB9FEC9400B3E41324
:100C3000F9D002D0E0C44AFAD003D0E0C44BFBD0D4
:100C400004D0E0F5F0540FC44CFCD082158230F48F
:100C50000FD3EC13FCEB13FBEA13FAE913F905824B
:100C6000E930E70A74012AFAE43BFBE43CFC020C9D
:100C7000D27901AA82E68F82B5821318E6B5F00E0A
:100C800018E6B5830918E68A82B58202790022B493
:100C9000800FE5F0700AE5837006E58270027F0040
:100CA000EFB6801518B6001018B6000B18B600067F
:100CB00008080876002208080822B98003EA13B35E
:100CC0004010EA2401FAE43BFBE43CFC50047C8045
:100CD0000582BC000EBB000BBA0008E4F5F0F583FA
:100CE000F58222A2D1E582138CF092F78B838A825F
:100CF00022E4F583F58275F080F4A2D11322E4F5A5
:100D000083F58275F0C0747F227804EC7011E5825F
:100D100024F8500AF582E4C9CACBFCD8EF22EC785B
:100D200020058220E713D5820122C3E933F9EA3393
:100D3000FAEB33FBEC33FCD8EA158222AA82AB83B0
:100D4000A2F73392D16002D2F7F582ACF0E58124AC
:100D5000F9F8E6FD08E6FE0886F008E6A2F7339209
:100D6000D56002D2F7F583AFF022FCABF0AA83A9DD
:100D700082749EC2D1F582120D09020CBAE582C5B9
:100D800083F582A2D133A2D592D11392D5ECCFFCB8
:100D9000EBCEFBEACDFA226040F82582500274FFC8
:100DA000F582E824F8501ECCCBCAF9E4CC24F850E4
:100DB00014CBCAF9E4CB24F8500BCAF9E4CA24F8DE
:100DC000500379002224086010F8C3EC13FCEB13E5
:100DD000FBEA13FAE913F9D8F122AA8274EBC0E016
:100DE000740DC0E0C045C0468A8222054CE4B54C73
:100DF00002054D22AA8274302AFA24C6500A7407CA
:100E00002AFA3001034302208A82020DDAE582FACF
:100E1000C4540FF582C002120DF4D002740F5AF5BB
:100E200082020DF4AA47AB48AC49AD4AAE4B7552AD
:100E300020EE2EFEED235401FF4206EA2AFAEB33A0
:100E4000FBEC33FCED33FDC3EE954E4008EEC3954D
:100E50004EFE430201D552D98A478B488C498D4AB0
:100E60008E4B227863E624D075F00AA4FA7864E603
:100E700024D02AFA78628603BB2D04C3E49AFA755B
:100E80004E01C3E464808AF063F08095F0502975C8
:100E900052038A0374F62552401C054EE552142471
:100EA00057F8E5522457F98704A604772E1BEBFA6E
:100EB0006004055280DE8B02EA30E70D7858860325
:100EC0007859A6037858762E0AE550600AE5500452
:100ED000FB254EF54E8005300C02054E78578603F3
:100EE000E4BB2D0104FB7006200703300802054E09
:100EF000300503020FAA300657EB600C75822DC037
:100F000002120DDAD002801C30070C75822BC00251
:100F1000120DDAD002800D30080A758220C002124C
:100F20000DDAD00278588604BC2E0C758230C002CF
:100F3000120DDAD002154FAC4F154FC3E54E9C4051
:100F400003020FEE758230C002120DDAD00280E784
:100F5000AC4F154FC3E54E9C500C758220C0021259
:100F60000DDAD00280EA78578604BC2D0C75822DEC
:100F7000C002120DDAD002801C30070C75822BC023
:100F800002120DDAD002800D30080A758220C002EC
:100F9000120DDAD00278588604BC2E52758230C009
:100FA00002120DDAD002154F8044EB600E75822DCF
:100FB000C002120DDAD002154F802030070E758264
:100FC0002BC002120DDAD002154F800F30080C75BD
:100FD0008220C002120DDAD002154F78588603BB6A
:100FE0002E0C758230C002120DDAD002154F7552E8
:100FF00001C20EE5522457F88603BB45030210AB2D
:10100000BB2E348A03C3E464808BF063F08095F0D8
:10101000500F758230C003120DDAD0031B8B028093
:10102000E48B02D20EE5507038200C030210AB7531
:10103000822E120DDA8074300E278A03EB30E71F00
:10104000C3E464808550F063F08095F0500C7582A5
:1010500030C003120DDAD00315500B8B0280DD8BEC
:1010600002300E0EC3E464808550F063F08095F08A
:101070005021E5522457F886038B82C002120DDA04
:10108000D002300E0EE5522457F88603BB2E0280A4
:10109000021550154FC3E464808550F063F08095CD
:1010A000F04003200E050552020FF3C3E46480856F
:1010B00050F063F08095F0500A758230120DDA1509
:1010C0005080E830050FAA4F154FEA60087582205E
:1010D000120DDA80F122E5507003300C0D740725F3
:1010E00050FAE54FC39AF54F8006E54F24FAF54FC5
:1010F00075520078578602BA2B0F20070C78577666
:1011000020200805755201054F200519AA4FC3E498
:1011100064808AF063F08095F0500A758220120D89
:10112000DA154F80E7C20EE5522457F88602BA005E
:10113000028069BA451F3001027665C3E464808588
:1011400050F063F08095F0500A758230120DDA1578
:101150005080E8D20EC3E5529402E433FA7014EAE8
:10116000700EC3E464808550F063F08095F0400316
:10117000300E16E5522457F886028A82120DDAE5FF
:101180005224FD50121550800E7402B55209300CD5
:101190000675822E120DDA0552021127300519AAA2
:1011A0004FC3E464808AF063F08095F0500A758242
:1011B00020120DDA154F80E722858245858346E4AB
:1011C000F54CF54DAA53AB54AC558A828B838CF009
:1011D0001208CBFD74012AF553E43BF5548C55ED10
:1011E000FA700302175FBA25028003021757C2057F
:1011F000C206C207C208C209C20AC20BC20CC2029E
:10120000C203C204754E00754F007550FFAB53AC5E
:1012100054AD558B828C838DF01208CBFAA3AB8230
:10122000AC838B538C548D55BA25078A82120DDA04
:1012300080928A06BE3000402E8A06EE24C64027E1
:1012400074FFB55013E54F75F00AA4FEEA24D02EC2
:10125000F54F70BFD20680BBE55075F00AA4FEEAD8
:1012600024D02EF55080ACBA2E0A74FFB550A47568
:101270005000809F8A06BE6100400E8A06EE2485DB
:1012800040075302DFD2018002C201BA20028075FA
:10129000BA2303021314BA2A03021319BA2B0280C9
:1012A0005FBA2D028055BA4202805FBA430302132F
:1012B0005EBA4403021499BA45030214B3BA460352
:1012C0000214AFBA47030214B7BA4903021499BA19
:1012D0004C02803BBA4E030214BBBA4F030214A067
:1012E000BA5003021432BA5303021382BA550302EE
:1012F00014A5BA58030214AA0214E5D20502121367
:10130000D207021213D208021213D20A021213D207
:101310000B021213D20C02121374FFB55020300AC4
:101320000BE55614F88856864F021213E55624FE34
:10133000F888568606088607188E4F021213300A60
:101340000BE55614F888568650021213E55624FE13
:10135000F888568606088607188E50021213300A3F
:101360000AE55614F888568602800FE55624FEF8E2
:1013700088568603088604188B028A82120DDA02C8
:1013800014EAE55624FDF888568603088604088684
:101390000518188B478C488D498B828C838DF012F1
:1013A00018C7AB82AC838B5174FFB5500385515085
:1013B00020051DC3E551954F5016E54FC39551F5D6
:1013C0004FAB4F154FEB6008758220120DDA80F19C
:1013D0008547828548838549F01208CBFBFA60294E
:1013E000AB501550C3E464808BF063F08095F050EF
:1013F000188A82120DDAAB47AC48AD490BBB00012D
:101400000C8B478C488D4980C72005030214EAC322
:10141000E551954F40030214EAE54FC39551F54F4E
:10142000AB4F154FEB70030214EA758220120DDAF0
:1014300080EEE55624FDF888568603088604088663
:101440000518188B478C488D49E549FB30E7047A2D
:10145000438013EB546060047A50800AEB30E6045A
:101460007A4980027A588A82C002120DDA75823A6D
:10147000120DDA758230120DDA758278120DDAD01B
:1014800002BA4902800BBA50028006854882120EC9
:101490000D854782120E0D8051D209754E0A804A81
:1014A000754E088045754E0A8040754E10803BD2BF
:1014B000028037D2038033D204802FE55624FDF812
:1014C0008856860308860408860518188B478C48BA
:1014D0008D498B828C838DF0E54C120A97A3E54DE4
:1014E000120A9780058A82120DDA20020620030371
:1014F000300470E55624FCF88856860308860408F4
:1015000086050886061818188B478C488D498E4A20
:10151000E547E548E549E54A8B828C838DF0EE127C
:1015200017A874FFB55003755006300427747F5513
:101530004AFB8B4BE54BEB2BFB8B4BE54930E7062E
:101540007401454BF54BE54B246840067499254BD7
:101550004002D2033003061210D60211C4120E63E9
:101560000211C4E54E70030211C47B5C300A2BE506
:101570005614F88856E6FC3395E0FDFEFF8C478D47
:10158000488E498F4A20095EAC477D007E007F006F
:101590008C478D488E498F4A804C300B1FE556246E
:1015A000FCF888568604088605088606088607180B
:1015B00018188C478D488E498F4A802AE55624FE9C
:1015C000F88856860408860518ED3395E0FEFF8CF2
:1015D000478D488E498F4A20090CAC47AD487E00A4
:1015E0007F008E498F4A300C43E5474548454945C1
:1015F0004A60397408B54E0C758230C003120DDA9A
:10160000D00380287410B54E23758230C003120DAC
:10161000DAD00330010C758278C003120DDAD003E2
:10162000800A758258C003120DDAD003300925AC48
:1016300047AD48AE49E54AFF30E717C3E49CFCE4F8
:101640009DFDE49EFEE49FFF8C478D488E498F4AA6
:101650008002C209755100D20D8B00754B00C0008D
:10166000120E24D000200D0DE54BC4FCE6FD4CF617
:101670001888038002A64B0551B20DE54745484541
:1016800049454A70D68803E54F7003754F0120061F
:101690001A200517E55104FCC3954F500E758220A2
:1016A000C003120DDAD003154F80E930090E7582A0
:1016B0002DC003120DDAD003154F8024E5516020B0
:1016C00030070E75822BC003120DDAD003154F8040
:1016D0000F30080C758220C003120DDAD003154FAD
:1016E00020051EAC4F154FC3E5519C502730060412
:1016F0007C3080027C208C82C003120DDAD0038003
:10170000E2C3E551954F5009E54FC39551F54F8020
:1017100003754F008B00AB511551EB6022B20D20C9
:101720000D0A08E6C4540FFB8B4B80078603740F29
:101730005BF54B854B82C000120DF4D00080D720A2
:1017400005030211C4AB4F154FEB70030211C475B2
:101750008220120DDA80EE8A82120DDA0211C4851F
:101760004C82854D8322AA82BA0A0810990280FB16
:1017700075990D10990280FB8A9922FCABF0AA831F
:10178000A982749EF582C2D1EC30E716D2D1E9F479
:101790002401F9EAF43400FAEBF43400FBECF434FD
:1017A00000FC120D09020CBAC0E0F84582458345E1
:1017B000F07009F5F0FBFCFDFE021876E823A2F7B5
:1017C00092E0F8A982AA83D2F7ABF07C007E07C32F
:1017D000749798404074FF2EFE740A89F0A4F9852E
:1017E000F082740A8AF0A4FA85F083740A8BF0A45C
:1017F000FB740529F9EA3582FAEB3583FB74003571
:10180000F0FCC3EC13FCEB13FBEA13FAE913F90841
:10181000EC70EF80BAE8C3947FF88B838EF0E4FB22
:10182000FCFDFEFF08C3E933F9EA33FAE58333F53B
:1018300083EB3BD4FBEC3CD4FCED3DD4FDEE3ED43D
:10184000FEEF3FD4FF602D05F074052BD4FBE43C84
:10185000D4FCE43DD4FDE43ED4FEE43FD4FF7582E5
:1018600004C3EF13FFEE13FEED13FDEC13FCEB13BB
:10187000FBD582EDD8AF7857D0E020E704762B80F7
:1018800002762D087906E7C4540F4430F608B906ED
:1018900003762E08E7540F4430F60819B902E776AC
:1018A0004508E5F020E704762B8004762DF4040843
:1018B00075F00A844430F608E5F04430F608E4F6A2
:1018C00090005775F04022AA82AB83ACF07D007E79
:1018D000008A828B838CF01208CBFFA3AA82AB8391
:1018E000EF60070DBD00EA0E80E78D828E83220037
:00000001FF
